:020000040800F2
:10000000802E0020991E000859750008851E0008E2
:10001000851E0008851E0008851E000800000000DF
:10002000000000000000000000000000CD1E0008DD
:10003000851E00080000000061210008054000083E
:1000400019220008192200081922000819220008A4
:100050001922000819220008192200081922000894
:100060001922000819220008192200081922000884
:100070001922000819220008192200081922000874
:100080001922000819220008192200081922000864
:100090001922000819220008192200081922000854
:1000A0001922000819220008192200081922000844
:1000B0001922000819220008192200081922000834
:1000C0001922000819220008192200081922000824
:1000D0001922000819220008192200081922000814
:1000E0001922000819220008192200081922000804
:1000F00019220008192200081922000819220008F4
:1001000019220008192200081922000819220008E3
:1001100019220008192200081922000819220008D3
:1001200019220008192200081922000819220008C3
:1001300019220008192200081922000819220008B3
:1001400019220008192200081922000819220008A3
:0C015000192200081922000819220008DA
:1001600081F0004102E000BF83F0004330B54FEA68
:1001700041044FEA430594EA050F08BF90EA020FD5
:100180001FBF54EA000C55EA020C7FEA645C7FEA68
:10019000655C00F0E2804FEA5454D4EB5555B8BF8B
:1001A0006D420CDD2C4480EA020281EA030382EAFC
:1001B000000083EA010180EA020281EA0303362D8E
:1001C00088BF30BD11F0004F4FEA01314FF4801C61
:1001D0004CEA113102D0404261EB410113F0004F73
:1001E0004FEA03334CEA133302D0524263EB43032A
:1001F00094EA050F00F0A780A4F10104D5F1200EC8
:100200000DDB02FA0EFC22FA05F2801841F1000122
:1002100003FA0EF2801843FA05F359410EE0A5F1F6
:1002200020050EF1200E012A03FA0EFC28BF4CF027
:10023000020C43FA05F3C01851EBE37101F00045DD
:1002400007D54FF0000EDCF1000C7EEB00006EEBEA
:100250000101B1F5801F1BD3B1F5001F0CD3490874
:100260005FEA30004FEA3C0C04F101044FEA4452CB
:1002700012F5800F80F09A80BCF1004F08BF5FEA52
:10028000500C50F1000041EB045141EA050130BD32
:100290005FEA4C0C404141EB0101013C28BFB1F544
:1002A000801FE9D291F0000F04BF01460020B1FA8F
:1002B00081F308BF2033A3F10B03B3F120020CDA62
:1002C0000C3208DD02F1140CC2F10C0201FA0CF040
:1002D00021FA02F10CE002F11402D8BFC2F1200CA5
:1002E00001FA02F120FA0CFCDCBF41EA0C0190405B
:1002F000E41AA2BF01EB0451294330BD6FEA0404A4
:100300001F3C1CDA0C340EDC04F11404C4F120028E
:1003100020FA04F001FA02F340EA030021FA04F3A0
:1003200045EA030130BDC4F10C04C4F1200220FAF7
:1003300002F001FA04F340EA0300294630BD21FA35
:1003400004F0294630BD94F0000F83F4801306BFFB
:1003500081F480110134013D4EE77FEA645C18BFEF
:100360007FEA655C29D094EA050F08BF90EA020F86
:1003700005D054EA000C04BF1946104630BD91EA7E
:10038000030F1EBF0021002030BD5FEA545C05D181
:100390004000494128BF41F0004130BD14F58004C0
:1003A0003CBF01F5801130BD01F0004545F0FE4134
:1003B00041F470014FF0000030BD7FEA645C1ABF69
:1003C000194610467FEA655C1CBF0B46024650EAA0
:1003D000013406BF52EA033591EA030F41F40021CC
:1003E00030BD00BF90F0000F04BF0021704730B552
:1003F0004FF4806404F132044FF000054FF0000127
:1004000050E700BF90F0000F04BF0021704730B5E7
:100410004FF4806404F1320410F0004548BF4042BC
:100420004FF000013EE700BF42004FEAE2014FEA11
:1004300031014FEA02701FBF12F07F4393F07F4FEC
:1004400081F06051704732F07F4208BF704793F0EF
:100450007F4F04BF41F40021704730B54FF4607402
:1004600001F0004521F000411CE700BF50EA010205
:1004700008BF704730B54FF000050AE050EA0102AE
:1004800008BF704730B511F0004502D5404261EB1E
:1004900041014FF4806404F132045FEA915C3FF45F
:1004A000D8AE4FF003025FEADC0C18BF03325FEAFC
:1004B000DC0C18BF033202EBDC02C2F1200300FAAD
:1004C00003FC20FA02F001FA03FE40EA0E0021FAD2
:1004D00002F11444BDE600BF70B54FF0FF0C4CF4C0
:1004E000E06C1CEA11541DBF1CEA135594EA0C0F72
:1004F00095EA0C0F00F0DEF82C4481EA030621EAAD
:100500004C5123EA4C5350EA013518BF52EA0335E7
:1005100041F4801143F4801338D0A0FB02CE4FF099
:100520000005E1FB02E506F00042E0FB03E54FF0C9
:100530000006E1FB03569CF0000F18BF4EF0010EC1
:10054000A4F1FF04B6F5007F64F5407404D25FEABD
:100550004E0E6D4146EB060642EAC62141EA555170
:100560004FEAC52040EA5E504FEACE2EB4F1FD0CB2
:1005700088BFBCF5E06F1ED8BEF1004F08BF5FEA30
:10058000500E50F1000041EB045170BD06F00046E2
:1005900046EA010140EA020081EA0301B4EB5C048F
:1005A000C2BFD4EB0C0541EA045170BD41F4801187
:1005B0004FF0000E013C00F3AB8014F1360FDEBFAC
:1005C000002001F0004170BDC4F10004203C35DA88
:1005D0000C341BDC04F11404C4F1200500FA05F30B
:1005E00020FA04F001FA05F240EA020001F00042AC
:1005F00021F0004110EBD37021FA04F642EB060122
:100600005EEA430E08BF20EAD37070BDC4F10C044B
:10061000C4F1200500FA04F320FA05F001FA04F20F
:1006200040EA020001F0004110EBD37041F10001FB
:100630005EEA430E08BF20EAD37070BDC4F1200506
:1006400000FA05F24EEA020E20FA04F301FA05F26E
:1006500043EA020321FA04F001F0004121FA04F216
:1006600020EA020000EBD3705EEA430E08BF20EAE6
:10067000D37070BD94F0000F0FD101F00046400020
:1006800041EB010111F4801F08BF013CF7D041EAA2
:10069000060195F0000F18BF704703F000465200A6
:1006A00043EB030313F4801F08BF013DF7D043EA77
:1006B0000603704794EA0C0F0CEA135518BF95EA2D
:1006C0000C0F0CD050EA410618BF52EA4306D1D1B4
:1006D00081EA030101F000414FF0000070BD50EAD3
:1006E000410606BF1046194652EA430619D094EA5D
:1006F0000C0F02D150EA013613D195EA0C0F05D147
:1007000052EA03361CBF104619460AD181EA03019A
:1007100001F0004141F0FE4141F470014FF0000052
:1007200070BD41F0FE4141F4780170BD70B54FF0ED
:10073000FF0C4CF4E06C1CEA11541DBF1CEA13556D
:1007400094EA0C0F95EA0C0F00F0A7F8A4EB05044F
:1007500081EA030E52EA03354FEA013100F0888046
:100760004FEA03334FF0805545EA131343EA12630F
:100770004FEA022245EA111545EA10654FEA0026C4
:100780000EF000419D4208BF964244F1FD0404F57D
:10079000407402D25B084FEA3202B61A65EB0305D9
:1007A0005B084FEA32024FF480104FF4002CB6EB96
:1007B000020E75EB030E22BFB61A754640EA0C0016
:1007C0005B084FEA3202B6EB020E75EB030E22BF56
:1007D000B61A754640EA5C005B084FEA3202B6EB97
:1007E000020E75EB030E22BFB61A754640EA9C0056
:1007F0005B084FEA3202B6EB020E75EB030E22BF26
:10080000B61A754640EADC0055EA060E18D04FEAE3
:10081000051545EA16754FEA06164FEAC30343EA83
:1008200052734FEAC2025FEA1C1CC0D111F4801F50
:100830000BD141EA00014FF000004FF0004CB6E749
:1008400011F4801F04BF01430020B4F1FD0C88BFE8
:10085000BCF5E06F3FF6AFAEB5EB030C04BFB6EBF3
:10086000020C5FEA500C50F1000041EB045170BDE6
:100870000EF0004E4EEA113114EB5C04C2BFD4EB13
:100880000C0541EA045170BD41F480114FF0000E97
:10089000013C90E645EA060E8DE60CEA135594EA13
:1008A0000C0F08BF95EA0C0F3FF43BAF94EA0C0F16
:1008B0000AD150EA01347FF434AF95EA0C0F7FF48B
:1008C00025AF104619462CE795EA0C0F06D152EADF
:1008D00003353FF4FDAE1046194622E750EA4106C3
:1008E00018BF52EA43067FF4C5AE50EA41047FF4D4
:1008F0000DAF52EA43057FF4EBAE12E74FEA410237
:1009000012F5001215D211D56FF47873B3EB625261
:1009100012D94FEAC12343F0004343EA505311F088
:10092000004F23FA02F018BF404270474FF000001A
:10093000704750EA013005D111F0004008BF6FF058
:10094000004070474FF00000704700BF53B94AB9EC
:10095000002908BF00281CBF4FF0FF314FF0FF30C7
:1009600000F00CB8ADF1080C6DE904CE00F01BF8F6
:10097000DDF804E0DDE9022304B07047704700BFF2
:10098000430803F05533C01A00F03333800800F0F9
:100990003330184400EB10104FF0013300F00F30EB
:1009A0005843000E70472DE9F0478C468E46089E4E
:1009B000154604461946002B40F0D080724547D9B1
:1009C000B2FA82F74FB1C7F120030EFA07FC20FA02
:1009D00003F3BD4043EA0C0CBC404FEA154EA8B2ED
:1009E000BCFBFEF8230C0EFB18CC08FB00F943EA15
:1009F0000C43994528D9EB1808F1FF3204D29945E8
:100A000002D9A8F102022B44A3EB0903A4B2B3FB61
:100A1000FEFC0EFB1C330CFB00F044EA0344A04236
:100A200014D92C190CF1FF3304D2A04202D9ACF135
:100A300002032C44241A43EA02401EB1FC40002366
:100A400034607360BDE8F0874246DDE76346F1E756
:100A5000002A79D0B2FA82F3002B3FD01946C1F1B7
:100A6000200302FA01F52EFA03F20EFA01FE20FA33
:100A700003F343EA0E034FEA154E00FA01F4B2FB0A
:100A8000FEFCAFB20EFB1C201A0C0CFB07F842EA6E
:100A9000004290455AD9AA180CF1FF3004D2904573
:100AA00002D9ACF102002A44A2EB08029BB2B2FBCD
:100AB000FEFC0EFB1C220CFB07F743EA02439F429D
:100AC00046D9EB180CF1FF3204D29F4202D9ACF1A7
:100AD00002022B44DB1B42EA004202E0AEEB0203BF
:100AE00001224FEA154EAFB2B3FBFEFC200C0EFB09
:100AF0001C330CFB07F840EA034398452AD9EB184E
:100B00000CF1FF3004D2984502D9ACF102002B441D
:100B1000A3EB0803A4B2B3FBFEFC0EFB1C330CFBDF
:100B200007F744EA0344A74216D92C190CF1FF3306
:100B300004D2A74202D9ACF102032C44E41B43EADD
:100B400000400F46114678E71F2188E76046ABE773
:100B50006246BFE76046DBE76346EFE7734506D9C9
:100B600016B9002108466DE7C6E9000EF9E7B3FAA9
:100B700083F787B9734501D3824207D8841A6EEB95
:100B8000030301209C461EB900215BE73846FAE7C3
:100B9000C6E9004CF8E7C7F1200CBB4022FA0CF57F
:100BA0001D4320FA0CF12EFA0CF30EFA07FE41EA6F
:100BB0000E014FEA154900FA07F4B3FBF9F81FFAE2
:100BC00085FE09FB18300B0C08FB0EFA43EA0043C4
:100BD0009A4502FA07F240D9EB1808F1FF3004D227
:100BE0009A4502D9A8F102002B44A3EB0A0389B26B
:100BF000B3FBF9F809FB183308FB0EFE41EA034189
:100C00008E452CD9691808F1FF3304D28E4502D9DC
:100C1000A8F10203294443EA0040A0FB0298A1EB9B
:100C20000E014145CE46434602D306D14C4504D27F
:100C3000B9EB020E68EB05030138002EA4D0B4EB2B
:100C40000E0261EB030101FA0CFC22FA07F34CEAF5
:100C50000303F940C6E9003196E74046C5E743463D
:100C6000D9E700000000000030B52DED068B0446EA
:100C700093B0002006F0E7FA202C42D1082220464B
:100C800008A900F03DFD444B1888FFF7ABFB044674
:100C90000D46BDF92000FFF7B5FB22462B46FFF7B6
:100CA00045FD41EC1A0BBDF92200FFF7ABFB2246D4
:100CB0002B46FFF73BFD41EC190BBDF92400FFF774
:100CC000A1FB22462B46FFF731FD41EC180BBDF985
:100CD0002600FFF797FB22462B46FFF727FD41EC46
:100CE000130BB0EE4A0AF0EE6A0AB0EE491AF0EEC3
:100CF000691AB0EE482AF0EE682A13B0BDEC068BF4
:100D000030BD062208A9204600F0FAFC142C38D089
:100D100006D8082C0CD00E2C0CD0204D00240FE04F
:100D20001A2C30D0192CF8D9282C01D02E2CF4D123
:100D30001B4B00E01B4B1888FFF754FB04460D4685
:100D4000BDF92000FFF75EFB22462B46FFF7EEFCC5
:100D500041EC190BBDF92200FFF754FB22462B464C
:100D6000FFF7E4FC41EC180BBDF92400FFF74AFB48
:100D700022462B46FFF7DAFC9FED05AB41EC130B47
:100D8000AFE7094BD7E7094BD5E700BFAFF30080CA
:100D900000000000000000008A0100200000F03F79
:100DA000920100208C010020900100208E01002083
:100DB000014803F08FBC00BF0002002038B51C4D75
:100DC0004FF0FF324FF0FF331A4803F0B7FC2C7896
:100DD000194804F0010106F0F8F9C4F3400117487E
:100DE00006F0F3F9C4F38001154806F0EEF9154852
:100DF000C4F3C00106F0E9F9642007F0E1FF1248EE
:100E0000124983685B6898472B7858B9104AB2F941
:100E1000002007EE902A0F4AF8EEE77A02EB8302F1
:100E2000C2ED007A013303F003032B70C8E700BF63
:100E3000D00D0020E001002028A1000830A100080A
:100E400038A1000840A1000830950008A800002043
:100E5000C80D002050090020F7B5044683685B6C7C
:100E6000C3B9294E294DA3685B6B13B1204698473F
:100E700098B1A3689B6983B101220DF10701204657
:100E80009847012809D19DF80710FF2907D10023B1
:100E90003370E8E798470028E3D103B0F0BD32781B
:100EA000042A2AD929781A480A2764390023794361
:100EB000337006F0BDF969781648C1F164017943D1
:100EC00006F0B6F9A978144806F0B2F9E9781348A3
:100ED00006F0AEF9BFF35B8F114B53E8001F0131F1
:100EE00043E80012002AF8D1BFF35B8F0D488368F6
:100EF0004FF400415B699847B5E7531CDBB2052B03
:100F0000A9543370AFD1CDE7CF0D0020CA0D00201A
:100F10008009002084090020740900207009002045
:100F20007C0900206C94000838B5104806F047F999
:100F300004460F484FF0FF324FF0FF3303F0FEFB43
:100F40000A4806F03CF98442054605D009480121CB
:100F500006F06EF92C46ECE70648002106F068F929
:100F6000054806F065F90548F2E700BF7C09002056
:100F70001002002078090020840900208009002048
:100F800030B52DED028B274D9FB04FF0FF324FF063
:100F9000FF33254803F0D2FB2448254B06F00FF918
:100FA00007EE900A234806F00AF9F8EEE77AB2EE67
:100FB000047A87EE878A07EE900AF8EEE77A1E48F1
:100FC00006F0FDF8C7EE876A003818BF01200990C7
:100FD0005A7B08921A7B0792DA7A06929B7A0593DB
:100FE000164B1B68049316EE900AFFF71DFACDE925
:100FF000020118EE100AFFF717FA114ACDE90001B5
:1010000050210AA804F0A8FA01384E28BDD80AAC2D
:1010100014F8011B0029B8D0AB6828465B689847D4
:10102000F6E700BFF89400080002002084090020C1
:10103000BC000020800900207809002088090020D9
:101040007EAA0008F0B52DED0A8BBF4DBF4F8DB0C5
:101050004FF0FF324FF0FF33BD4803F06FFB06F057
:101060002FF951EC110B8DED040B8DED061B8DED61
:10107000082B8DED0A3BFFF741FCAC682860041B90
:10108000B42C4EDC14F1B40F4EDBAB692C61A860BC
:101090001C44DDE90A01AC61FFF730FCEB686860D5
:1010A000C31AB42B43DC13F1B40F43DBEA69E860E5
:1010B0001A44A8486B61EA6106F081F8C3B2A648F9
:1010C00006F07DF8A54806F07AF8B0B3A44806F01B
:1010D00076F807EE900AA34806F071F8F8EEE77A82
:1010E000B2EE047AC7EE87AA07EE900AF8EEE77A26
:1010F00087EE878A9C4A082B92ED007A22D1F6EE81
:10110000007A37EE677A82ED007A0923BB730023F9
:10111000CDE90033002200233946944801F086FDD2
:1011200096E7A4F5B474B0E704F5B474ADE7A3F59D
:10113000B473BBE703F5B473B8E79FED8D8AF0EEA7
:1011400048AAD7E7042B04D1F6EE007A37EE277AC7
:10115000D9E7102B874A9FED886A02D100231360DC
:1011600008E0202B01D1854BF9E7402B40F0D780D8
:1011700082ED006A824BD2ED007AD3ED006ADFED9A
:10118000815ADFED818A9FED81BA77EEE67A47EEEC
:10119000A56AFDEEC77AC3ED006A17EE906AC6EE47
:1011A000867A2644DFED7A6A67EEA67AFDEEE77A64
:1011B00017EE903AF61A6FF013039E42B8BF1E4620
:1011C000142E744BA8BF14261E60331907EE903AF4
:1011D000F8EEE77A77EE877A67EE867A87EEA6AA48
:1011E0003AEE289A7AEE688AB0EE490A05F0EAFBF0
:1011F000F0EE40CAB0EE490A05F080FAF0EE409AEF
:10120000B0EE680A05F0DEFBB0EE40CAB0EE680A48
:1012100005F074FA7AEE4B8AB0EE409AB0EE680AA6
:1012200005F0D0FBF0EE40BAB0EE680A05F066FAC1
:101230003AEE0BAAF0EE408AB0EE4A0A05F0C2FB85
:1012400068EE299A4AEEAC9AB0EE40BAB0EE4A0A7D
:1012500005F054FADFED506A9FED507A79EEA67AE8
:10126000B0EE406AF4EEC77AF1EE10FA5CDAF5EE11
:10127000C07AF1EE10FA59D9FCEEE77ACDED037A97
:101280009DF80C3028EE099A0AEE8C9AF2B253FAC5
:1012900086F6BE7279EE267AF4EEC77AF1EE10FA8F
:1012A00046DAF5EEC07AF1EE10FA43D9FCEEE77AB1
:1012B000CDED037A9DF80C3068EE288A4AEEAB8AB1
:1012C0001344FB7278EEA67AF4EEC77AF1EE10FAC8
:1012D00032DAF5EEC07AF1EE10FA2FD9FCEEE77AA9
:1012E000CDED037A9DF80C3028EE068A0AEE8B8A43
:1012F00013443B7338EE268AB4EEC78AF1EE10FA37
:101300001EDAB5EEC08AF1EE10FA1BD9FCEEC87AEF
:10131000CDED037A9DF80C301A447A73F5E6802BF4
:101320007FF428AF1E4B1AE7FF23ABE70023A9E7A2
:10133000FF23C1E70023BFE7FF23D5E70023D3E75F
:10134000FF23E9E70023E7E788090020BC0000202D
:10135000F0010020740900207009002078090020A5
:10136000840900208009002064090020A09500085D
:101370000000000068090020D80F4940F90FC93F5C
:101380006C090020CDCCCC3DFBCB1640F90F493F7A
:1013900000003443600900200000C84200007F4381
:1013A000F90FC9BF014803F095B900BFF001002053
:1013B000014803F08FB900BF10020020014803F07C
:1013C00089B900BFE0010020D0B58F4888B005F092
:1013D000F4FE00B9FEE78D4805F00BFF0324012160
:1013E0008A4805F0F2FE642005F01DFF87480021C1
:1013F00005F0EBFE642005F016FF013CEFD18448B8
:1014000005F0F7FE834805F0F4FE834805F0F1FE91
:10141000824805F0EEFE7C4805F0CFFE10B1804812
:1014200005F0E7FE784805F0C8FE98B17D4805F064
:10143000E0FE052401217B4805F0C7FE502005F0A1
:10144000F2FE7848002105F0C0FE502005F0EBFECA
:10145000013CEFD1744C204605F0AFFE014668B167
:10146000A3682BB19B6C1BB17049002220469847A2
:10147000A3689B6A0BB16C48984701216C4C684883
:1014800005F0A3FE204605F098FE18B1A36820469B
:101490005B689847674805F090FE30B1664800F0F9
:1014A00009F905F0F3FE05F0E3FE644805F085FE5A
:1014B00048B16348802105F02AFF9FED620A604829
:1014C000802100F043F9604C204605F076FE20B103
:1014D000A3685E491B68204698474FF4FA7005F0F0
:1014E000A2FE0026002700240223CDE90334CDE923
:1014F0000667CDE90144564B564900944FF400620B
:10150000554803F0E5F95549534803F075F90623AA
:10151000CDE90243CDE90667CDE90044504B51497E
:1015200004944FF40072504803F0D2F94F494E48EA
:1015300003F062F90823CDE90243CDE90667CDE95E
:1015400000444B4B4B4904944FF400724A4803F05B
:10155000BFF94A49484803F04FF90A23CDE902434D
:10156000CDE90667CDE90044454B464904944FF464
:101570008062454803F0ACF94449434803F03CF924
:1015800022464349434807F09EFC224642494348CD
:1015900007F099FC22464249424807F094FC224653
:1015A0004149424807F08FFC642200233948CDE9C5
:1015B000002303F04BFF4FF4FA6200233748CDE9D4
:1015C000002303F043FFC82200233648CDE900235F
:1015D00003F03CFF4FF47A7200233448CDE9002336
:1015E00003F034FF084B9C684FF4005163690648D0
:1015F00098472F4805F0E3FD00280CBF4FF4FA7020
:10160000642005F010FEEFE76C94000858A1000874
:1016100028A1000830A1000838A1000840A1000856
:1016200050A1000848A10008DC940008590E0008E9
:10163000A09500086895000868A100084C9500086E
:1016400060A1000800004842309500088401002095
:101650004510000880170020A00500209CAA000863
:10166000290F000800150020C0040020A1AA0008CE
:10167000BD0D000880120020E0030020AAAA000887
:10168000810F0008000E002000030020AEAA000811
:10169000A5130008C8020020B11300089002002022
:1016A000BD13000858020020B10D000820020020E0
:1016B00078090020014B1860704700BFA80900207E
:1016C0001FB50E4B1B68B3B102228DF800008DF8D8
:1016D000011018689B88CDF804D002928DF80C2078
:1016E0009DF80C2042F002028DF80C20826801A9BE
:1016F00094680122A04704B010BD00BFA8090020D3
:1017000010B5114B88B01B688DF80700CBB10DF1F7
:1017100007041868029401249B880394CDE90512FC
:10172000002407228DF810408DF81C209DF81C2005
:1017300042F002028DF81C20826802A994680222FD
:10174000A04708B010BD00BFA809002070B52DED5E
:10175000028B8AB00DF10F02044604920DF10E01C6
:1017600001220025CDE90712059207220068A3880F
:101770008DF80F50B0EE408A8DF80E508DF818504D
:101780008DF824209DF8242042F002028DF82420B8
:10179000826804A996680222B0479DF80E60294627
:1017A00046F01002204605F097FDDFED187A9FED18
:1017B000187A28EE270ADFED177A20EE270A20464E
:1017C000C7EE007AFE21B7EE007A77EEC77AB6EE62
:1017D000007A77EE877AFCEEE77ACDED017A9DF814
:1017E000042005F079FD32462946204605F074FDB7
:1017F00000210A2007F0CBFA46F080022946204655
:1018000005F06AFD0AB0BDEC028B70BD6666663FEE
:1018100020BCBE4B00008045014B1B68184700BF31
:10182000CC000020014B1860704700BFCC000020A6
:1018300030B5044685B00D4610220021684607F0F9
:1018400065FB02238DF802302A46044B01932146A2
:10185000684603F03BFF05B030BD00BF1918000813
:10186000034A536823F0020353600020704700BF0F
:10187000002004E008B54168054883681B680C3106
:101880001BB1984700EAE07008BD6FF05700F9E718
:101890008C930008192810B502D90024204610BDE9
:1018A000044B53F82040204607F099F90028F5D161
:1018B000F3E700BF24A20008084B1A6842F48072C4
:1018C0001A601A6842F400721A601A6842F4806260
:1018D0001A60034B034A1A60704700BF003C024085
:1018E000740100200024F400014B036000207047C5
:1018F0008CA2000880B505460E461746984603F0B0
:10190000A5FA034600F09AFCDFF81890044649F85F
:101910000030424630463946A84754F8090000F0E6
:1019200009FC00BF080000000648074A08B5121A63
:10193000002105F0F9FD0548054A0021121A05F0BD
:10194000F3FD08BD20020020D40D0020000000108F
:10195000000000100A480B4A0B4908B5121A05F09E
:10196000E5FD0A480A4A0B49121A05F0DFFD0A484C
:101970000A4A0B49BDE80840121A05F0D7BD00BF5E
:101980000000002020020020C4B000080000002059
:1019900000000020C4B0000800000010000000108B
:1019A000E4B20008F0B5074687B00C4600292ED0F7
:1019B000D1E901231D48096805F023FDD4E904237A
:1019C000E1681B4805F01DFDE1691A4805F019FDA5
:1019D00026460025F36A0493EB1C0393B36A029333
:1019E000AB1C0193736A0093326A13486B1C29463F
:1019F000043505F006FD102D06F11006EAD1216E22
:101A00000E4805F0FEFCA1690D4805F0FAFC012F17
:101A100005D1EFF305810B48103905F0F2FC2146A2
:101A2000384607B0BDE8F04002F062BC32AB0008B7
:101A300062AB000892AB0008A2AB0008E6AB00085E
:101A4000F6AB000825AC000830BFFFF7FDBF00BFB4
:101A50002DE9F0410B4EDFF8348006EB0807CC1B74
:101A6000054632460849204607F042FAA019424688
:101A70000021083C07F04AFAC5F8904007F1080039
:101A8000BDE8F081000000008C9E0008040000000A
:101A90002DE9F843324D804632488946174605F015
:101AA000B0FCAB6ADE0622D52F4805F0AAFC112453
:101AB000AB6A1D0703D52D4805F0A3FC1224284D61
:101AC000AB6A980715D52A4805F09BFC6E6BAB6A8C
:101AD000190642D52748314605F093FCB9F1000FAD
:101AE00003D0AB6A23F08003AB62132403E010241D
:101AF000DEE76FF015061A4DAB6ADA0703D51E480C
:101B000005F07FFC1424AB6A9B0603D51B4805F047
:101B100078FC1524124B9A6AD50602D49A6A90076B
:101B20000AD55B68190507D54146304600F084FAAE
:101B300010B180F309880224094B9A6A920642BFC9
:101B40005A6A22F400525A629A6A42F0FF029A627A
:101B500000233B702046BDE8F8836FF01506C4E70C
:101B600000ED00E039AC000850AC000884AC00087F
:101B700098AC0008B1AC0008C8AC0008E8AC00089C
:101B800010B51D4C1D4805F03CFCA36A990130D5E9
:101B90001B4805F036FC1E20A36ADA0103D519485C
:101BA00005F02FFC1F20144CA36A1B0303D5164815
:101BB00005F027FC2120A36A590303D5134805F03B
:101BC00020FC22200C4CA36A9A0303D5104805F090
:101BD00018FC2320A36ADB0303D50E4805F011FC93
:101BE0002420054A936A6FEA03436FEA1343936222
:101BF00010BD1D20D0E700BF00ED00E018AD0008CB
:101C000031AD000845AD000860AD00087FAD0008AB
:101C1000A5AD0008C0AD000870B5244C06462448A8
:101C20000D4605F0EEFBA36AD90435D5214805F031
:101C3000E8FB1720A36A1A0503D51F4805F0E1FB4E
:101C400018201A4CA36A9B050FD51C4805F0D9FB38
:101C5000A16BA36A180407D5194805F0D2FB1EB181
:101C6000A36A23F40043A3621920104CA36A590508
:101C700003D5144805F0C5FB1A20A36ADA050DD573
:101C8000114805F0BEFB1B20084A936A43F47F43CA
:101C9000936200232B7070BD1620CBE7A36A9B04D0
:101CA000F2D50A4805F0ADFB1C20EDE700ED00E0A1
:101CB000ECAD000803AE000884AC000815AE0008C7
:101CC0002FAE000845AE000861AE0008E8AC000881
:101CD0002DE9F0415A4B5F689CB00546C7F30804F4
:101CE000002686F31188BFF36F8F02F07F43B3F1B4
:101CF0007F4F06D102F00C03082B13D1514805F099
:101D000080FB002635464FF00008E31E8DF8078063
:101D1000092B00F28680DFE803F00A7A7E7684845D
:101D20008484848210074CBF0D460126EBE74648A9
:101D3000434C05F066FB8DF80780E36A9A0704D5EB
:101D4000424805F05EFB00242AE0E36A002B01DA3A
:101D50003F48F6E7E36A5B00F5D53E4805F051FBE6
:101D60006369AA6943F480736361BFF34F8FBFF364
:101D70006F8F32F8023C626922F480726261BFF3B5
:101D80004F8FBFF36F8F03F47F42B2F55F4F21D1C6
:101D9000DBB2022B1ED129682F4805F032FB2C68DC
:101DA0009DF807309BB96822294602A807F0A0F8E1
:101DB000099B002E41D0C3F3080222B96FEA5323D6
:101DC0006FEA4323099302A92046FFF7EBFD1CB0FD
:101DD000BDE8F0811A4B9A6AD2B232B10DF1070216
:101DE00001212846FFF754FE0FE09A6A12F47F4F54
:101DF00005D00DF107010120FFF70EFF05E09B6AFA
:101E0000B3F5803F9FD3FFF7BBFE0446C8E70DF153
:101E100007020021E5E70DF107010020ECE70F487C
:101E20008FE70F4B0F49104817F4F87FA4F1100209
:101E300008BF194605F0E5FA85E76FF30803C1E727
:101E400000ED00E0A8AE0008D4AE0008ECAE00083B
:101E50000EAF00081DAF00083DAF00085AAF0008E4
:101E60007AAE00088FAE00087FAF0008044B5A69B5
:101E700042F010025A615A6922F008025A61704712
:101E800000ED00E0EFF30880EFF3098101B5724641
:101E9000FFF71EFF01BD00BF0A4880F3088810202D
:101EA00080F3118808484FF40861401880F30988CE
:101EB000EFF314800221084380F31488BFF36F8F7F
:101EC00000F04AF8802E0020002000201EF0040FB1
:101ED0000CBFEFF30880EFF30980816911F8021C51
:101EE0000229FFD001B5724605F032FB01BD00BFEB
:101EF00040B2002807DB044A4109012300F01F001B
:101F0000834042F82130704700E100E040B20028F1
:101F1000A8BF00F1604001F10101B8BF064B4FEAD4
:101F20000111ACBF00F5614000F00F00C9B2B4BFB1
:101F3000195480F80013704714ED00E0044B054A73
:101F400023F07F039360BFF34F8FBFF36F8F704712
:101F50000000000800ED00E008B5FFF7EFFF104BB0
:101F6000D3F8882022F47002C3F88820D3F88820A0
:101F700042F4A002C3F888204FF04042C3F8342254
:101F8000BFF34F8FBFF36F8F0023E1EE103AFFF7DF
:101F9000CBFCFFF7DFFC00F033F902F073FA00BF6F
:101FA00000ED00E04FF47D41C0F8DC1042F8203C29
:101FB000009B42F81C3C0A49019B42F8183C029BDA
:101FC00042F8143C21F001014FF0807342F8043CC8
:101FD00042F8081C0023203A0265C0F8943070478C
:101FE000F5180008838913F0020F124B03D190F803
:101FF000DD20D20611D45A6B42F080425A63D0F8E9
:10200000DC3019075CBF43F00803C0F8DC3083897B
:1020100043F002038381802070475A6B22F0804294
:102020005A63D0F8DC301A0744BF23F00803C0F825
:10203000DC30F0E700EF00E00A4A0346906878B130
:1020400013F1160FD0F8800005D0A0F18002934262
:1020500005D3834203D2814228BF0020704700206D
:10206000704700BF980C0020104B9B6883421AD128
:10207000EFF30580B8B9EFF31181102282F31288D3
:10208000BFF36F8F9A8922F002029A81EFF31483D3
:1020900023F0040383F31488BFF36F8F81F3118857
:1020A000BFF36F8F70476FF015007047980C0020DA
:1020B00008B515460E460022E1EE102AEFF3148211
:1020C00022F0040282F31488BFF36F8FBFF36F8F87
:1020D0000B4A0C4B9060D0F890201A6000F0C0F8CA
:1020E0002C4686F309880020034B984720460021A0
:1020F00000220023014C204773750008F5180008E2
:10210000980C00203C0A0020014B10221A617047F5
:1021100000ED00E0054B9A699B689A421FBF044A94
:10212000536843F080535360704700BF980C002001
:1021300000ED00E0084B9B6883420BD1EFF3058371
:1021400043B1064B5A6842F080525A605A6A22F4F0
:1021500000425A6202F080BE980C002000ED00E0C0
:1021600024498A6882F8DDE04FF030001044EFF334
:10217000098C80E8F01F1EF0100F03D102F19C00C3
:1021800080EC108A102080F31288BFF36F8F1A4FF3
:102190004FF000668A698A603E60D2F89000174C62
:1021A000206092F9DDE0D2F894000023C2F8943068
:1021B00080F311881EF0100F03D00023E1EE103AD7
:1021C00003E002F19C0090EC108AEFF3148323F0FB
:1021D000040383F31488BFF36F8F04B5104600F037
:1021E0003FF8BDE8044002F1300090E8F01F8CF3A6
:1021F00009887047980C002004ED00E03C0A00209C
:10220000044800231021C2180133472B82F8001321
:10221000F9D1704700E100E008B5EFF30583064A05
:10222000103B02EBC30152F8330049688847BDE810
:102230000840FFF76FBF00BFBC9500080148006869
:10224000704700003C0A0020024B034A034801216A
:1022500000F07CB800000220000000208CA20008E2
:1022600010B50446FFF7BEFED4F8802003460548AB
:10227000D21AC0E90023044B8360BDE8104001215D
:1022800000F06EB8400A002000000B15084AC2F8A2
:1022900098000B6823F01F03034343F01003C2F8B8
:1022A0009C308B6843F00103C2F8A030704700BF38
:1022B00000ED00E02DE9F043DFF8608085B00E46C8
:1022C0001F4604464FF00009B14523DA6068D8B1D3
:1022D0003FB1411E08421BD17F2819D923681942FA
:1022E00016D12368019305F058F9A36803430393BB
:1022F000D8F89050C5F30725D0B2013DA84207D8C1
:1023000001A9FFF7C3FF421C09F101090C34DBE707
:102310006FF01502104605B0BDE8F08300ED00E057
:10232000044B0522C3F89420BFF34F8FBFF36F8F88
:10233000704700BF00ED00E0BFF35F8F024B00224B
:10234000C3F89420704700BF00ED00E010B5034CC7
:1023500001232278FFF7AEFF207010BDD10D0020C1
:1023600008B50B4A00231278FFF7A4FF10F1160FEF
:1023700007D0084A0021D2F89030C3F307239842CF
:1023800000DB08BDC2F89800C2F8A0100130F2E7E7
:10239000D10D002000ED00E02DE9F0435A4B5B4DDC
:1023A000D3F890302C68C3F307239C4285B000F229
:1023B000A780FFF7C1FF00200C2684421AD1544E9B
:1023C000DFF8449134706846FFF78EFA514C524D55
:1023D00080460027B84514D133784B490020D1F806
:1023E0009020C2F307229342C0F28480FFF798FF47
:1023F000002045E0696806FB0011FFF747FF013048
:10240000DBE7009800EB07114FEA071CCB6823407D
:10241000B3F5000F4DD00AD8B3F5001F33D0B3F594
:10242000800F3BD0B3F5801F13D00137D2E7B3F153
:10243000007F47D0B3F1805F4DD0B3F1807FF4D1FE
:1024400050F80C3088684A6805F0A7F840F08870AA
:1024500009E050F80C3088684A6805F09EF840F0B2
:10246000885040F43020CDE901230390D9F8903012
:102470003078C3F30723013B984234D96FF015003D
:1024800005B0BDE8F08350F80C3088684A6805F064
:1024900084F840F0885040F40020E4E750F80C3015
:1024A00088684A6805F079F840F0C06040F4003070
:1024B000D9E750F80C3088684A6805F06EF840F0AB
:1024C0008270D0E750F80C3088684A6805F065F8EB
:1024D00040F48020C7E750F80C3088684A6805F05F
:1024E0005CF82843BFE701A9FFF7D0FE337801333A
:1024F00033709AE7C1F89830C1F8A00001336EE755
:102500004FF0FF30BCE700BF00ED00E098A20008EC
:10251000D10D00200000F0FF0000021108B5024BB1
:102520001B689847002008BD4C0A0020034B044A52
:102530001860937843F00203937070474C0A0020B0
:10254000D000002008B50649064821F00701C1F176
:10255000005202F5003204F011FF002008BD00BF58
:102560004B3F0020500A002007B5084A92E80300BC
:10257000CDE9000106488268126822B16946904799
:1025800003B05DF804FB6FF05700F9E7909E000878
:102590008C9300081F2809D8012303FA00F0044B8C
:1025A0005B6998430CBF01200020704700207047F2
:1025B000003C014000F01F021F284FF0010303FA06
:1025C00002F39DBF024A002053616FF0150070476F
:1025D000003C0140044B1844002301338B4200F8B7
:1025E000012BFADB704700BF940100202DE9F04178
:1025F000104F054600264FF001086B78F4B2A34255
:1026000001D8BDE8F0812B781C442046FFF7C2FFBB
:1026100068B12046FFF7CEFF57F834303BB107EBE7
:10262000C40204F01F04516808FA04F09847013608
:10263000E3E700BF5C0A0020034660B1B0FA80F215
:10264000C2F11F02D2B205498856054A11680B43F0
:102650001360FFF74DBCFF22F5E700BF9401002097
:10266000003C0140024A136823EA000313607047EC
:10267000003C0140032921D8DFE801F0020C1019C9
:102680000F4B9A6822EA00029A60DA6822EA000296
:10269000DA6070470A4B9A680243F5E7084BDA683C
:1026A0000243DA609A6822EA00029A607047044B9B
:1026B0009A6802439A60DA681043D860704700BF96
:1026C000003C014030B5B0B1B0FA80F3C3F11F0354
:1026D000DBB20B4850F833408C4204D100EBC30509
:1026E0006D68954205D044B940F8331000EBC30043
:1026F0004260002030BDFF23EBE76FF00F00F9E7E9
:102700005C0A002060B1B0FA80F3C3F11F03DBB2B2
:10271000044A002142F8331002EBC30251607047B3
:10272000FF23F5E75C0A002000F003020432920068
:102730000F23934043EA9000C3B20233054A52F894
:102740002320030C02EA104093FAA3F3B3FA83F3B5
:10275000D84070470038014070B5446894F845305F
:10276000DA0602D40B799B061BD40B78092B18D1FF
:102770004B78042B15D14B88B3B143F6FF729342CB
:102780001CD09A0B032A0CD1244D04F12E060022F2
:1027900036F8020F284380B2834206D00132082A5D
:1027A000F6D16FF0150008E01A4694F941303BB1BC
:1027B000013BDBB2012BF4D8002070BD0722F4E707
:1027C0000B79206803F01F0303EB4301092B93BF30
:1027D00043EA01531E3943EA015343F0007303F007
:1027E00000754FF0007191FAA1F1B1FA81F1CD407D
:1027F0000C3003F0F8734FF0F87191FAA1F1B1FACF
:1028000081F1CB4050F825400721994024EA01018D
:102810009A400A4340F82520CEE700BF00C0FFFFE2
:102820002DE9F743DFF8C49047680669D9F80880B6
:102830003D68C6F890004FF6FF73A6F8A6304468CE
:10284000D8F8003004F108012BB3484698470246F7
:1028500008BB94F84530DB0714D494F8453098074A
:1028600008D5D8F8183004F11801A3B11F48002288
:10287000984780B91E4A216A536823F440330B43BA
:10288000536008E0D8F8183004F110011BB1484635
:1028900098470028E1D0786A01AA002105F011FECE
:1028A00000281CDB019B00221979186805F01CFE2A
:1028B000002814DB7B68BBB9AB68DA0707D52B6847
:1028C000AB6823F00103AB60AB68DB07FCD4B36CEF
:1028D0001BB906F1400001F0FDFE002001E0811C63
:1028E000E8D003B0BDE8F0839847E5E78C93000893
:1028F0000023014038B52F4B1A68910644BF6FF092
:1029000020021A601A68920745D52B4CDA6CD4F86D
:102910009430991CC4F894101A8094F8A53094F857
:10292000A4200133DBB29A4284F8A530254632D187
:10293000002384F8A530636E9BB3E36F4BB1B4F80A
:1029400088201E4804F16401984701280BD0022812
:1029500022D0B4F88830B4F884209A421CD90133CC
:10296000A4F8883003E0D4F89830C4F89430A36F0A
:1029700023B9BDE83840104804F098BEBFF35B8F20
:1029800055E8003F5A1E45E800210029F8D1BFF361
:102990005B8F012BEDDC38BDA36F13B1084802F04B
:1029A0008DFD4FF6FF73A4F8A6300648BDE8384009
:1029B00001F090BE0020014000000020309500088A
:1029C00008000020500000202DE9F04F036987B077
:1029D000403307460D4602934FF0FF324FF0FF336E
:1029E000029801F0ABFE7B683C691E68AB68C4F8D6
:1029F0009430D5F80490C4F8A0904846FDF7C0FF85
:102A0000002384F8A40084F8A53095F810C084F859
:102A10009CC0B9F1000F00F0F980102800F3F68097
:102A20007868026890F940E07345C0F29A8000F03F
:102A3000ED80516801F0407EC16A4FEA830C51F885
:102A400023309E450BD09368D90700F19180C16A6D
:102A5000536851F80C1023F040730B435360D7F8C0
:102A600004B03B69DBF80010D3F8A0C04FF440730A
:102A700093FAA3F3B3FA83F34FF00009059301F13E
:102A80002C08BCF1000F7ED14B6843F480734B607F
:102A900094F8A4302A685B0012B1928902FB0333D8
:102AA000EA689A42C0F0B8806B7C002B40F0B78097
:102AB000AB7C002B40F0B380B368DB075EBFB3682C
:102AC00043F00103B3606FF020033360B36843F455
:102AD0008063B360736843F0200373602F460FCFA9
:102AE00004F164060FC63B683360002626662B6837
:102AF000002B00F087800FCB04F1780585E80F00EC
:102B00006566A4F8886000287CD0BFF35B8F54E82A
:102B1000003F44E80062002AF9D1BFF35B8FA06F49
:102B2000633046F1000164220023FDF70FFF00220D
:102B3000CDE90001002304F1080002F087FC4FF00A
:102B4000FF324FF0FF3304F1500001F0F7FD00B108
:102B50002066246E029801F0BDFD204607B0BDE856
:102B6000F08F816AC95C61453FF463AF01335BE775
:102B70001368DB064DD4936823F0010393609368D8
:102B8000D907FCD463E79CFAACF2B2FA82F202EB0A
:102B90004203092A9BF9420095BF42EA03531E3BB8
:102BA00043F0007342EA03530128039323D15FFAF1
:102BB00089FA1C48059F50F82A0000F4407E2EFA3E
:102BC00007FE00F01F0058F82E7004971F2303FA29
:102BD00000F7049B23EA0707039B03F01F038340CE
:102BE0001F4348F82E701048CB6A50F82A0023F48F
:102BF00070030343CB62012303FA02F22CEA020CB6
:102C000099443EE7204604F051FD98E76FF0150423
:102C1000A0E76FF00F049DE76FF00B049AE76FF0E9
:102C2000850497E768A3000828A300082DE9F0476A
:102C300088B08768DDF840C08246914698460C46C9
:102C400079B34E790D6816F0010F40F2FF7618BF88
:102C50006FF0604635EA060623D1BCF1000F1AD1A9
:102C600003AE01226146304605F0E9FF0E4B0093AA
:102C700001967F694A46434621465046B84738B9CF
:102C80004FF0FF324FF0FF33304601F057FD079809
:102C900008B0BDE8F0877C69A44608B0BDE8F047FD
:102CA00060476FF01500F3E7F57600082DE9F04F67
:102CB0000F4689B091461E46D0F808A06D4BD0F85B
:102CC00008809A4200F2D280B8F83C40B8F83E3012
:102CD00001341C44B8F840301C44002A00F0C6807F
:102CE000B6F57A7F80F0C280836807A99B6A98470F
:102CF000002840F0B8804EB95F4B994537D85F4BFC
:102D000040F26B36994588BF4FF44876079B039392
:102D100004FB09F4B3FBF4F4BAF838309C4238BF32
:102D20001C466FF00043019404FB09FB0493B8F8C0
:102D30004230019A9A421DDD0498FB88BA885B08EC
:102D4000934228BF13463B80BAF83020934204D9FF
:102D5000B8F83A209A4228BF1A466FF000439842CA
:102D60003A8008BF6FF0850009B0BDE8F08F40F2EF
:102D7000EE26CBE7039BB3FBFBF30293DDE90223D3
:102D80000BFB12335BBBBDF808200299B8F83C304E
:102D9000BAF83650B8F83EE005934FF47A747143B0
:102DA000B1FBF4F1511A89B20EEB0300A942BAF853
:102DB00034C0BAF8323080B22C4604D9B8F840504A
:102DC0008D4228BF0D46511E491B89B288420BD245
:102DD000151A013DB8F84020ADB2AA420ED2019BAF
:102DE00001330193CB44A2E70CEB030080B288428D
:102DF00030D9121A013A95B2AC42F0D8B3EB500F69
:102E00004FEA500203D2059B934228BF1346C21AD1
:102E100092B2964520D2A0EB0E039BB272464FF4BD
:102E20007A7100FB01100299B0FBF1F0864234BFC9
:102E3000811B311A00290846D1DB049C8C42CEDD6F
:102E40007B80019BBA80FD803B8100293FF475AFF8
:102E50000491C4E70846D1E7944582BFA0EB0C0378
:102E60009BB26246DBE76FF004007DE76FF0150070
:102E70007AE700BF40420F0000350C0020A1070098
:102E800070B503680C4E43F001030360044601F083
:102E900087F905466368DB0701D500200AE001F0E9
:102EA0007FF9401BB042F5D9236823F0010323606A
:102EB0006FF00A0070BD00BF00F9150008B50A46A2
:102EC000416805488368DB681C310BB1984708B13D
:102ED0006FF0040008BD00BF8C930008F8B50769C7
:102EE000436807F110065D694FF0FF324FF0FF3382
:102EF00030460C4604F09DFD3F792FB1304604F07A
:102F00009AFD6FF00F00F8BD2389E9690E4A013B75
:102F10000A40C3F3090313432288013A120602F060
:102F200040721343A288013A120402F47022134340
:102F3000E288013A120502F4E00213433046EB61E5
:102F400004F079FD3846DEE700FC80FC2DE9F84FFF
:102F50001F461B7AD0F81080012B04468A46914602
:102F600000F2878044484FF0FF324FF0FF3308F102
:102F7000100B04F05EFD4FF0FF324FF0FF33584668
:102F800004F057FD6368397A2069D3E905329A4223
:102F900014BF0E23002311F0010149D08030002519
:102FA00050F8041FB1BB3C687E68E400F60044F0B2
:102FB000040446F006065819D2F8003243F0010323
:102FC000C2F800323B7ADB0745D502EBC003C3F8F9
:102FD0004042C3F84462D2F81C12012383400B43E1
:102FE000C2F81C32D2F8003223F00103C2F80032DA
:102FF0003B7A13F0010F4FEA850317BF434498440F
:10300000C3F884A0C3F8D89004BFC8F830A0C8F8AB
:10301000849004E00135072DC2D16FF01B0558469E
:1030200004F009FD144804F006FD2846BDE8F88FB9
:10303000483050F8044F54B97E683C687601073335
:10304000640146F01806CD1D03EB6100B4E70131C1
:103050000E29EED1E1E715F0010F00F1480108BF9C
:1030600002EBC10144EA064414BF42F831404C600F
:10307000B1E76FF08505D8E7D40B00202DE9F043C8
:1030800085B04568D0F810806E690024CDE9014410
:103090000746ADF80C40494805F0CAFD08F110009C
:1030A00005F0C6FD0122214608F1240005F0C7FD08
:1030B000286840B9424883681B6805F11C0163B960
:1030C0006FF0040405E005F08AFD0028F2D16FF0EE
:1030D0001204204605B0BDE8F083984781460028D9
:1030E000EED101466A46A86A05F0EBF9041EF0DB52
:1030F000009B4A461979186805F0F6F9041EE8DBCA
:103100003046FFF7BDFE10B16FF00A04E1E7336807
:10311000DFF8B09023F00203336001F041F8044679
:1031200073689B0743D4D5E90532934213D1D3F892
:10313000002242F00102C3F80022AA69D2F80C3240
:1031400043F07F03C2F80C32AA69D2F8003223F0B0
:103150000103C2F80032336823F0FC0333603368A4
:1031600043F040033360EA682B8A01A93846FFF731
:103170009DFD1630A4D001A9384604F0BFFA0446DC
:103180000028A6D10146384604F032FD0446002846
:103190009FD1024608F1F401384604F0ECFA6B6A5C
:1031A00030469847736943F00103736191E700F07B
:1031B000F7FF001B4845B3D9A6E700BFD40B00209A
:1031C0008C93000800F9150022292DE9F0410E46E4
:1031D00077D80469D0F804803B48D8F818504FF0ED
:1031E000FF324FF0FF3304F1100704F022FC4FF0E0
:1031F000FF324FF0FF33384604F01BFCD8E90523BB
:103200009A4214BF0E220022062E4FEA860331DCBA
:1032100023440021C3F88410C3F8D810012332449A
:103220001C46D5F8001241F00101C5F80012002C2F
:103230003AD005EBC2010020C1F840024FF0FF3048
:10324000C1F8440243B1D5F81C32012101FA02F25F
:1032500023EA0203C5F81C32D5F8003223F001033B
:103260003846C5F8003204F0E6FBBDE8F0411648E8
:1032700004F0E1BB2344F11F0020073211F00104E8
:1032800002EB61021863C3F8840005D0DB6AB3FA6D
:1032900083F35B090446C4E70C29DDBF5B6BB3FA1B
:1032A00083F35B090123BCE716F0010F02F148012B
:1032B00008BF05EBC101054814BF45F8310048605F
:1032C000C0E7BDE8F08100BFD40B00200000FFFF85
:1032D0002DE9F0470569466805F110074FF0FF3307
:1032E0004FF0FF323846D6F8148004F0A2FB2B7959
:1032F0007BBB306890B9D8F80030DFF85CA023F0D1
:103300000103C8F8003000F04BFF8146D8F80440B4
:1033100014F001040FD101232B7106E083682968A2
:103320001B68984704460028E5D0384604F083FB24
:103330002046BDE8F08700F033FFA0EB09005045C0
:10334000E4D9306810B183685B6898476FF0040473
:10335000EBE76FF07704E8E700F9150038B5284B84
:1033600018680B88C3F30B03162B14460D464FEA5F
:10337000900218D803B3013B152B1DD8DFE803F0EA
:103380000C3535350B232A1C1C1C1C1C1C1C1C1C3E
:103390001C1C1C1C330C1B4820602B68B3F5805F81
:1033A00027D2002038BD402B21D008D823F00402BA
:1033B000302AF1D0382BEFD06FF08500F2E7442BA4
:1033C00006D0A82BF7E700F0C1F8902380085843F7
:1033D0004008E1E700F0BAF890238008584306233C
:1033E000B0FBF3F0D8E75000D6E70020D4E7104652
:1033F000D2E7C3F313330133B0FBF3F02060D0E71F
:103400007401002000127A00162808D8054BC3402A
:1034100013F0010F0CBF6FF08500002070476FF0B4
:1034200085007047E2006000F8B5434F434D00F05F
:10343000ADF8384604F08AFC00F0C6FEAB68404A9E
:10344000C3F303131478D35C47FA04F420FA03F6A9
:10345000A64202D2204600F0E5FE2B6823F480232A
:103460002B602B6843F480332B60344B1A68920333
:10347000FCD59A6802F00C02082A17D11A68950741
:1034800007D41A6842F001021A602C4A13689807A0
:10349000FCD52A4B9A6822F003029A609A6812F0CF
:1034A0000C0FFBD19A6822F0F0029A60234D2B6832
:1034B00023F080732B602B689901FCD4214AD2F849
:1034C000043823F44033C2F80438D2F8043823F027
:1034D000706343F0C063C2F8043800F03BF82B6817
:1034E00043F080732B60154B1A689201FCD59A68E3
:1034F00022F0F0029A609A6822F0030242F002027F
:103500009A609A6802F00C02082AFAD1A64202D305
:10351000204600F087FE0C4B084A1F60936823F496
:10352000E05343F4A0539360936823F4604343F45F
:10353000004393600020F8BD004495080038024025
:10354000B4B0000800300240740100200048704709
:1035500000127A00084B09495A681140084A0A4388
:103560005A605A68074922F440325A605A6811403A
:10357000054A0A435A607047003802400080BFFF86
:10358000042440000080BFF004244006064B1A6C5F
:1035900042F0805282B01A641B6C03F08053019396
:1035A000019B02B0704700BF0038024008B50748D1
:1035B00005F015FB38B10648FEF7B8FF0448FEF7E2
:1035C00031F9002008BD6FF01200FBE714950008E8
:1035D000D53500080A2838B5074D044604D1AB6834
:1035E0000D215B6828469847AB6803485B68E1B2E9
:1035F0009847204638BD00BF149500082DE9F843D0
:10360000D0F804900746D9F8080090460D461E46AB
:1036100004F021F8B8F5001F044616D12846D9F861
:103620000840FFF781F884420CD1294604F013F8D2
:103630000446FFF717F82046FFF764F800212046FC
:10364000FFF718F80020BDE8F883B8F5800F20D008
:10365000B6F1806F19D0B6F1C06F18D0B6F1007F07
:103660001AD102260F493A462046FFF72BF8B0B987
:10367000D9F80810284603F0F3FF20463146FEF73C
:10368000F9FF2046FEF7D8FFDCE70126EAE703262C
:10369000E8E76FF08500D6E76FF01500D3E76FF02D
:1036A0000F00D0E7BB7E0008F7B504464368066903
:1036B0001948DD680F4659688368DB68002201926B
:1036C00023B96FF00404204603B0F0BD01AA984767
:1036D0000028F6DB376206F110074FF0FF324FF09B
:1036E000FF33384601F02AF82B6823F001032B60E2
:1036F000204696F8521004F06EFC019900F07AF81A
:1037000096F8513004461BB12B6843F001032B603F
:10371000384600F0DFFFD6E78C93000870B504460A
:10372000466805694FF0FF320021284605F087FA08
:10373000336820469847002385F8503085F852308A
:103740000122114605F1100005F079FA204600F03B
:1037500033F83169144B994220D013D8134B994256
:103760001ED0134BCB1A59425941890041F0100128
:103770002046FFF799FF0028A2BF012385F85030AB
:10378000002070BD0B4B99420CD003F5C31303F519
:10379000206399420CBF0A210021E7E70621E5E7F3
:1037A0000221E3E70821E1E740420F00A086010083
:1037B000801A060040E1330013B5446801AA60692D
:1037C000002104F07EFE002810DB019B0022197905
:1037D000186804F089FE002808DB054861688368E2
:1037E0001B680BB1984708B16FF0040002B010BD20
:1037F0008C93000810B502694368126ADB68C2F353
:103800004202012A04D0022A21D06FF0150010BD17
:1038100058681F4AB1FBF2F220F03F001043586095
:10382000186A013220F03F0002431A62194AB1FBC4
:10383000F2F140F6FC72114208BF0421DA6922F469
:103840004F4222F0FF020A43DA610020DFE75868A6
:103850000F4AB1FBF2F220F03F0010435860186AA3
:103860004FF49674624320F03F004FF47A74B2FB39
:10387000F4F2013202431A62074A914289BF0132CF
:1038800048F20101B1FBF2F141F40041D6E700BF7B
:1038900040420F00400D03007F4F120043681B6839
:1038A00003F1140252E8002F42F0010203F1140068
:1038B00040E800210029F3D1134A934213D0A2F526
:1038C0004C4293420FD002F5806293420BD002F536
:1038D0008062934207D002F58062934203D002F5E2
:1038E0004442934203D11A6942F040021A6103F143
:1038F0000C0252E8002F42F4807203F10C0040E801
:1039000000210029F3D170470010014043681B6873
:1039100003F1140252E8002F22F0010203F1140017
:1039200040E800210029F3D1134A934213D0A2F5B5
:103930004C4293420FD002F5806293420BD002F5C5
:103940008062934207D002F58062934203D002F571
:103950004442934203D11A6922F040021A6103F1F2
:103960000C0252E8002F22F4807203F10C0040E8B0
:1039700000210029F3D1704700100140F8B50C4632
:10398000036941681E682379012B35D09A1E554280
:103990005541AD026279022A9CBF384F37F812C0F8
:1039A000A27988BF4FF4005C042A28D0003B18BFDE
:1039B00001231B03E279012A0A680CBF4FF4407708
:1039C0000027A642D1681DD121F4B05129430B43F1
:1039D000D360136923F4405343EA0C031361436833
:1039E0001A68536923F440733B435361316840685C
:1039F000BDE8F84004F0BABE4FF4C065CAE74FF422
:103A00008053D7E701F4C0618D421FBFD16821F414
:103A1000C0612943D160426811680A6902F44052CA
:103A200094451FBF0A6922F4405242EA0C020A611F
:103A300042681168CA6802F4805293421FBFCA6884
:103A400022F480521343CB6043681A68536903F42D
:103A500040739F421FBF536923F440733B4353613C
:103A600021683368994206D0406804F07FFE08B9A7
:103A700023683360F8BD0020FCE700BF78AA000887
:103A8000F8B543681D6803691E680B79012B0C4665
:103A90001AD0991E4A424A41920294F805C0A77969
:103AA000BCF1020F96BF2D494FF4005131F81C10A4
:103AB000042F00D083B1A3F1030EBEF1010F06D88D
:103AC0006FF085031846F8BD4FF4C062E5E70BB10F
:103AD000042FF5D04FF48053B1F5805F35D0B1F5A8
:103AE000405F34D000290CBF012103218C45E7D170
:103AF0007BB3002A0CBF042303239F42E0D1E37968
:103B000083B1012BDCD1164B9D420BD0A3F54C4366
:103B10009D4207D003F580639D4203D003F54C43DB
:103B20009D42CDD1EB6823F40053EB602146FFF7B3
:103B300025FF03460028C3D1EA6842F40052EA6038
:103B400094E8030086E80300BCE70021CEE70221E9
:103B5000CCE7002A0CBF03230223CEE778AA000893
:103B60000010014010B50446006903691BB94360A9
:103B7000083000F0AFFD6068012104F0ECFF002880
:103B800002DA10F1860F0ED164680021204604F09D
:103B9000E2FF002805DB0648A16883681B681BB1AB
:103BA000984700EAE07010BD6FF05700F9E700BFDA
:103BB0008C9300082DE9F74F824605690F461E4693
:103BC000904612B9002B00F09C80BB889C0477D4EF
:103BD0004FF0FF324FF0FF3305F1080000F0AEFD6B
:103BE0006F60DAF810B0DAF80490DBF80030D9F83A
:103BF0000040BA889F426DD1100508D5236823F490
:103C00004443B8F1000F62D043F440432360B888C6
:103C100004F00EFF0746B8F1000F40F00D81C5F823
:103C20002C8000232B6305F140023B4605F1300157
:103C300005F12C0004F0E6FEE863002E40F005815B
:103C40006E630023AB6305F148023B4605F1380182
:103C500005F1340004F0D6FE00236864AB62DAF8A4
:103C6000043027681A68136843F0400307F4444798
:103C700013602B6C1BB9AE6C002E00F01B812A6800
:103C8000D9F800609288D20740F1E680B2689207C6
:103C900040F12A81002B00F027812946304604F0AC
:103CA00013FFB368DB0740F1F4806B6C002B00F06E
:103CB000F080AB6C002B00F0EC8029463046DBE056
:103CC0002B69002B84D16B689F4281D189E743F433
:103CD00000439BE7D9F810100229C2F345132CD0FA
:103CE00003292DD0012910D06FF085062B6813B160
:103CF0009B889A0405D400236B6005F1080000F04E
:103D0000E9FC304603B0BDE8F08F043B1C2B8CBFB0
:103D100000230123002BE7D06368994811044CBFAE
:103D200043F0100323F0100363608368D9F8081090
:103D3000DB6853B96FF00406D8E7043B0C2BE6E7C9
:103D4000082BE9D0102BCFD1E6E701AA984700282D
:103D5000F0DB0199386800231A46013321FA03FC8D
:103D6000844540F2F980082BF6D16FF01506BDE7C7
:103D7000236843F002032360BB8813F0040F236819
:103D800014BF43F0010323F001032360BB8813F445
:103D9000006F236823F4444304D0B8F1000F3AD0F5
:103DA00043F440432360BB8813F0100F236814BF13
:103DB00043F0800323F080032360236823F400533F
:103DC00023603B7D1BB999F814305A0726D5236828
:103DD00043F400732360636823F004036360BB88CB
:103DE000684A13F0010F236814BF23F4827343F46D
:103DF00082732360B88804F01BFE0138236852F8F0
:103E0000202023F400631343236001238BF85430F4
:103E1000CBF80070FBE643F40043C3E7BB8813F024
:103E2000010F236823F40073D4D143F4802323606B
:103E3000636843F00403D1E7D8F80030EB62002B4D
:103E40003FF4EFAED8F80430ECE633686B63002B38
:103E50003FF4F7AE7368F5E699F81430DB0718D431
:103E6000336803F44448B8F5004F08D1D9F800008E
:103E70008368D907FCD5294604F0E5FD09E0B3685D
:103E80009807FCD52946304604F01EFEB8F5404F91
:103E9000ECD1D9F800309A6812F4B87F29D09A682A
:103EA000500605D5DA680092009A9B680093009B43
:103EB0006FF00406DAF80430DAF8102018680368A6
:103EC00003F48273B3F5827F30D183681B062DD54E
:103ED00003685F062AD5036803F44443B3F5004F33
:103EE000F3D104F04DFEF0E7736823F080037360B4
:103EF000D7E6B7F5404F7FF4BCAE2A6C92B9AA6CF6
:103F000082B19A681106FCD41A6822F040021A6045
:103F10001A6822F4444242F400421A601A6842F0DD
:103F200040021A60276807F44447A2E683689C06AB
:103F300006D583680193019B036823F04003036067
:103F400013689B88D90401D404F01AFE966202F12A
:103F5000180000F0BFFBC9E623680B4923F04003BB
:103F60002360236851F8222023F038031343236091
:103F7000BB889B073FF5FCAE236823F00203FAE6FB
:103F80008C930008DCA5000874A500084FF0E0231E
:103F90000D4A9969126818699B69002908BF114682
:103FA000002B08BF134610F4803F084801D1994206
:103FB00005D20168114401604FF0E02109690068F1
:103FC0001044C01A704700BF940C0020900C0020D1
:103FD000094B102283F82320084B4FF461521A60DA
:103FE000074B002018604FF0E02343F63F025A6170
:103FF000072298611A61704700ED00E0940C0020E0
:10400000900C0020684620F007018D4619B5FFF797
:10401000BDFF144B1449D3E900420868001942F16E
:104020000002C3E90002114A00230B60D2E90041FB
:104030004FF46153001BB0FBF3F043431B1941F1F4
:104040000001C2E90031EFF31181102383F31288DC
:10405000BFF36F8F01F004F9FEF75CF8BDE819407B
:104060008546704788060020900C002080060020BE
:104070002DE9F041364E89B1421C0AD14FF0E022C1
:10408000136923F0010313614FF07F433360BDE8F0
:10409000F0813568012806DC00240AE0431C3568FD
:1040A000F8D140F28C4040F28D439842A8BF1846A8
:1040B000441EEFF31187102383F31288BFF36F8F31
:1040C000FFF764FF23494FF0E023D3F818C0D1E98C
:1040D0000023801843F10003C1E900031E4B0022B6
:1040E0001A601E4B1A68831A2DD44FF4615E43F692
:1040F0003F0814FB0E841C44131AB4FBFEF40EFBA1
:104100000433B3F5806F164A38BF4FF4806393428F
:1041100028BF13464FF0E02233609469013B53619E
:1041200000239361A445D1E90032ACEB04000DD229
:104130000544EB1842F10002C1E9003287F311880F
:10414000BFF36F8FA3E74FF48063E3E7C318F1E792
:10415000940C002088060020900C0020800600208F
:1041600000C3FF0038B5EFF31185102383F31288E5
:10417000BFF36F8F084B1C68084B1B68E41AFFF7EE
:1041800005FF85F31188BFF36F8F4FF4615320440F
:10419000B0FBF3F038BD00BF880600208006002089
:1041A00038B5EFF31185102383F31288BFF36F8FB7
:1041B000044B1C68FFF7EAFE85F31188BFF36F8F8D
:1041C000204438BD8806002008B513498B6803F0E9
:1041D0000C03042B1CD0082B1CD14A684B6849687F
:1041E00013F4800314BF0D480D48C1F3881118BFA4
:1041F000002302F03F02A1FB0001FCF7A7FB064BE6
:104200005B68C3F3014301335B00B0FBF3F008BD0F
:104210000248FCE70248FAE70038024000127A0040
:104220000024F400002851D02A4B1B6813F480436B
:1042300019D0294B984207D8284B984209D8284BC7
:10424000984208D9032300E00523012B38BF01233E
:1042500009E00423F9E7234B984212D8224B9842F5
:104260004FF00003F1D81B4A126852041CD41B4AB9
:10427000904208D9002B08BF0423012B38BF01232B
:1042800012E00223EFE7164A904203D9002B08BF41
:104290000323F2E7134A904203D9002BEDD1022306
:1042A00002E0114A9042E8D810490A6822F0070259
:1042B0001A430A600A6802F00702934208D00868AD
:1042C00000F00700C01A18BF012070470120704796
:1042D000002070470070004080D1F008000E2707D2
:1042E000804A5D050087930380C3C901003C0240FA
:1042F00038B5EFF31185102383F31288BFF36F8F66
:10430000064B9C6804F07EFC85F31188BFF36F8F29
:104310002046BDE83840FDF70DBF00BF980C0020D7
:1043200038B50A4B53F82040013053F82050A542CD
:1043300000D838BD606830B1037EDB0701D404F0DB
:1043400036FC0834F3E723689847FAE7E4A5000849
:1043500070B52A4B2A4C2B4D86B0012203201A70CF
:10436000FFF7DEFF01F0E0F80420FFF7D9FF264653
:10437000AE4204F130040FD300F0ACFC204CAC4250
:1043800026D300F0BBFCFDF71FF81F4A938923F0EA
:104390000103938106B070BD54F80C3C059354F8AA
:1043A000103C049354F8143C039354F8183C0293C3
:1043B00054F81C3C019354F8203C009354E90A2320
:1043C00054E90C0100F028FA54F8303C5E65CEE761
:1043D000D4E90A23B3F1FF3F08BFB2F1FF3F05D094
:1043E00052EA0301206803D104F0FBFC3034C6E735
:1043F0000649183000F0A4FEF8E700BFD20D0020F7
:10440000809D0008809D000870070020258D000811
:1044100070B5164E164D174986B0E02303FB0066B3
:10442000154B059301220F23CDE903320023CDE97B
:104430000133182303FB0055044601EB40210F4BC9
:1044400000954FF4C072304600F0E6F9337C0C4A18
:10445000EE6023F0040333744FF4086304FB03336A
:1044600013442C746B6006B070BD00BF9006002032
:10447000980C0020802800204FB000080B8C00080A
:10448000002000207FB50020FFF74AFF284B83F370
:104490000888284C636943F4007363610025F023A6
:1044A00084F82230E57725766576A57684F8205065
:1044B000636A43F4E0236362FDF7D8FCFDF724FE52
:1044C0004FF0FF33A362E362FDF766FFFDF7BCFE2A
:1044D00019481A4C00F028FAFDF7EEF90120FFF711
:1044E0001FFF0220FFF71CFF00F038FC144B15499A
:1044F0009C61154B059301234FF48062CDE9035372
:10450000CDE90155114B0095204600F085F9237C3B
:10451000064623F004032046237404F0CFFB28460C
:10452000FFF776FF094A31462046FDF7C1FD00BF7F
:104530008028002000ED00E05008002070070020D7
:10454000980C0020802A002054B000085143000835
:104550002DE9F341044617461E46EFF31188102358
:1045600083F31288BFF36F8F304BC2689B6872B1C0
:104570008068984217D057EA060216D188F311884E
:10458000BFF36F8F6FF00F0002B0BDE8F08193F9B9
:104590000E1021610132C4E9023288F31188BFF3A1
:1045A0006F8F0020F0E72169F3E793F90E1090F97F
:1045B0000E30994230DA9942A8BF194604F030FB18
:1045C0000546CDE900761A482246414600F0C0FA79
:1045D0000028E6D0EFF31186102383F31288BFF38F
:1045E0006F8FA068D0B1236821699C420AD04BB17B
:1045F00093F90E309942A8BF19466FF07F03994294
:10460000B8BF194604F00CFB40B10948314604F02C
:10461000AFFB6FF00A00B7E70025D2E7002DF4D119
:1046200086F31188BFF36F8FF3E700BF980C00206B
:10463000D30D0020F8B583680546002B40D0234AEF
:10464000926893423FD1C368012B03D9013BC360F9
:104650000020F8BDEFF31187102383F31288BFF316
:104660006F8F0169806804F0DBFA2C68A54207D1DE
:104670000023C5E9023387F31188BFF36F8FE7E7A3
:10468000002CF5D0D4E9003213605A60237C002658
:1046900023F002032374C4E90066A66004F1180045
:1046A00004F0D6FBAC6094F90E302B612046C4F8C0
:1046B000986004F003FB0648394604F059FBC7E74D
:1046C0006FF01500C5E74FF0FF30C2E7980C0020EF
:1046D000D30D002070B5EFF31186102383F31288F9
:1046E000BFF36F8F0468A0421BD0D4B1D4E900326D
:1046F00013605A60237C002523F002032374C4E96D
:104700000055A56004F1180004F0A2FB2046C4F88F
:10471000985004F0D3FA31460748BDE8704004F0E1
:1047200027BBD0E902329A4218BF0133836086F377
:104730001188BFF36F8F70BDD30D002013B5EFF359
:104740001181102484F31288BFF36F8F846844B101
:10475000013C846081F31188BFF36F8F002002B0A9
:1047600010BD52EA030406D181F31188BFF36F8FA5
:104770006FF00F00F3E7CDE900230246014800F097
:10478000E7F9ECE7D30D002070B50546EFF311868D
:10479000102383F31288BFF36F8F00232C68A54288
:1047A00019D0C4B1D4E9003213605A60227C0023CE
:1047B00022F00202C4E900332274A36004F118005D
:1047C00004F046FB6FF00A03C4F89830204604F06A
:1047D00075FA0123E2E70022AA6023B986F3118863
:1047E000BFF36F8F70BD31460248BDE8704004F0E2
:1047F000BFBA00BFD30D002010B5044608B9054B61
:104800009C681F2204F1600004F088FB002084F8FB
:104810007F0010BD980C00202DE9FF47073222F0E1
:1048200007020E4698461099818100F15803FF3225
:10483000C0E916330446002322F07F02042183607E
:1048400001747F2A0F98119FA073C4E90633E373A4
:1048500006F1800AA2F1800905D883F31188BFF31D
:104860006F8F084602DFB51829462046FDF7F0F89D
:1048700007300E9B20F00700C4F88800C4E920A987
:1048800002930D9B01932D1A0C9B009331464346D6
:104890002A4620460026FDF785FB666597B11F2254
:1048A000394604F1600004F039FB84F87F60074B5F
:1048B0009B680BB1D3F88C30C4F88C30284604B018
:1048C000BDE8F08784F86070F1E700BF980C002025
:1048D000F0B587B000250595109D04950F9D0395B3
:1048E0000E9D0295DDE912760D9D01950C9D0095BA
:1048F0000446FFF791FFB6F1FF3F08BFB7F1FF3F56
:1049000005D056EA070305D1204604F06AFA20468E
:1049100007B0F0BD3A46334604F11800014900F0F3
:104920000FFCF4E7258D0008012310B50374838183
:104930000023C0E92033044600F0F0FD014B9C60E9
:1049400010BD00BF980C00200A4A93686FF00A015E
:10495000C3F898100849C3F894004B6843F080539B
:104960004B60002383F31188BFF36F8F9368D3F8F4
:1049700098007047980C002000ED00E038B590F9E1
:104980001020037C002A35DBD90633D163F07F0386
:104990000374837B1D4C1033DBB204EBC3010A4666
:1049A0000D6A1C32C0E900255A09403204EB82022C
:1049B0002860086203F01F0001218140D069014393
:1049C000D161D4F8202193423CBF1A46C4F820316B
:1049D00004EBC2031A46DD691C3295420BD1E5682F
:1049E000A3681A7CD20609D1DA897F2A06D9AA6976
:1049F00022B9A36138BD002DF2D1F0E7AB4202D05D
:104A0000284600F01FFBA561F4E700BF980C0020CA
:104A100038B590F91010027C254C0029034624DAA1
:104A200002F07F020274827BD0E900101032D2B211
:104A300001604860D10001F11C0021442044C96993
:104A4000814212D15109403104EB810102F01F0271
:104A500001209040CA6922EA0002CA6112B392FAA8
:104A6000A2F2B2FA82F2C4F82021D4F82011A2688E
:104A700004EBC1000146C5691C318D4214D1E568C3
:104A80009A4207D0137CDB0604D1D3897F2B01D94E
:104A9000AB692BB1AA4202D0284600F0D3FA2A46CD
:104AA000A26138BD1F22DEE7002DE9D1E7E700BF94
:104AB000980C0020B3F1FF3F08BFB2F1FF3F03D0D5
:104AC0000249183000F03CBB704700BF258D00083C
:104AD000034648B9EFF3058232B9064A91699268F4
:104AE000914201D0FFF730BF83F31188BFF36F8F7E
:104AF000704700BF980C002038B5144CA268937B17
:104B0000D2E900211033DBB20A60516004EBC3012B
:104B1000A268086A0B461C33C2E900300260D4F870
:104B200020310A6204EBC3021346D5691C339D424F
:104B300008D1E568A3689D4202D0284600F082FAB9
:104B4000A56138BD002DF5D1F3E700BF980C00201A
:104B5000F8B50E4B0C4611460D4A98681060DDE919
:104B60000667EFF31182102282F31288BFF36F8F72
:104B70009D68284604F06FF8284632463B46FFF70A
:104B800099FF2046BDE8F840FFF7DEBE980C0020F4
:104B9000BC0D0020F8B5EFF31186102383F31288C3
:104BA000BFF36F8F037C03F01F02002A0CBF0125A7
:104BB00000254FB265D103F07F03D0E900240374D0
:104BC000837B226010335460DBB2414CDA0002F187
:104BD0001C0C2244A444D269624515D15A094032C2
:104BE00004EB820203F01F034FF0010C0CFA03FCEC
:104BF000D36923EA0C03D361002B3DD093FAA3F3CE
:104C0000B3FA83F3C4F82031037C87731031C9B23F
:104C100004EBC10263F07F030374176A13461C336D
:104C2000C0E900374B09403304EB8303386010625E
:104C300001F01F0001228240D8690243DA61D4F8F2
:104C40002031994238BF0B4604EBC3021346D769A3
:104C500038BFC4F820111C339F420FD1E768A36806
:104C60009F4202D0384600F0EDF9A76186F3118823
:104C7000BFF36F8F2846F8BD1F23C3E7002FEED187
:104C8000ECE79B0721D5D0E9011203680B6059605E
:104C90000023C0E90033877313689A4209D153682F
:104CA000C0E9002318605060E0E751688B42F6D0FD
:104CB0001B68002BF3D093F90E10B942F5DD5A684A
:104CC000C0E9003210605860D0E78773CEE700BFBC
:104CD000980C0020EFF31181102383F31288BFF3A7
:104CE0006F8F054B9A68D37B013BD37381F3118897
:104CF000BFF36F8F704700BF980C002070B5EFF3C3
:104D00001186102383F31288BFF36F8F124DAB68A7
:104D1000DA7B0132DA73D5F8202105EBC2010A46AD
:104D2000CC691C32944214D1EC681A7CD20604D1AE
:104D3000DA897F2A01D9A2692AB1A34202D020468A
:104D400000F080F92346AB613046BDE87040FFF7C4
:104D5000BFBE002CE9D1E7E7980C0020014804F021
:104D60000AB800BFB00C002070B5EFF31186102315
:104D700083F31288BFF36F8F154CA268937BD2E93F
:104D800000211033DBB20A60516004EBC301A2685A
:104D9000086A0B461C33C2E900300260D4F82031A7
:104DA0000A6204EBC3021346D5691C339D420CD141
:104DB000E568A3689D4202D0284600F043F9A5614A
:104DC0003046BDE87040FFF7BFBD002DF1D1EFE7E1
:104DD000980C0020F8B550EA010306460C4603D1B2
:104DE000FFF7C2FF0020F8BDEFF31187102383F314
:104DF0001288BFF36F8F124D124BA8681860FFF72F
:104E000007FEA868104923463246183000F098F98A
:104E1000AA68137C43F00403137404463846FFF772
:104E200093FDAB68D3E90A23B3F1004F08BF002A12
:104E3000D8D104F042F8201A20EAE070D3E700BF8E
:104E4000980C0020BC0D0020258D0008014B9868AF
:104E5000704700BF980C00202DE9F843044687896D
:104E6000EFF31186102383F31288BFF36F8F037C57
:104E7000190705D586F31188BFF36F8FBDE8F88356
:104E8000D90943F0080271D10274A36813B1204616
:104E900003F007FF04F1180003F0DAFFA56D04F139
:104EA0005808A84511D04FF0000975B1284603F005
:104EB000F8FE05F1180003F0CBFFC5F898902846DE
:104EC000FFF75CFDA56DA845EFD1444DAA6894425B
:104ED00078D1EFF30589B9F1000918BF4FF0010946
:104EE000D5F8203105EBC3010B46D1F81C801C33EB
:104EF00098456AD1D5F80C80424502D0404600F072
:104F0000A1F82046C5F8188002F031FBB9F1000F76
:104F100002D03348FFF708FDAB689C4259D1EFF34C
:104F20000583002B55D1A289D20711D586F31188AC
:104F3000BFF36F8F83F31188BFF36F8F042318467D
:104F400002DFEFF31186102383F31288BFF36F8F14
:104F50003046FFF7F9FCFB0790D5002383F3118857
:104F6000BFF36F8F0423184602DF87E703F07F0348
:104F700043F00803D0E900210374837B0A601033F7
:104F80005160DBB21549DA0002F11C000A44084402
:104F9000D26982427FF479AF5A09403201EB820232
:104FA00003F01F0301209840D36923EA0003D36173
:104FB00033B193FAA3F3B3FA83F3C1F8203164E772
:104FC0001F23FAE74FF000098AE7B8F1000F93D1E9
:104FD00090E786F31188BFF36F8FBCE7980C002031
:104FE00050080020027C12F01F02034610D10A492B
:104FF00088420DD00949086868B1D9897F2909D844
:1050000093F90E20064B1B689A42B8BF00207047E8
:10501000002070471046704790060020780100205D
:10502000C00D0020044BC01A044BC0105843044B61
:1050300001221A54704700BF30090020ABAAAAAA67
:10504000D30D002070B50C4B0C4D1E7CFFF7CAFF32
:10505000182303FB06550446284603F0F9FE084BC7
:1050600000229A553CB1621E28460649BDE87040B0
:10507000D31700F065B870BD980C002030090020EF
:10508000D30D00202550000838B5EFF3118510230B
:1050900083F31288BFF36F8F0F4B104A9C68106820
:1050A000A04206D1FFF7CEFF85F31188BFF36F8FC3
:1050B00038BD00211B7C1160094AD35C002BF3D062
:1050C0002046FFF78FFF0028EED0237CDB0601D1BE
:1050D000FFF712FD2046E5E7980C0020BC0D0020EC
:1050E000D30D0020024B1868984208BF002070477B
:1050F0007C010020034B1B680BB9FFF733B800207D
:10510000704700BFC40D002030B570B10B4B5B6819
:1051100098420AD0036843B1D3E90421D0E9044599
:10512000121941EB0501C3E90421D0E900321360F3
:105130005A600023C0E9003330BD00BF7C0100206D
:10514000B3F1FF3F08BFB2F1FF3F2DE9F84F04462E
:10515000994615461F467AD08160EFF311881023D7
:1051600083F31288BFF36F8FB9F1000FDFF8E8A067
:1051700020DBFFF7BFFFDAE90027013549F100091D
:105180002D1849EBE073C4E90453AD18064643EB10
:1051900007074FF00109FFF7A5FFDFF8C0E0DEF8D1
:1051A00004A00346EBB9C4E900EACAF80040CEF80F
:1051B000044028E0DAE900126FF001035B1A4FF0B7
:1051C000FF3161EB02025B1B62EB0902012B72F102
:1051D0000001BCBF01230022C0E904324FF00009E6
:1051E000D9E7D3E9041CD4E904208A4270EB0C0B04
:1051F00024DA891A5A686CEB0000C3E90410C4E988
:10520000003214605C60FFF76DFF84420ED1114BD9
:105210001B685BB9B9F1000F02D1FFF76BFF0646BF
:10522000304603F0FEFD0021FEF722FF88F31188CF
:10523000BFF36F8F28463946BDE8F88F521A60EBEE
:105240000C005345C4E90420ADD01B68AAE7002533
:105250002F46EFE7C40D0020480900207C01002004
:105260002DE9F047284F294E38600246FFF73AFFF4
:105270000D464FF000084FF00009D6E900134FEA41
:10528000E27E50B1D0E9044CA2427EEB0C0A1ADA5D
:10529000A41A6CEB0E0CC0E9044C52184FF0000439
:1052A00043EB0E032046C6E900233C6003F0B9FD42
:1052B0002146FEF7DDFE85F31188BFF36F8FBDE851
:1052C000F047FFF7E1BE611843EBE473C0E90489DE
:1052D000C6E90013FFF718FF01224FF00043C0E9B1
:1052E000042385F31188BFF36F8F83689847EFF32A
:1052F0001185102383F31288BFF36F8F3A68121B56
:105300003A60FFF7EFFEB8E7C40D0020480900201F
:1053100010B5EFF31184102383F31288BFF36F8F5E
:10532000FFF7E8FE054A0346D2E90001181841EBF1
:10533000E37184F31188BFF36F8F10BD480900201B
:10534000F8B50446EFF31187102383F31288BFF3F7
:105350006F8FD0E90423B3F1004F08BF012A04D0B6
:1053600087F31188BFF36F8FF8BDD0E90A566A1C26
:1053700046F10003022A73F1000334D3013D46F1E4
:10538000FF36002EBCBF00252E4603F09AFD0130EB
:1053900041F10001401946EB0101012871F10001C2
:1053A00048DB03F08EFD013041F100016FF0020394
:1053B000401946EB010183426FF000438B413EDB15
:1053C00003F07FFD013041F100016FF0010240194F
:1053D00046EB0103121A4FF0FF3161EB03031A4948
:1053E0002046FFF7ADFE236B01332363236A63B1CD
:1053F00087F31188BFF36F8F20469847EFF311872B
:10540000102383F31288BFF36F8F54F8185FA542FF
:10541000A6D0002DA4D0284603F05FFC0023C5F8D9
:10542000983087F31188BFF36F8F2846BDE8F840A6
:1054300003F044BC6FF001024FF0FF33CFE70022CE
:105440004FF00043CBE700BF415300082DE9F04186
:1054500005461C4690461F46EFF31186102383F342
:105460001288BFF36F8FB4F1FF3F08BFB2F1FF3F67
:1054700005D186F31188BFF36F8FBDE8F081002C52
:1054800009DB012A74F10003BCBF0122002412F1E0
:10549000FF3844F1FF37284603F0DAFCDDE9062344
:1054A000C5E90A2300232B6342463B4628460249AE
:1054B000FFF746FEDDE700BF4153000870B5054623
:1054C000EFF31184102686F31288BFF36F8F03F079
:1054D000BFFC20B184F31188BFF36F8F70BD6B6A7E
:1054E00063B184F31188BFF36F8F6B6A28469847C6
:1054F000EFF3118486F31288BFF36F8F05F1180064
:1055000003F020FC0028E5D003F0D8FB2146024838
:10551000BDE8704003F02CBCD40D0020014BC0F856
:105520008C307047CC010020014801F06ABF00BFF9
:1055300059B0000838B5064C064DAC4201D30020E6
:1055400038BDD4E90112204603F0C9FC1434F4E755
:10555000CC010020E00100200CB430B58BB0044633
:105560000D462022002102A803F0D0FC02238DF872
:105570000A30002D0C4B0393069412DB01D06B1EF6
:105580001C440FAA0E99079402A8019200F09EF8FD
:1055900015B1069B00221A700BB0BDE8304002B076
:1055A00070470024EDE700BF919200082DE9F0411B
:1055B0000126B24201DCBDE8F08107463B461F46AA
:1055C00013F8014B002CF6D0252CF8D11D78252D91
:1055D00007F10207F2D00023DFF8EC809C461C465E
:1055E0001F2C27D8A5F1200EBEF1100F06D828FADF
:1055F0000EFE1EF0010F53D12E2D3CD02E2D27D89C
:10560000242D33D02A2D36D0BCF1000FD3D0B44591
:10561000D4D145F02007A7F1650CBCF1020F0B684F
:1056200001D9612F42D1073323F0070308330B6000
:105630000136BEE77F2CDFD96C2D23D01DD8682D15
:1056400027D06A2D01D04C2DDED144F4207408E01F
:10565000A5F1300EBEF1090FEED80A2404FB03E3D6
:10566000202417F8015B002DBAD1CDE7BCF1000F63
:1056700018D0B34218D00023F3E7742DF1D07A2D5F
:10568000EFD0C1E7250648BF44F4007444F080041D
:10569000E7E7E50548BF44F4007444F48074E0E7AC
:1056A0000024DEE79C46E6E76325B2E7692D02D0D9
:1056B00007D8632D03D0250601D5A405B3D4043340
:1056C000B5E7732DF6E700BF892801002DE9F04FFB
:1056D0008378D0F8049093B09C07CDE908128046F7
:1056E00015D50B920B460025187890B1252814D0BB
:1056F000013306934146C847002805F1010580F2B1
:10570000FC8398F8023043F0040388F802304FF02D
:10571000FF35284613B0BDE8F08F93F801A09A1C1E
:10572000BAF1250F0692E5D04FF0000B5E465F46BA
:105730005C461F2C23D8AAF12003102B22D8DFE8C7
:1057400003F01521211B2121210B212121132118D7
:105750002121090044F00104069B13F801AB0693D4
:10576000BAF1000FE5D11BE044F0020444F0040458
:10577000F2E744F00804EFE744F01004ECE77F2C74
:1057800000F2F880BAF12E0F00F0D58000F2AE8062
:10579000BAF1240F00F0D580BAF12A0F00F0B680DC
:1057A000BBF1000F06D0099B08980B935A460BA932
:1057B000FFF7FCFE002E4AF02003B8BF24F040049F
:1057C0000493A3F16503BCBFA4B20026022B04D945
:1057D0004AF02003612B40F090826FEA0A0A0AF037
:1057E000200307930B9B073323F0070303F1080201
:1057F0000B92049A612AD3E900AB04F0400340F015
:10580000E680002B08BF4FF0FF36079B0093504601
:1058100033460CAA594603F0B5FC0130C3B2B3427B
:105820000393A8BF03F1FF364FF0010C7023CDE9BD
:10583000043CDDF830A044F4C0540AF10903122BF3
:105840000DD90AF16303C62B40F2F4800AF2E73364
:1058500040F2CE7293428CBF0423032305939DF83C
:105860003430D80700F1E880A20700F1E880C4F3E3
:10587000800B4FEA4B1B5FFA8BFB13F00C0F00F011
:10588000EA80BBF1000F0CBF03230423BB420EDAF6
:105890002007A7EB03070BD42F4441462020C8471D
:1058A000002805F10105FFF62CAFBD42F5D1002718
:1058B000BBF1000F07D041465846C847002805F104
:1058C0000105FFF61EAF9DF83430AF4C13F0080F02
:1058D000AE4B08BF1C462646324616F8010B002880
:1058E00040F0B0802C1B02EB040B7DE1AAF13003E9
:1058F000092B3FD814F0400F4FF00A0212BF02FBF1
:10590000063602FB073744F0200425E7BBF1000F01
:105910007FF422AF0B9A600652F8043B0B9201D53C
:105920001E4619E7002BA7BF44F020041F465F4224
:1059300044F0280410E763063FF5EBAE44F0400462
:105940000AE7BBF1000F3DD014F0400A099B08980C
:105950000B930CBF3A4632460BA9FFF727FE0B9B71
:1059600053F8042B0B93BAF1000F01D01646F3E65F
:105970001746F1E6BAF16C0F16D00CD8BAF1680FE1
:1059800019D0BAF16A0F03D0BAF14C0F7FF408AF07
:1059900044F42074E0E6BAF1740F3FF4DDAEBAF1DE
:1059A0007A0F3FF4D9AEFBE6200648BF44F40074FA
:1059B00044F08004D0E6E30548BF44F4007444F4A6
:1059C0008074C9E65E463446BB463746C4E6002BC3
:1059D000049B08BF0626652B0ED1721CD2B244F47C
:1059E00080541346112A4FF065014FF0000228BF82
:1059F00011239446049107E0049B662B12D144F4D2
:105A00000054B44601221123CDE9002C50460CAAC3
:105A1000594600F01DFBC3B203930223DDF830A00A
:105A200005930AE716F0FF02DBD165230493944641
:105A30000123E9E7022311E74FF02D0B1DE74FF09B
:105A40002B0B1AE7079BC01A4146C0B2C847002873
:105A5000BFF642AF55E614F4405F40F09980039BD7
:105A60004833002E6B4408BF0126133B039A1AB13A
:105A700013F8012D302A79D014F0100F039B18BFB2
:105A800033461AF1040F76DBB24574DA534544F419
:105A9000005440F380800AF101069E1B2AEAEA7353
:105AA0000133BBF1000F00D00133002E75D0721C02
:105AB00013449F42CCBFFF1A002714F0090F03D1F3
:105AC0002F44BD426DD10027BBF1000F07D04146E6
:105AD0005846C847002805F10105FFF612AE230518
