:020000040800F2
:1000000080330020D9320008ED2D0008C5320008E9
:10001000C5320008C5320008C532000800000000E3
:100020000000000000000000000000000D33000888
:10003000C532000800000000E535000861730008C3
:100040009D3600089D3600089D3600089D36000844
:100050009D3600089D3600089D3600089D36000834
:100060009D3600089D3600089D3600089D36000824
:100070009D3600089D3600089D3600089D36000814
:100080009D3600089D3600089D3600089D36000804
:100090009D3600089D3600089D3600089D360008F4
:1000A0009D3600089D3600089D3600089D360008E4
:1000B0009D3600089D3600089D3600089D360008D4
:1000C0009D3600089D3600089D3600089D360008C4
:1000D0009D3600089D3600089D3600089D360008B4
:1000E0009D3600089D3600089D3600089D360008A4
:1000F0009D3600089D3600089D3600089D36000894
:100100009D3600089D3600089D3600089D36000883
:100110009D3600089D3600089D3600089D36000873
:100120009D3600089D3600089D3600089D36000863
:100130009D3600089D3600089D3600089D36000853
:100140009D3600089D3600089D3600089D36000843
:0C0150009D3600089D3600089D36000812
:10016000844641EA000313F003036DD1403A41D3C2
:1001700051F8043B40F8043B51F8043B40F8043B81
:1001800051F8043B40F8043B51F8043B40F8043B71
:1001900051F8043B40F8043B51F8043B40F8043B61
:1001A00051F8043B40F8043B51F8043B40F8043B51
:1001B00051F8043B40F8043B51F8043B40F8043B41
:1001C00051F8043B40F8043B51F8043B40F8043B31
:1001D00051F8043B40F8043B51F8043B40F8043B21
:1001E00051F8043B40F8043B51F8043B40F8043B11
:1001F000403ABDD2303211D351F8043B40F8043BB1
:1002000051F8043B40F8043B51F8043B40F8043BF0
:1002100051F8043B40F8043B103AEDD20C3205D3C0
:1002200051F8043B40F8043B043AF9D2043208D0B8
:10023000D2071CBF11F8013B00F8013B01D30B882A
:1002400003806046704700BF082A13D38B078DD008
:1002500010F003038AD0C3F10403D21ADB071CBFDA
:1002600011F8013B00F8013B80D331F8023B20F844
:10027000023B7BE7043AD9D3013A11F8013B00F87D
:10028000013BF9D20B7803704B7843708B78837005
:100290006046704781F0004102E000BF83F00043F8
:1002A00030B54FEA41044FEA430594EA050F08BF11
:1002B00090EA020F1FBF54EA000C55EA020C7FEAD5
:1002C000645C7FEA655C00F0E2804FEA5454D4EB52
:1002D0005555B8BF6D420CDD2C4480EA020281EA1C
:1002E000030382EA000083EA010180EA020281EA54
:1002F0000303362D88BF30BD11F0004F4FEA0131A6
:100300004FF4801C4CEA113102D0404261EB4101B4
:1003100013F0004F4FEA03334CEA133302D052423A
:1003200063EB430394EA050F00F0A780A4F10104F6
:10033000D5F1200E0DDB02FA0EFC22FA05F2801830
:1003400041F1000103FA0EF2801843FA05F3594116
:100350000EE0A5F120050EF1200E012A03FA0EFC95
:1003600028BF4CF0020C43FA05F3C01851EBE371BF
:1003700001F0004507D54FF0000EDCF1000C7EEBDC
:1003800000006EEB0101B1F5801F1BD3B1F5001F1A
:100390000CD349085FEA30004FEA3C0C04F1010439
:1003A0004FEA445212F5800F80F09A80BCF1004F62
:1003B00008BF5FEA500C50F1000041EB045141EAE4
:1003C000050130BD5FEA4C0C404141EB0101013CAD
:1003D00028BFB1F5801FE9D291F0000F04BF01469C
:1003E0000020B1FA81F308BF2033A3F10B03B3F16E
:1003F00020020CDA0C3208DD02F1140CC2F10C02FE
:1004000001FA0CF021FA02F10CE002F11402D8BF5B
:10041000C2F1200C01FA02F120FA0CFCDCBF41EA27
:100420000C019040E41AA2BF01EB0451294330BDF6
:100430006FEA04041F3C1CDA0C340EDC04F11404D3
:10044000C4F1200220FA04F001FA02F340EA0300AA
:1004500021FA04F345EA030130BDC4F10C04C4F1F0
:10046000200220FA02F001FA04F340EA03002946D0
:1004700030BD21FA04F0294630BD94F0000F83F41A
:10048000801306BF81F480110134013D4EE77FEAFD
:10049000645C18BF7FEA655C29D094EA050F08BF49
:1004A00090EA020F05D054EA000C04BF194610462A
:1004B00030BD91EA030F1EBF0021002030BD5FEA6E
:1004C000545C05D14000494128BF41F0004130BD96
:1004D00014F580043CBF01F5801130BD01F00045EA
:1004E00045F0FE4141F470014FF0000030BD7FEA5D
:1004F000645C1ABF194610467FEA655C1CBF0B4658
:10050000024650EA013406BF52EA033591EA030F6E
:1005100041F4002130BD00BF90F0000F04BF002166
:10052000704730B54FF4806404F132044FF0000599
:100530004FF0000150E700BF90F0000F04BF002112
:10054000704730B54FF4806404F1320410F0004578
:1005500048BF40424FF000013EE700BF42004FEA73
:10056000E2014FEA31014FEA02701FBF12F07F43F0
:1005700093F07F4F81F06051704732F07F4208BFA7
:10058000704793F07F4F04BF41F40021704730B5AE
:100590004FF4607401F0004521F000411CE700BFFA
:1005A00050EA010208BF704730B54FF000050AE07D
:1005B00050EA010208BF704730B511F0004502D57E
:1005C000404261EB41014FF4806404F132045FEA80
:1005D000915C3FF4D8AE4FF003025FEADC0C18BF29
:1005E00003325FEADC0C18BF033202EBDC02C2F11B
:1005F000200300FA03FC20FA02F001FA03FE40EAAD
:100600000E0021FA02F11444BDE600BF70B54FF0B0
:10061000FF0C4CF4E06C1CEA11541DBF1CEA13558E
:1006200094EA0C0F95EA0C0F00F0DEF82C4481EAF6
:10063000030621EA4C5123EA4C5350EA013518BF16
:1006400052EA033541F4801143F4801338D0A0FB03
:1006500002CE4FF00005E1FB02E506F00042E0FBB0
:1006600003E54FF00006E1FB03569CF0000F18BFB6
:100670004EF0010EA4F1FF04B6F5007F64F540745E
:1006800004D25FEA4E0E6D4146EB060642EAC621F1
:1006900041EA55514FEAC52040EA5E504FEACE2E5E
:1006A000B4F1FD0C88BFBCF5E06F1ED8BEF1004F61
:1006B00008BF5FEA500E50F1000041EB045170BDDD
:1006C00006F0004646EA010140EA020081EA030121
:1006D000B4EB5C04C2BFD4EB0C0541EA045170BD1D
:1006E00041F480114FF0000E013C00F3AB8014F197
:1006F000360FDEBF002001F0004170BDC4F10004E0
:10070000203C35DA0C341BDC04F11404C4F1200560
:1007100000FA05F320FA04F001FA05F240EA0200BB
:1007200001F0004221F0004110EBD37021FA04F6F1
:1007300042EB06015EEA430E08BF20EAD37070BDAB
:10074000C4F10C04C4F1200500FA04F320FA05F00A
:1007500001FA04F240EA020001F0004110EBD3700C
:1007600041F100015EEA430E08BF20EAD37070BD7C
:10077000C4F1200500FA05F24EEA020E20FA04F355
:1007800001FA05F243EA020321FA04F001F0004104
:1007900021FA04F220EA020000EBD3705EEA430E75
:1007A00008BF20EAD37070BD94F0000F0FD101F0A4
:1007B0000046400041EB010111F4801F08BF013CDD
:1007C000F7D041EA060195F0000F18BF704703F01B
:1007D0000046520043EB030313F4801F08BF013DA2
:1007E000F7D043EA0603704794EA0C0F0CEA13555E
:1007F00018BF95EA0C0F0CD050EA410618BF52EA18
:100800004306D1D181EA030101F000414FF000001D
:1008100070BD50EA410606BF1046194652EA43062B
:1008200019D094EA0C0F02D150EA013613D195EA9F
:100830000C0F05D152EA03361CBF104619460AD1E7
:1008400081EA030101F0004141F0FE4141F47001F1
:100850004FF0000070BD41F0FE4141F4780170BDE1
:1008600070B54FF0FF0C4CF4E06C1CEA11541DBF46
:100870001CEA135594EA0C0F95EA0C0F00F0A7F848
:10088000A4EB050481EA030E52EA03354FEA013175
:1008900000F088804FEA03334FF0805545EA131388
:1008A00043EA12634FEA022245EA111545EA106550
:1008B0004FEA00260EF000419D4208BF964244F1E7
:1008C000FD0404F5407402D25B084FEA3202B61A06
:1008D00065EB03055B084FEA32024FF480104FF4DA
:1008E000002CB6EB020E75EB030E22BFB61A75464E
:1008F00040EA0C005B084FEA3202B6EB020E75EBE1
:10090000030E22BFB61A754640EA5C005B084FEA48
:100910003202B6EB020E75EB030E22BFB61A754615
:1009200040EA9C005B084FEA3202B6EB020E75EB20
:10093000030E22BFB61A754640EADC0055EA060EE1
:1009400018D04FEA051545EA16754FEA06164FEA24
:10095000C30343EA52734FEAC2025FEA1C1CC0D1D0
:1009600011F4801F0BD141EA00014FF000004FF05D
:10097000004CB6E711F4801F04BF01430020B4F11E
:10098000FD0C88BFBCF5E06F3FF6AFAEB5EB030CD6
:1009900004BFB6EB020C5FEA500C50F1000041EBD3
:1009A000045170BD0EF0004E4EEA113114EB5C04A0
:1009B000C2BFD4EB0C0541EA045170BD41F4801173
:1009C0004FF0000E013C90E645EA060E8DE60CEA7B
:1009D000135594EA0C0F08BF95EA0C0F3FF43BAF98
:1009E00094EA0C0F0AD150EA01347FF434AF95EA4F
:1009F0000C0F7FF425AF104619462CE795EA0C0F33
:100A000006D152EA03353FF4FDAE1046194622E7FF
:100A100050EA410618BF52EA43067FF4C5AE50EAD9
:100A200041047FF40DAF52EA43057FF4EBAE12E7C9
:100A30004FEA410212F5001215D211D56FF4787306
:100A4000B3EB625212D94FEAC12343F0004343EAA9
:100A5000505311F0004F23FA02F018BF4042704784
:100A60004FF00000704750EA013005D111F000400E
:100A700008BF6FF0004070474FF00000704700BFA4
:100A800053B94AB9002908BF00281CBF4FF0FF31F5
:100A90004FF0FF3000F00CB8ADF1080C6DE904CE5A
:100AA00000F068F8DDF804E0DDE9022304B07047E7
:100AB000704700BF70B4840746D0541E002A41D04E
:100AC000CDB2034602E0621EE4B3144603F8015BB4
:100AD0009A07F8D1032C2ED9CDB245EA05250F2C63
:100AE00045EA054519D9264603F11002103E0F2E9E
:100AF00042F8105C42F80C5C42F8085C42F8045C76
:100B000002F11002F2D8A4F1100222F00F0204F058
:100B10000F041032032C13440DD91E462246043A0A
:100B2000032A46F8045BFAD8221F22F0030204329B
:100B3000134404F003042CB1C9B21C4403F8011B94
:100B4000A342FBD170BC704714460346C2E743087A
:100B500003F05533C01A00F03333800800F033300F
:100B6000184400EB10104FF0013300F00F305843E1
:100B7000000E70472DE9F0478C468E46089E1546BC
:100B800004461946002B40F0D080724547D9B2FA8E
:100B900082F74FB1C7F120030EFA07FC20FA03F3E6
:100BA000BD4043EA0C0CBC404FEA154EA8B2BCFB5A
:100BB000FEF8230C0EFB18CC08FB00F943EA0C43AB
:100BC000994528D9EB1808F1FF3204D2994502D98A
:100BD000A8F102022B44A3EB0903A4B2B3FBFEFC71
:100BE0000EFB1C330CFB00F044EA0344A04214D972
:100BF0002C190CF1FF3304D2A04202D9ACF102034C
:100C00002C44241A43EA02401EB1FC400023346005
:100C10007360BDE8F0874246DDE76346F1E7002AEE
:100C200079D0B2FA82F3002B3FD01946C1F12003EC
:100C300002FA01F52EFA03F20EFA01FE20FA03F38E
:100C400043EA0E034FEA154E00FA01F4B2FBFEFC34
:100C5000AFB20EFB1C201A0C0CFB07F842EA004254
:100C600090455AD9AA180CF1FF3004D2904502D908
:100C7000ACF102002A44A2EB08029BB2B2FBFEFCDC
:100C80000EFB1C220CFB07F743EA02439F4246D9A6
:100C9000EB180CF1FF3204D29F4202D9ACF10202F0
:100CA0002B44DB1B42EA004202E0AEEB02030122CE
:100CB0004FEA154EAFB2B3FBFEFC200C0EFB1C330B
:100CC0000CFB07F840EA034398452AD9EB180CF1CE
:100CD000FF3004D2984502D9ACF102002B44A3EBBB
:100CE0000803A4B2B3FBFEFC0EFB1C330CFB07F79E
:100CF00044EA0344A74216D92C190CF1FF3304D25D
:100D0000A74202D9ACF102032C44E41B43EA0040A1
:100D10000F46114678E71F2188E76046ABE7624639
:100D2000BFE76046DBE76346EFE7734506D916B9D0
:100D3000002108466DE7C6E9000EF9E7B3FA83F72C
:100D400087B9734501D3824207D8841A6EEB030337
:100D500001209C461EB900215BE73846FAE7C6E948
:100D6000004CF8E7C7F1200CBB4022FA0CF51D43FC
:100D700020FA0CF12EFA0CF30EFA07FE41EA0E01EE
:100D80004FEA154900FA07F4B3FBF9F81FFA85FE9C
:100D900009FB18300B0C08FB0EFA43EA00439A4596
:100DA00002FA07F240D9EB1808F1FF3004D29A4555
:100DB00002D9A8F102002B44A3EB0A0389B2B3FBCA
:100DC000F9F809FB183308FB0EFE41EA03418E4592
:100DD0002CD9691808F1FF3304D28E4502D9A8F145
:100DE0000203294443EA0040A0FB0298A1EB0E0154
:100DF0004145CE46434602D306D14C4504D2B9EB19
:100E0000020E68EB05030138002EA4D0B4EB0E02ED
:100E100061EB030101FA0CFC22FA07F34CEA03032D
:100E2000F940C6E9003196E74046C5E74346D9E7B1
:100E300030B52DED048B002191B0072001F0CEFBE1
:100E4000062208A91A2001F0EBFB1D4B1888FFF7BA
:100E500063FB04460D46BDF92000FFF76DFB2246FB
:100E60002B46FFF7FDFC02460B46BDF9220043EC82
:100E7000192BFFF761FB22462B46FFF7F1FC0246D8
:100E80000B46BDF9240043EC182BFFF755FB224617
:100E90002B46FFF7E5FCB0EE491AF0EE691AB0EE0A
:100EA000482AF0EE682A9FED040B41EC130B11B0B9
:100EB000BDEC048B30BD00BF00000000000000004E
:100EC000E4010020000000009FED077B10B5012326
:100ED0000374838180ED207B044607F09FFE044B62
:100EE0009C6010BDAFF30080000000000000000017
:100EF000D80E002000000000F8B5EFF31184102395
:100F000083F31288BFF36F8F10F8083C13F02802A8
:100F100058D150F8101C69B150E906319FED2E7B75
:100F20000B60596010F8083C40F8102C00ED067B6F
:100F300003F0FD0303F0FB02110600F8082C41D476
:100F400013F01B0F3ED110F80A3C254D1033DBB2D5
:100F500005EBC30662F07F0200F8082CD6F820C02B
:100F600031465A091C3140E9061C4032A0F11807ED
:100F700005EB8202CCF80070D0693762012103F0E2
:100F80001F06B1400143D161D5F8202193423CBFF7
:100F90001A46C5F8203105EBC2031A46DE691C3239
:100FA000964216D0AEB1AB681A7CD20604D1DA896B
:100FB0007F2A01D9B26952B1B34202D0304607F05C
:100FC00045FBAE6184F31188BFF36F8FF8BDAB6151
:100FD000F8E7EE68E7E700BF00000000000000004F
:100FE000D80E0020000000002DE9F84F2DED028BF7
:100FF000002A037C0CBF4FF0100A4FF0080A1AEACF
:10100000030F05460F460CD0934EB368AB423A46E9
:1010100037D087F31188BFF36F8FBDEC028BBDE82B
:10102000F88F4AEA0302DB0957D18B4E0274BAF1FA
:10103000080F7BD0B2680024D6F8203106EBC3013C
:101040000B46D1F81C801C33984500F0EF80B8F1B6
:10105000000F00F0EB80904502D0404607F0F6FA12
:10106000BAF1100FC6F81880CFD0284602F022FA45
:10107000002CCAD07948FFF727FFB368AB423A4645
:10108000C7D1EFF30583002BC3D1A989C90712D5B6
:1010900087F31188BFF36F8F83F31188BFF36F8FCE
:1010A0000423184602DFEFF31182102383F3128822
:1010B000BFF36F8FB5686A496FF00A03C5E925234E
:1010C0004B6843F0805300224B6082F31188BFF3DA
:1010D0006F8FBDEC028BBDE8F88F817B5E4E02F016
:1010E0007F020274D0E900321031C9B213605A6035
:1010F000CB00F2181C33D26933449A4297D14A0983
:10110000403206EB820201F01F01D369012000FA90
:1011100001F123EA0103D361002B00F0948093FADC
:10112000A3F3B3FA83F3C6F8203180E7AB686BB161
:10113000D5E9003213605A602B7C23F002032B7434
:101140000023AB6000220023C5E9002305F118004D
:1011500007F0DAFBAC6D05F1580BA34561D0002C0C
:101160005FD09FED3B8B4FF000084FF0010901E08D
:10117000002C56D0D4E9003213605A60237CC4F8A6
:10118000088023F00203237484ED008B04F118001F
:1011900007F0BAFB94F91020237CC4F89880002A49
:1011A0003CDBDA063AD163F07F032374A37B103370
:1011B000DBB206EBC3005A09D0F820C0C4F804C063
:1011C0000146403206EB82021C312160CCF800401F
:1011D00003F01F010462D06909FA01F10143D161F2
:1011E000D6F8202193423CBF1A46C6F8203106EBC0
:1011F000C2031A46DC691C3294421AD0CCB1B368DF
:101200001A7CD00604D1DA897F2A01D9A26992B169
:10121000A34202D0204607F019FAB461AC6DA34591
:10122000A6D1B268954208D0002405E7D6F80C8014
:1012300011E7F468E3E7B361F0E7EFF30584003CFE
:1012400018BF0124F8E61F236DE700BFAFF300804D
:101250000000000000000000D80E0020780A0020E6
:1012600000ED00E000000000EFF31181102383F394
:101270001288BFF36F8F83686BB1D0E900329FEDA6
:10128000087B13605A60037C80ED007B23F002032F
:1012900000220374826081F31188BFF36F8F70475F
:1012A00000000000000000000346EFF3118210214F
:1012B00081F31288BFF36F8F0068834213D068B147
:1012C000D0E900319FED0C7B0B605960037C80ED11
:1012D000007B23F0020300210374816082F31188F4
:1012E000BFF36F8F7047002082F31188BFF36F8FB9
:1012F000704700BFAFF30080000000000000000056
:101300002DE9F047524FDFF850912DED048B3C68EA
:10131000C9F80000BC4203460E4670D0002C00F015
:1013200082809FED479B9FED488BDFF828A14FF00F
:101330001008256962690E46AB424FEAE37171EB12
:10134000020C204629DBDAF800305B19CAF80030BD
:10135000DAF8043084ED049B43EBE573CAF80430FB
:1013600007F004FA84ED048B86F31188BFF36F8FC6
:10137000A3689847EFF3118688F31288BFF36F8F45
:10138000D9F800303C685B1BBC423146C9F80030DC
:1013900037D0002CCDD1D91705E0ED1A62EB010250
:1013A000256162613C68DAF80020D218DAF804306E
:1013B000CAF8002043EB0103CAF80430BC424FF0E6
:1013C0000003C9F8003017D0B4B1D4E90403B0F178
:1013D000004F73F100020FDA002BB8BF002000218C
:1013E00005F0FAFF86F31188BFF36F8FBDEC048B15
:1013F000BDE8F04707F078B96FF00040EFE7DFF89D
:1014000054A0DAF80020D218CAF800204FF00002E9
:10141000C9F80020DAF8042042EBE3726FF00040D4
:10142000CAF80420DBE70B49C9F80040D1E90020E5
:10143000D21840EBE370C1E900206FF00040CEE726
:10144000000000000000000001000000000000801B
:10145000DC010020700B00200810002000000000BC
:101460009FED097B10B4002300F11804C0E9064485
:1014700080ED007BC0E908125DF8044B0363436311
:10148000704700BFAFF300800000000000000000C4
:10149000704700BF014806F057BB00BF4402002060
:1014A000014806F051BB00BF24020020014806F0AD
:1014B0004BBB00BF64020020014806F045BB00BFE3
:1014C000340200202DE9F04F384E394DDFF8F4B0EA
:1014D000DFF8F480374FA1B006F1040A4FF0FF3275
:1014E0004FF0FF33344806F065FBBFF35B8F316884
:1014F000BFF35B8FBFF35B8FDAF80000BFF35B8F46
:101500002E4BBFF35B8F1B68BFF35B8F95F84020BA
:10151000099280EAE0746A7B0792A4EBE074A7FB6F
:1015200004C2003B4FEAD20218BF012302EB820241
:10153000A4EB4204089381EAE173A3EBE173029404
:1015400088FB0042C017C0EBA200A7FB0342D208F1
:1015500002EB8202A3EB4203CDE90030287BEB7A59
:10156000D5ED117A164ACDE90530A87AB369FDEEBA
:10157000E77ACDE9033088FB0103C917C1EBA30368
:10158000CDED0A7A50210CA807F0A4FB9DF830108D
:101590000029A3D0DBF808400DF130090948626842
:1015A000904719F8011F0029F8D197E7800B002018
:1015B000C4000020CDCCCCCC54020020940B0020E1
:1015C00000D00008D4C30008676666662DE9F843BA
:1015D000224EBFF35B8F354655F8044BBFF35B8F4C
:1015E0000027A6F11009A6F10C080BE00122BFF3B9
:1015F0005B8F55E8001F45E800200028F9D1BFF3B4
:101600005B8F1C464FF0FF324FF0FF33144806F05B
:10161000D1FABFF35B8F3368BFF35B8F9C42E5D198
:10162000BFF35B8F55E8002F45E800710029F9D121
:10163000BFF35B8FBFF35B8F59E8002F49E8007160
:101640000029F9D1BFF35B8FBFF35B8F58E8002F00
:1016500048E800710029D2D0F8E700BF900B0020C5
:101660006402002010B586B0072400920122019286
:101670000492002203938DF814400B468DF8082045
:101680009DF81420816842F002028DF814208C68C5
:1016900002226946A04706B010BD00BF10B404691D
:1016A0000123246803FA01F1214218BF5A4022B1F4
:1016B00083685DF8044BDB68184783685DF8044B6A
:1016C0001B69184770B4D6028568046902F00103EB
:1016D0000FD512F4402F0CD0D3B182F4402222F463
:1016E0008012266801238B40334323602B6870BC33
:1016F000184722F48012002BF3D123684FF0010C1D
:101700000CFA01FC23EA0C0323602B6870BC184719
:1017100022F48012F1E700BF0A21A0FB010106F0CC
:10172000E3BE00BFF0B5044683B083685A6C1AB1BB
:101730009047002878D0A3683C4E351F371D54E0F1
:10174000DFF8F4C03A4A9CF80000042864D9137802
:10175000643B002103EB83038CF800105B00BFF3B4
:101760005B8F56E8001F46E800300028F9D1BFF330
:101770005B8F5378BFF35B8FC3F1640303EB830389
:101780005B0055E8001F45E800300028F9D1BFF3A1
:101790005B8F9378BFF35B8F57E8001F47E80030FB
:1017A0000028F9D1BFF35B8F05F10C03D278BFF3AA
:1017B0005B8F53E8001F43E800200028F9D1BFF3F6
:1017C0005B8FBFF35B8F05F1100353E8001F0131FE
:1017D00043E80012002AF8D1BFF35B8F15488368F5
:1017E0004FF400415B699847A3685A6B1AB12046D1
:1017F0009047C8B1A3689B69B3B101220DF10701FD
:101800002046984701280FD19DF80730FF2B97D12C
:10181000094B00221A70E7E7411CC9B2052913548D
:101820008CF80010E0D192E703B0F0BD840B0020EB
:10183000780B002048C300080E1000202DE9F0416D
:101840002DED048B9FED3F8A3F4F404CDFED408AEA
:10185000404E84B0B0EE489A4FF000084FF0FF328F
:101860004FF0FF333C4806F0A5F93C4805F050FF27
:101870000028F3D0BFF35B8F3D68BFF35B8FEDB201
:10188000082D3ED0D4ED117AF4EEC87AF1EE10FABC
:101890002AD5B0EE007A77EE877AB4EEE78AF1EED9
:1018A00010FA48BFF0EE487AC4ED117A94F840205F
:1018B000D4ED117A2A48FCEEE77A40F26D11CDEDB5
:1018C000037A9DF80C30B42B28BFB42301FB03F33B
:1018D0009B08A6FB03139B087D3300934121002343
:1018E00000F0BEFFA846B9E7DEDDB0EE007A77EE85
:1018F000C77AB4EEE78AF1EE10FAC8BFF0EE487A84
:10190000D2E7B8F1080FBDD094F848307BB194F815
:101910004830022B0BD002210022012384F848100A
:10192000B0EE498A84F8342084F83530AAE70123E0
:10193000002284F84830B0EE688A84F8343084F8A5
:1019400035209FE7000000008C0B0020C400002021
:101950000000B442176CC1164402002028C40008DD
:1019600074D700082DE9F04F2DED0A8BDFF8808346
:10197000CD4BDFF880A39FEDCD8ADFEDCD8ADFED83
:10198000CD9ACD4E9FEDCD9A8DB0A3F14C0708F1C5
:101990000409DFF814B3CA4CCA484FF0FF324FF0C5
:1019A000FF3306F007F902975F46A346DBF8000015
:1019B0009BF804500469826804A95268904748B9AA
:1019C00004982268012303FA05F5504028400038A6
:1019D00018BF0120BFF35B8F57E8002F47E80001D5
:1019E0000029F9D1BFF35B8F0BF1080BD34507F149
:1019F0000407DBD1B44B029F1B78002B40F0DE8143
:101A0000BFF35B8FB14B1B68BFF35B8FB04ABFF373
:101A10005B8F1168BFF35B8FBFF35B8F0832126877
:101A2000BFF35B8F002A00F06781DBB2BFF35B8FEF
:101A30003A68BFF35B8F07EE902AF8EEE77AB2EED2
:101A4000047AC7EE87BAA34ABFF35B8F1268BFF36D
:101A50005B8F07EE902AF8EEE77A0C2B87EE87BAB9
:101A600000F0FD81032B00F02682042B00F0388269
:101A7000012B00F00882082B00F01182022B08D104
:101A8000BFF35B8F884B1B68BFF35B8F012B00F0AC
:101A9000338264231A4672728F4A3372127896ED3B
:101AA000057ACBB29A420AD0042B00F0BE81022BF9
:101AB00005D1DFED8A7A37EE677A86ED057AC7EED3
:101AC000297A854A13703A6B9FED856AD6ED066ACE
:101AD00086ED047A67EE867ABDEEE67AFDEEE77A69
:101AE00017EE103A17EE901A13445B1A142B00F3FA
:101AF000988113F1140F80F20282BBEE04AA6FF0FA
:101B000013031A4407EE902AF8EEE77A9FED747AF1
:101B1000F36177EEA67A67EEA97A87EE87CAB0EE10
:101B20004C0A09F0C5FAF0EE40AAB0EE4C0A09F0F2
:101B300045F9F1EE6A7AB1EE407A9FED6A6A6A4B36
:101B400030EE6A5A7AEEC05A7AEE806A37EE6A7AD6
:101B500077EEC07A25EE065A66EE866A65EE865AFC
:101B600027EE067A67EE867A2BEE264A2BEEA56ADA
:101B70006BEE054A6BEEA66A27EE0B7A2BEE855AC2
:101B800067EEAB7A6BEE255A36EE046A76EEA46AFF
:101B900037EE057A77EEA57A36EE086A76EE886A31
:101BA00037EE087A77EE887A76EE8A6A36EE0A6A37
:101BB00037EE0A7A77EE8A7ACDED056A8DED046A02
:101BC0008DED067ACDED077AF1EE046A04AAA3F151
:101BD0001B00F3EC017AB2EC017AF4EEC77AF1EE75
:101BE00010FA4CD577EEA67AB4EEE77AF1EE10FA59
:101BF00048BFF0EE477AF4EEE87AF1EE10FA43EDE2
:101C0000017A4FDAF5EEC07AF1EE10FA40F2D480A4
:101C1000FCEEE77ACDED027A9DF8081000F8011F7E
:101C200008A98A42D5D196F82030B3730023CDE9B4
:101C3000003321492D480022002302F059FD0024E1
:101C4000012558F8340019F83410036932191B685B
:101C500092F8342005FA01F1003A03EA010318BFB3
:101C60000122003B18BF01239A42836804F101045A
:101C700014BFDB681B6998470C2CE2D189E6B1EEF2
:101C8000046AB8DD77EEC67AB4EEE77AF1EE10FAC0
:101C9000C8BFF0EE477AF4EEE87AF1EE10FA43EDC1
:101CA000017AAFDBFF21B9E7CC0B00200000C8426E
:101CB00000007F43D80F4940C4000020000000000E
:101CC00004D700083402002010100020880B0020E8
:101CD0008C0B0020840B00200F100020D80F493FF0
:101CE000000034438104353FE80000207CC4000834
:101CF000A4D6000854D700088348BFF35B8F50E890
:101D0000003F40E800210029F9D1BFF35B8FBFF30A
:101D10005B8F043050E8003F40E800210029F9D1F2
:101D2000BFF35B8F794BF26186ED059A86ED049ADD
:101D3000B1EE047AA3F11B01F3EC017AF4EEC87A58
:101D4000F1EE10FA1CD577EE877A0022F4EEC87A0D
:101D5000F1EE10FAC8BFF0EE487AF5EEC07AF1EE77
:101D600010FA43ED017A1ED801F8012F684A934218
:101D7000E2D146F2644333814FF4C843F38155E71F
:101D8000F1EE046A0FDD77EEE67AF4EEC87AF1EE52
:101D900010FA48BFF0EE487AF4EEE87AF1EE10FA65
:101DA00043ED017A06DAFCEEE77ACDED027A9DF892
:101DB0000820D9E7FF22D7E700212FE7FFF738F8FF
:101DC00051EC110B8DED040B8DED082B8DED061BE9
:101DD0008DED0A3B8DED023BFEF72AFEDDE9022385
:101DE000444219461046FEF723FE4A4B1B781BBBA4
:101DF0003B6ABC61E31AB42B2BDDA3F5B4733A6BD9
:101E0000BB621A447B6A3C62C31AB42BF8613A6322
:101E100019DDA3F5B4737A6B78621A44FB627A63B6
:101E2000EEE5B3EE04AA14236BE6DFED3B7A37EE62
:101E3000277A86ED057A42E6364B4FF00002C7E975
:101E400008401A70DCE513F1B40FB8BF03F5B473A2
:101E5000E1E713F1B40FB8BF03F5B473CFE72F4B2D
:101E6000BFF35B8F1B68BFF35B8F002B7FF411AE5A
:101E7000BFF35B8F2A4B1A68BFF35B8F002A7FF496
:101E800008AE962307E6274BBFF35B8F1B68BFF3B3
:101E90005B8F012B7FF4FDAD00236422FBE5204B1B
:101EA000BFF35B8F1B68BFF35B8F012B7FF4F1AD3A
:101EB00064230022EFE51C4BBFF35B8F1B68BFF36D
:101EC0005B8F002B7FF4E5ADBFF35B8F154B1B6879
:101ED000BFF35B8F002B7FF4DCAD3223C822DAE541
:101EE0000E4BBFF35B8F1B68BFF35B8F012B7FF43F
:101EF000D0ADC8236422CEE56423C822CBE507EE2B
:101F0000903AB8EEE7AAFCE5880B0020E800002034
:101F1000F8000020E6010020D80F493FD80B002030
:101F2000D00B0020D40B0020CC0B00202DE9F04179
:101F30003E4E3F4C3F4FDFF808814BE0A368022143
:101F4000DB6820469847226912686B08510748BF32
:101F5000DB4303F00103002B5CD0A3680421DB68A2
:101F60002046984722691268AB08120748BFDB4336
:101F700003F00103002B53D0A3680821DB6820463F
:101F8000984723691B68ED08DB0648BFED4305F061
:101F90000105002D38D0A3681021DB682046984742
:101FA000642006F0CDFABB6822485B682249984756
:101FB00096F8483048B9B8F9002007EE902AF8EEB4
:101FC000E77A06EB8302C2ED0E7A013303F00303D6
:101FD00086F848304FF0FF3318484FF0FF3205F0D5
:101FE000E9FD236996F848501B6898074ABFEB4300
:101FF00005F0010303F00103002B9FD1A368022128
:102000001B69204698479EE7A36810211B6920465C
:102010009847C5E7A36804211B6920469847A1E7B4
:10202000A36808211B6920469847AAE7800B002077
:1020300080C300080CC40008A8000020240200206F
:102040000C1000202DE9F0438BB07A4805F060FBBE
:10205000002840F0B380774805F05AFB002840F094
:10206000A780754C012704F15006206805F050FB4D
:10207000B4F806C0206821794CF480320569D0F8A4
:1020800008E02B681CF0010F07FA01F814BF48EABA
:10209000030323EA08032B60DEF800300834984776
:1020A000A642E2D1654C4FF0010804F1600502E060
:1020B0000834AC421AD0206805F02AFB0028F7D07B
:1020C00020682179E288D607D0F810C0876808FA1E
:1020D00001F311D5DCF8006042F420223343CCF840
:1020E00000303B6808349847AC42E4D1544F38463E
:1020F00005F00EFB38B9FEE7DCF8006042F4C022C0
:1021000026EA0303EBE74F4A0D213846FFF7DAFAD8
:10211000032401220D213846FFF7C0FA6420FFF79F
:10212000FBFA00220D213846FFF7B8FA6420FFF7CA
:10213000F3FA013CEDD1444C012604F1200520685E
:102140002179E2880369D0F80890D3F800E012F012
:10215000010F06FA01F84EEA080C08BF2EEA080C37
:10216000C3F800C014BF42F4202242F4C022D9F8C0
:10217000003008349847AC42E1D1314805F0C8FA44
:10218000002851D12E4805F0C3FA002833D12F483A
:1021900005F0BEFAF0B92E4805F0BAFAA0B92D4CF8
:1021A000206805F0B5FA00285AD10BB0BDE8F083DD
:1021B000294A20480521FFF785FA52E7264A1D489B
:1021C0000421FFF77FFA46E7214B21489B685B68B3
:1021D0009847E4E71D4B9B682BB19B6C1BB11F49D3
:1021E0001A4800229847194B9B689B6A002BD2D053
:1021F00016489847CFE7134A11480F21FFF762FAB4
:10220000052401220F210E48FFF748FA5020FFF75E
:1022100083FA0B4800220F21FFF740FA5020FFF706
:102220007BFA013CEDD1B2E7064A05480E21FFF7E3
:1022300049FAA7E710C3000804D70008A4D600088D
:1022400048C300080100160054D70008B8C30008AE
:102250007CC40008100100201100010025170008AF
:10226000282300252046A3808DF8275000F0A8F9E8
:10227000A18820688DF820500DF1270308AAFFF7E8
:10228000F1F920B99DF82730A02B00F0F98029231F
:102290008B48A380002500F093F9A18820688DF871
:1022A00024500DF1270309AAFFF7DCF9002800F0FC
:1022B000E280844D844805F02BFA002840F0F58038
:1022C000824C204605F024FA20B1A36880491B689F
:1022D000204698474FF4FA70FFF71EFA4FF00008B7
:1022E0004FF00009002402230393CDE90689CDE9CC
:1022F0000144784B7849049400944FF40062774885
:1023000005F05EFD7649754805F0C4FC062303938D
:10231000CDE90689CDE90144724B734904940094D8
:102320004FF40072714805F04BFD71496F4805F09C
:10233000B1FC08230393CDE90689CDE901446D4B37
:102340006D49049400944FF400726C4805F038FD18
:102350006B496A4805F09EFC0A230393CDE9068980
:10236000CDE90144674B6849049400944FF48062BE
:10237000664805F025FD6649644805F08BFC654913
:10238000654805F087FC0722CDE90324CDE90689DD
:10239000CDE90144614B624900944FF48062614889
:1023A00005F00EFD60495F4805F074FC22465F4968
:1023B0005F48FFF755F822465E495F48FFF750F83F
:1023C00022465E495E48FFF74BF822465D495E486B
:1023D000FFF746F8642200235548CDE9002306F0B4
:1023E000B7FB4FF4FA6200235348CDE9002306F00F
:1023F000AFFB4FF0C8084FF000095148CDE9008904
:1024000042464B4606F0A4FB4F48504ECDE90089AA
:1024100042464B4606F09CFBBC680FE04FF48041FF
:1024200063694B489847BFF35B8F3368BFF35B8F9B
:10243000EBB941F28830002106F056F84448636950
:102440004FF4005198472B78002BE7D13B691B686C
:102450005B044FF480414CBFE36823693C489847D4
:10246000BFF35B8F3368BFF35B8F002BE1D04FF47A
:102470007A700021E0E79DF82730A02B7FF419AF98
:10248000104D00F075F800F069F801220E21304877
:102490002A70FFF703F94FF4FA60FFF73DF92C4873
:1024A00000220E21FFF7FAF804E72A48822100F003
:1024B000DDF89FED290A2748822100F023F9FFE685
:1024C000100100201010002028C400080CC40008CF
:1024D000BC00002065190008801E0020B8070020FD
:1024E00028D00008CD150008001C0020D8060020C8
:1024F00030D000082D1F000880190020F8050020AA
:102500003CD00008C5140008001500201805002064
:1025100040D0000848D00008380400203D180008CA
:10252000801000205803002054D00008B91400087F
:1025300020030020AD140008E8020020A1140008C8
:10254000B00200209514000878020020940B0020AF
:1025500048C3000874D700080000484208B53D2071
:102560000C2100F03BF8BDE80840072000F02EB831
:1025700010B5202182B03F20002400F02FF84FF446
:102580002F7000F023F801220DF1070120468DF88D
:10259000074000F045F82146072000F01FF82146CB
:1025A0003F2000F01BF821463D2000F017F81320D3
:1025B00000F00CF80A2000F009F802B010BD00BFCE
:1025C000014B1860704700BFF40B002020EAE07058
:1025D0000A21A0FB010105F087BF00BF0F4B1B685C
:1025E000D3B130B585B00246022418688DF80020BA
:1025F0009B88CDF804D08DF8011002948DF80C4022
:102600009DF80C2022438DF80C20816801228C68F3
:1026100001A9A04705B030BD704700BFF40B0020F2
:1026200010B5114B88B01B688DF80700CBB1186846
:102630009B88059107210DEB010406928DF81C1073
:1026400000220121CDE902418DF810209DF81C20C7
:1026500042F002028DF81C20816802228C6802A9D7
:10266000A04708B010BD00BFF40B0020F0B5044631
:1026700085B002254FF400436E46ADF80030CDE939
:1026800001650068A3888DF80C509DF80C202A4342
:102690008DF80C20826801A997680122B8470021B3
:1026A000642005F021FF4FF40053ADF80030CDE970
:1026B00001652068A3888DF80C509DF80C202A43F2
:1026C0008DF80C20826801A997680122B847002183
:1026D0000A2005F009FF40F201422068A388CDF8E6
:1026E00004D0ADF8002002958DF80C509DF80C2018
:1026F0002A438DF80C20816801228C6801A9A0472B
:1027000005B0F0BD2DE9F0472DED028B88B00446F1
:102710000DF103034FF0000801270DF104090293A6
:1027200007238DF81C30CDE905970068A3888DF844
:102730000380B0EE408A8DF8048003978DF81080F6
:102740009DF81C2042F002028DF81C20826802A92C
:1027500095680222A8479DF804602068CDF808908B
:1027600006F06F03022543F010038DF805308DF855
:102770000480A38803958DF810509DF810202A43FB
:102780008DF81020826802A9D2F808A03A46D047F6
:10279000DFED317A9FED317A20688DF8105028EE08
:1027A000270AF7EE006AC7EE007AFE238DF80430A0
:1027B000CDE90295B6EE007A77EEE67A77EE877A83
:1027C000FCEEE77A17EE903A8DF80530A3889DF875
:1027D00010202A438DF81020826802A9D2F808A0A0
:1027E00006F0CF063A46D04746F020038DF8053074
:1027F000CDE902952068A3888DF804808DF81050EB
:102800009DF810202A438DF81020826802A9D2F882
:1028100008A03A46D047002166F05F06322005F056
:1028200063FE2068A3888DF80480CDF808908DF8A9
:10283000056003958DF810509DF810202A438DF8FF
:10284000102081683A468C6802A9A04708B0BDEC08
:10285000028BBDE8F08700BF0000804520BCBE4B66
:102860002DE9F047950084B00446EDB21F460226DC
:10287000AB1D8DF80030BDF830800068A3888DF85E
:10288000017002968DF80C60E946CDF804D09DF8F1
:102890000C2032438DF80C20826801A9D2F808A0E0
:1028A0000122D0473F0AEB1D8DF80030CDE901969B
:1028B0002068A3888DF801708DF80C609DF80C20BD
:1028C00032438DF80C20826801A997680122B8472D
:1028D00005F108038DF80030CDE901962068A38842
:1028E0008DF801808DF80C609DF80C2032438DF836
:1028F0000C20826801A997680122B84709354FEA80
:1029000018222068A388CDF804D08DF800508DF8E7
:10291000012002968DF80C609DF80C2032438DF852
:102920000C20816801228C6801A9A04704B0BDE891
:10293000F08700BF30B500EBC1044FEAC10C6388DB
:102940005B08B3FA83F3C3F11F0300EB83050CF1BB
:10295000040C2A691FFA81FE72B96EF30F02C46873
:102960006EF31F424FF0010E0EFA03F31C43C460D6
:10297000296140F80C2030BDD3000433C15A20F83F
:102980000C1000EBC101E280A1F806E020F803E0A2
:1029900030BD00BF043A2DE9F041CC1D114424F0B4
:1029A000070421F00706331BDF08B7FA87F2C2F1EC
:1029B0002405AD004FF00008C2F120020735ED08F4
:1029C00004604146C4E90278920004F11000FEF769
:1029D00071F8A9B24A007B1B42F0010262809BB2EF
:1029E00004EBC5025800A4F80080508024F835108C
:1029F00001223380728029462046BDE8F041FFF76E
:102A000099BF00BF08B5024800F012F8002008BDC9
:102A10005CD0000800207047014B1B68184700BFBE
:102A200018010020014B1860704700BF18010020FA
:102A30000FB400B587B008AA52F8041B0192002316
:102A40000293CDE904334FF0020C064B8DF80AC017
:102A500002A8039306F008FB07B05DF804EB04B08E
:102A6000704700BF192A0008704700BF034A536827
:102A700023F0020300205360704700BF002004E0F1
:102A800008B5074A416893681B682BB10C311046A2
:102A9000984700EAE07008BD6FF0570008BD00BF1E
:102AA00068C20008082810B508D8064B53F8204023
:102AB000204604F02DFE08B1204610BD002420461B
:102AC00010BD00BF30D8000870B502F4C04C446897
:102AD000BCF5804F4FF00100646800FA01F061D04E
:102AE000BCF5005F4DD090FAA0F3A168C2F3014C91
:102AF00043B1B3FA83F35B004FF0030E0EFA03F316
:102B000021EA030190FAA0F333B1B3FA83F35B0037
:102B10000CFA03FC41EA0C01A160E16890FAA0F311
:102B2000C2F3814C43B1B3FA83F35B004FF0030E61
:102B30000EFA03F321EA030190FAA0F333B1B3FADA
:102B400083F35B000CFA03FC41EA0C01E1602168AD
:102B500090FAA0F3C2F3413243B1B3FA83F35B00BE
:102B60004FF0030C0CFA03F321EA030190FAA0F0F2
:102B700020B1B0FA80F04000824011432160002073
:102B800070BD6568C2F3C03C25EA00050CFA01F18E
:102B900029436160002BA6D0D30256BF0304A06175
:102BA000A361A0E70729C2F3432C22D9030A666A6E
:102BB00093FAA3F545B1B5FA85F5AD004FF00F0EC8
:102BC0000EFA05F526EA050693FAA3F333B1B3FA34
:102BD00083F39B000CFA03FC46EA0C06666263680A
:102BE00023EA000CC2F3C0338B4043EA0C0363605A
:102BF00079E7256A90FAA0F33BB1B3FA83F39B001F
:102C00000F2606FA03F325EA030590FAA0F32BB189
:102C1000B3FA83F39B000CFA03F31D432562DEE74E
:102C2000084B09491A68094842F480721A601A6808
:102C300042F400721A601A6842F480621A600860F6
:102C4000704700BF003C0240D40100200024F40083
:102C5000014B03600020704754D8000880B505463A
:102C60000E4614461F4605F0DBFC034600F028FD27
:102C7000214604463046034E3A463351A847A059F0
:102C800000F096FC08000000FDF714BFFDF768BADD
:102C90000648074A08B5121A0021FFF7F5FF054854
:102CA000054A0021121AFFF7EFFF08BD7802002045
:102CB0001410002000000010000000100A480B4A09
:102CC0000B4908B5121AFFF7E1FF0A480A4A0B49F7
:102CD000121AFFF7DBFF0A480A4A0B49BDE8084011
:102CE000121AFFF7D3BF00BF0000002074020020BB
:102CF00008E00008000000200000002008E00008B4
:102D000000000010000000107CE20008036973B1AD
:102D100070B505460024061D56F834201AB155F842
:102D2000340090472B690134A342F5D870BD704739
:102D30002DE9F041804686B00E4671B3D1E90123FA
:102D400021480968FFF774FED6E90423F1681F489B
:102D5000FFF76EFE1E48F169FFF76AFE0024354654
:102D6000EF6AE21CD5E90930CDE90327A11C2A6AE4
:102D70000093CDE90110631C214616480434FFF787
:102D800057FE102C05F11005EAD1316E1248FFF7FD
:102D90004FFE1248B169FFF74BFEB8F1010F06D0A4
:102DA0003146404606B0BDE8F04104F0C9BCEFF33F
:102DB00005810B481039FFF73BFE3146404606B00F
:102DC000BDE8F04104F0BCBC28D1000858D100088F
:102DD00088D1000898D10008DCD10008ECD10008A7
:102DE0001CD2000801460068FFF7A2BF08B500F03A
:102DF00005F8BDE8084000F0CBBB00BF30BFFFF7CF
:102E0000FDBF00BF2DE9F0410B4EDFF8348006EB2B
:102E10000807CC1B0546324608492046FDF7A0F9B5
:102E2000A01942460021083CFDF744FEC5F8904039
:102E300007F10800BDE8F0810000000068CD00083F
:102E4000040000002DE9F8430646394814460F46B1
:102E5000FFF7EEFD374B9B6ADA0657D41025354B4A
:102E60009B6A1B074DD4DFF8CC80D8F82830980730
:102E70003AD46FF015092F4B9B6ADA072FD42D4BEC
:102E80009B6A9B0626D42B4B9A6AD70614D49B6A5E
:102E9000980711D4274B9A6A920603D55A6A22F4EE
:102EA00000525A62234A936A002143F0FF0393625F
:102EB00021702846BDE8F8831E4B5B681905E9D5EB
:102EC0003146484600F0DEFA0028E3D080F3098856
:102ED0000225DFE71848FFF7ABFD1525D3E71748B4
:102EE000FFF7A6FD1425CAE71548FFF7A1FDD8F89E
:102EF0003490D8F8283019060DD46FF01509132531
:102F0000B9E71048FFF794FD1225ACE70E48FFF72C
:102F10008FFD1125A3E70D484946FFF789FD002FD6
:102F2000EDD0D8F8283023F08003C8F82830E6E741
:102F300030D2000800ED00E0E4D20008C4D200085E
:102F400090D200087CD2000848D20008ACD2000819
:102F500008B52B48FFF76CFD2A4B9B6A99011DD4DD
:102F6000284B9B6ADA014FF01D0020D4254B9B6A49
:102F70001B0325D4234B9B6A59032AD4214B9B6AFC
:102F80009A032FD41F4B9B6ADB0334D41D4A936AE8
:102F90006FEA03436FEA1343936208BD1A48FFF7D1
:102FA00047FD184B9B6ADA014FF01E00DED517482B
:102FB000FFF73EFD134B9B6A1B034FF01F00D9D553
:102FC0001348FFF735FD0F4B9B6A59034FF0210063
:102FD000D4D51048FFF72CFD0A4B9B6A9A034FF09B
:102FE0002200CFD50C48FFF723FD064B9B6ADB037D
:102FF0004FF02300CAD50948FFF71AFD2420C5E782
:1030000014D3000800ED00E030D3000844D30008DA
:1030100060D3000880D30008A8D30008C4D30008F8
:1030200070B5054628480C46FFF702FD274B9B6A02
:10303000D80439D41623254A926A11052FD4234E79
:10304000B26A920522D4214A926A500519D41F4AC5
:10305000916AC90510D4926A920408D418461B4A92
:10306000936A002143F47F439362217070BD184836
:10307000FFF7DEFC1C20F2E71648FFF7D9FC1B2007
:10308000EDE71548FFF7D4FC1A23E0E71348FFF7F4
:10309000CFFCB16BB36A1B040BD41923D3E71048E0
:1030A000FFF7C6FC1823CAE70E48FFF7C1FC172339
:1030B000C1E70D48FFF7BCFC002DEED0B36A23F446
:1030C0000043B362E9E700BFF0D3000800ED00E081
:1030D000E4D200086CD4000850D400081CD40008C6
:1030E0007CD2000808D4000838D40008F0B5644B3E
:1030F0005D689DB0C5F30807002383F31188BFF313
:103100006F8F02F07F44B4F17F4F19D102F00C04AD
:10311000082C12D0140747BF0C461E460446012651
:1031200000238DF80730FB1E092B0CD8DFE803F0D5
:103130002B677C740B0B0B0B0B785248FFF778FC5A
:1031400000263446ECE715F4F87F0CBF4E494F4992
:103150004F48A7F11002FFF76BFC002568222146BB
:1031600002A8FCF7FDFF099B002E64D0C3F3080200
:1031700040F2FF110AB90B43099302A92846FFF751
:10318000D7FD1DB0F0BD43483D4DFFF751FC002376
:103190008DF80730EB6A9A0751D4EB6A002B52DBAB
:1031A000EB6A5B00D9D53C48FFF742FC6B69A2692A
:1031B00043F480736B61BFF34F8FBFF36F8F6B6905
:1031C00032F8022C23F480736B61BFF34F8FBFF38F
:1031D0006F8F02F47F43B3F55F4F38D0284A936A6C
:1031E000DBB2002B3CD1956A15F47F4540D1936A40
:1031F000B3F5803F0AD3FFF7ABFE054606E00DF1BD
:10320000070200212046FFF71DFE05469DF8073006
:10321000002BA3D01DB0F0BDFFF79AFE05469DE739
:103220001E48FFF705FC98E70DF107010020FFF7A6
:10323000F7FE0546EAE76FF3080309939DE7184890
:10324000FFF7F6FB89E71748FFF7F2FB85E7D2B2F5
:10325000022AC3D121681448FFF7EAFB2568D5E7A5
:103260000DF1070201212046FFF7ECFD0546CDE7F1
:103270000DF107010120FFF7D3FE0546C6E700BFA9
:1032800000ED00E0BCD4000888D40008A0D40008F9
:103290009CD50008E8D4000834D5000874D500088F
:1032A00000D5000824D5000854D50008044B5A69FD
:1032B00042F010025A615A6922F008025A617047BE
:1032C00000ED00E0EFF30880EFF3098101B57246ED
:1032D000FFF70CFF01BD00BF0A4880F308881020EB
:1032E00080F3118808484FF40861401880F309887A
:1032F000EFF314800221084380F31488BFF36F8F2B
:1033000000F04CF880330020002700201EF0040F4E
:103310000CBFEFF30880EFF30980816911F8021CFC
:103320000229FFD001B57246FFF75CFD01BD00BF69
:1033300040B2002807DB044A4109012300F01F00C6
:10334000834042F82130704700E100E0013140B293
:1033500009010028C9B206DB00F1604000F56140B8
:1033600080F800137047034B00F00F0003441976F8
:10337000704700BFFCEC00E000210120FFF7D8BC43
:10338000044B054A23F07F039360BFF34F8FBFF3D5
:103390006F8F70470000000800ED00E008B5FFF7F0
:1033A000EFFF104B1049D3F8882022F47002C3F8C5
:1033B0008820D3F888204FF0404042F4A002C3F8A0
:1033C00088204863BFF34F8FBFF36F8F0023E1EE78
:1033D000103AFFF75DFCFFF771FC00F053F904F0C1
:1033E00041FA00BF00ED00E000EF00E030B4029CC5
:1033F0000E494FF47D45C0F8DC5042E90834039B88
:1034000042F8183C21F00101049B42F8081C42F8E4
:10341000143C4FF08074A2F12001002342F8044CC8
:1034200030BC0165C0F89430704700BF5D2C0008C7
:103430008389134A990711D490F8DD30DB060DD546
:10344000536B23F080435363D0F8DC301A0744BF3A
:1034500023F00803C0F8DC3080207047536B43F042
:1034600080435363D0F8DC3019075CBF43F0080396
:10347000C0F8DC30838943F00203838180207047E9
:1034800000EF00E00A4B9B68024673B112F1160F81
:10349000D3F8800005D0A0F180039A4205D3824280
:1034A00003D2814228BF002070470020704700BF30
:1034B000D80E0020114B9B6898421BD1EFF3058377
:1034C000C3B9EFF31181102282F31288BFF36F8F1B
:1034D000828922F002028281EFF3148222F0040238
:1034E00082F31488BFF36F8F81F31188BFF36F8F5E
:1034F000184670476FF01500704700BFD80E0020C7
:1035000008B515460E460022E1EE102AEFF31482AC
:1035100022F0040282F31488BFF36F8FBFF36F8F22
:103520000B4AD0F8903090600A4A136000F0DAF845
:103530002C4686F309880020034B9847204600213B
:1035400000220023014C2047593500085D2C00085B
:10355000D80E0020880C002061B662B680F3118876
:10356000BFF36F8F704700BF014B10221A61704785
:1035700000ED00E072B6002383F31188BFF36F8F74
:10358000BFF34F8F30BF62B6BFF36F8F704700BF7E
:10359000054B9A699B689A4204D0044A536843F0E9
:1035A00080535360704700BFD80E002000ED00E04C
:1035B0000A4B9B68834201D004F034BCEFF30583CF
:1035C000002BF9D0064B5A6842F080525A605A6A72
:1035D00022F400425A6204F025BC00BFD80E00203D
:1035E00000ED00E024498A6882F8DDE04FF0300009
:1035F0001044EFF3098C80E8F01F1EF0100F03D188
:1036000002F19C0080EC108A102080F31288BFF336
:103610006F8F1A4F4FF000668A698A603E60D2F859
:103620009000174C206092F9DDE0D2F8940000235E
:10363000C2F8943080F311881EF0100F03D00023DD
:10364000E1EE103A03E002F19C0090EC108AEFF3F7
:10365000148323F0040383F31488BFF36F8F04B53E
:10366000104600F03FF8BDE8044002F1300090E859
:10367000F01F8CF309887047D80E002004ED00E09D
:10368000880C0020044800231021C2180133472B66
:1036900082F80013F9D1704700E100E008B5EFF3BC
:1036A0000583064A103B02EBC30152F833004B6816
:1036B0009847BDE80840FFF76BBF00BF98C40008FB
:1036C0000148006870470000880C0020024B034A44
:1036D0000348012100F01CB8000002200000002077
:1036E00054D8000810B50446FFF7A2FED4F8803085
:1036F000054C064AA2601B1AC4E90030012120468D
:10370000BDE8104000F054B89808002000000B15E8
:103710002DE9F043244F3A781346A9B1234D01EB2C
:10372000410E061D002100F1080856F82140A4B3FF
:103730007F2C04F1FF3C06D950F8213044EA0309FC
:1037400019EA0C0F03D0EA233B70BDE8F083B4F113
:10375000004FD5F8904058F82190BCFA8CFCC4F387
:103760000724CCF11F0CD2B204F1FF3494BF4FEA0E
:103770004C0C4FF03E0CA24249EA0C0923F01F0307
:10378000E1D8134343F0100349F00104C5F8982031
:10379000C5F89C300132C5F8A04003317145C4D151
:1037A000D3B23B70BDE8F0831110002000ED00E0C3
:1037B0002DE9F041294B1A78D1B301EB410C284D8A
:1037C000002100F1040E00F108061EE0B7F1004FE1
:1037D0002CD85B00D5F89070C7F30727D2B2013F11
:1037E000BA4248EA030824F01F0434D8144344F0D2
:1037F000100448F00103C5F89820C5F89C40013238
:10380000C5F8A0300331614512D05EF821707B1EEF
:10381000B3FA83F3C3F11F03002FF3D0202F50F826
:10382000214056F82180D1D80823D3E73E23D1E7A1
:103830000B49D1F89030C3F307239A420BDA0020EA
:10384000C1F89820C1F8A000D1F890300132C3F33C
:1038500007239A42F4DBBDE8F08100BF111000207D
:1038600000ED00E02DE9F0439B489C49D0F89030F2
:103870000C68C3F307239C4283B000F22981BFF395
:103880005F8F0022C0F89420ACB14968C0F898203E
:103890000B6823F01F03134343F010030C31C0F8EF
:1038A0009C3051F8043C013243F00103A242C0F8BD
:1038B000A030EBD1D4B28A4F01A83C70FFF7C8F911
:1038C00097F800E0002800F001814FF00008019D0A
:1038D000844C814E7346C4463EE0B2F5001F00F0B2
:1038E0009E80B2F5800F00F08980B2F5801F2DD147
:1038F000D5E90112202A40F2C680B2F1004F00F251
:10390000DA8002F1FF39B9FA89F9774AC9F11F095A
:1039100042EA4902D6F89090C9F3072909F1FF3924
:103920004B4500F2CC8021F01F01194341F01001FA
:1039300042F0010203F10109C6F898304FF0010886
:10394000C6F89C105FFA89F3C6F8A0200CF1010CB0
:10395000604505F1100573D0EA682240B2F5000F0A
:103960001BD0BAD9B2F1007F38D0B2F1805F24D039
:10397000B2F1807FEAD1D5E90112202A40F28F808E
:10398000B2F1004F00F29980013AB2FA82F2C2F12C
:103990001F02520042F08872BCE7D5E90112202ACA
:1039A0007BD9B2F1004F7CD8013AB2FA82F2C2F16F
:1039B0001F02520042F08272ACE7D5E90112202AC0
:1039C00069D9B2F1004F72D802F1FF39B9FA89F919
:1039D000464AC9F11F0942EA49029BE7D5E90112AB
:1039E000202A56D9B2F1004F63D8013AB2FA82F2D6
:1039F000C2F11F02520042F480228BE7D5E9011286
:103A0000202A44D9B2F1004F4DD802F1FF39B9FA5A
:103A100089F9374AC9F11F0942EA49027AE7D5E92B
:103A20000112202A31D9B2F1004F3ED802F1FF39FC
:103A3000B9FA89F92F4AC9F11F0942EA490269E72F
:103A4000B8F1000F42D03B702349D1F89020C2F367
:103A5000072293420BDA0020C1F89830C1F8A00089
:103A6000D1F890200133C2F307229A42F4DC1A4BBA
:103A70000522C3F89420BFF34F8FBFF36F8F002050
:103A800003B0BDE8F0831C4A44E71C4A42E71C4AE5
:103A900040E71C4A3EE71C4A3CE71C4A3AE71C4AFE
:103AA00038E71C4A36E71C4A34E71C4A32E71C4A0E
:103AB00030E71C4A2EE71C4A2CE71C4A2AE7B8F1DB
:103AC000000F00D03B706FF01500D9E77346BBE7DD
:103AD0004FF0FF30D4E700BF00ED00E060D80008F1
:103AE000111000200000F0FF00000B110000021177
:103AF000000002060000081108000B110800081160
:103B00000800020608000400080002110800040171
:103B1000080010013E0004013E0002063E000811AC
:103B20003E0002113E0004003E000B113E00100159
:103B300008B5024B1B689847002008BD8C0C00207C
:103B4000034A04499378086043F002039370704776
:103B50001C0100208C0C002008B50649064821F005
:103B60000701C1F1005202F50032FEF713FF0020F9
:103B700008BD00BF4B3C0020900C002010B5094B45
:103B8000094C93E8030082B0CDE90001A2681268F5
:103B900022B169462046904702B010BD6FF0570031
:103BA000FAE700BF68CD000868C200081F2808D8DF
:103BB000054A01235269834093430CBF0120002032
:103BC00070470020704700BF003C014000F01F021A
:103BD0001F284FF0010303FA02F39DBF024A0020A1
:103BE00053616FF015007047003C014010B5002292
:103BF0001A4C062011462070FFF7A8FB0022072070
:103C000011466070FFF7A2FB002208201146A07049
:103C1000FFF79CFB002209201146E070FFF796FB9E
:103C200000220A2011462071FFF790FB0022172086
:103C30004FF017331146C4F805306072FFF786FB6A
:103C400000224FF0283042F62803C4F80A0011463B
:103C50002820E381FFF77AFB002010BD2C01002013
:103C600043784BB32DE9F041144F064600254FF041
:103C7000010804E072780135EBB29A421AD934781F
:103C80002C442046FFF792FF0028F3D02046FFF790
:103C90009DFF57F8343007EBC40204F01F0408FA04
:103CA00004F0002BE6D05168984701357278EBB2EA
:103CB0009A42E4D8BDE8F081704700BF9C0C002018
:103CC00001F01F0101208840704700BF10B4034677
:103CD00070B1B0FA80F2C2F11F02D2B205490648B3
:103CE0000C68805623430B605DF8044BFFF720BB44
:103CF000FF22F3E7003C01402C010020024A136838
:103D000023EA000313607047003C014003290AD8EE
:103D1000DFE801F01C130A02114B9A6802439A6013
:103D2000DA681043D86070470D4BDA680243DA60F6
:103D30009A6822EA00029A607047094B9A68024327
:103D40009A60DA6822EA0002DA607047044B9A68E7
:103D500022EA00029A60DA6822EA0002DA6070471A
:103D6000003C014030B4C0B1B0FA80F3C3F11F038E
:103D7000DBB20C4850F833408C4208D07CB900EBE1
:103D8000C30440F833106260002030BC704700EB81
:103D9000C3056D689542F1D1F6E7FF23E9E76FF0BF
:103DA0000F00F2E79C0C002060B1B0FA80F3C3F181
:103DB0001F03DBB2044901EBC300002241F83320AA
:103DC00042607047FF23F5E79C0C002000F00302DF
:103DD000043292000F23934043EA9000C3B210B420
:103DE0009B0003F1804303F59C33020C9C6892FA1C
:103DF000A2F224EA10401AB1B2FA82F291400843CA
:103E000098605DF8044B704700F0030204329200A2
:103E10000F23934043EA9003DAB207490232180CA9
:103E200051F8222090FAA0F002EA134218B1B0FA39
:103E300080F022FA00F0704700380140A0F108033A
:103E4000BFF35B8F53E8002F511C43E8001CBCF10B
:103E5000000FF7D1BFF35B8F52B9D0E92232C0F81F
:103E600090205B681A68936843F0804393607047C2
:103E70006FF00F038365704708B5002212201146CA
:103E8000FFF764FABDE808401220FFF751BA00BFFF
:103E9000334B1A68910644BF6FF020021A60304B12
:103EA0001A68920713D510B52E4CDA6CD4F89430FA
:103EB000991CC4F894101A8094F8A53094F8A420A2
:103EC0000133DBB29A4284F8A53001D010BD7047AF
:103ED000636E002284F8A520B3B1E36F4BB1B4F850
:103EE0008820214804F164019847012815D0022850
:103EF00005D0B4F88830B4F884209A421ED8A36F55
:103F000013B11A4804F05AFE4FF6FF73A4F8A63016
:103F10001748BDE8104003F017BED4F89830C4F835
:103F20009430A36F73B9D4E92432C4F898205B6845
:103F30001A68936843F08043936010BD0133A4F87E
:103F40008830EEE7BFF35B8F54E8003F5A1E44E829
:103F500000210029F8D1BFF35B8F012BE3DC10BDFA
:103F600000200140000000200CC4000808000020D0
:103F70005000002070B4466896F84530DA0602D446
:103F80000B799B061BD40B78092B18D14B78042B8B
:103F900015D14C88BCB143F6FF739C425DD0A30B96
:103FA000032B0CD12F4D06F12E00002230F8023FDA
:103FB0002B439BB29C4207D00132082AF6D16FF006
:103FC000150070BC7047224696F9413033B1013B71
:103FD000DBB2012BF3D8002070BC70470B7903F0E3
:103FE0001F03092B03EB430130D91E3943EA015368
:103FF00003F0007530684FF0007114460C3091FAF0
:10400000A1F121B1B1FA81F1CD4000EB85004FF073
:10401000F871056891FAA1F103F0F873F9B1B1FAFA
:1040200081F123FA01F1072606FA01F1C9430D4097
:104030004FF0F87191FAA1F121B1B1FA81F1CB40C1
:1040400002FA03F42C4304600020C5E743EA01535D
:1040500043F000734FF00075CCE70722B4E76FF030
:104060000701E4E700C0FFFF2DE9F04F036987B0C7
:1040700082460F4603F140094FF0FF324FF0FF3305
:10408000484603F097FDDAF80430DAF81040D3F828
:104090000080BB68C4F894307D68C4F8A0502846FE
:1040A000FCF755FD002284F8A40084F8A52097F8B9
:1040B00010C084F89CC0002D00F0FD80102800F393
:1040C000FA80DAF8045095F940002E6890420ADD33
:1040D000AB6A013B03E00132824200F0EC8013F84E
:1040E000011F6145F7D1824200F0E580EB6A53F889
:1040F0002210736803F040738B424FEA820240F053
:10410000C280DAF81030D3F8A000002856D04FF45F
:10411000407393FAA3F30293B3FA83F3CDE90494C3
:104120004FF0000C03934FF0010E03E098430CF1A5
:10413000010C41D090FAA0F3B3FA83F303EB4302EE
:10414000092B43EA025198BF41F0007295F94210E1
:1041500084BF1E3A43EA025201290EFA03F3E5D165
:1041600080495FFA8CFB1F2451F82B1002F01F02CC
:1041700001F01F0902FA09F204FA09F9029C06F19A
:104180002C0A01F440711CB1039CE1400AEB810A46
:10419000754951F82BB0DAF8001021EA09011143F2
:1041A000CAF80010F26A22F4700242EA0B02984345
:1041B000F2620CF1010CBDD1DDE90494736843F4A3
:1041C0008073736094F8A4303A685B0012B19289EE
:1041D00002FB0333FA689A42C0F0C0807B7C002B5C
:1041E00040F0B980BB7C002B40F0B580D8F8083097
:1041F000DB0705D4D8F8083043F00103C8F80830CD
:104200006FF02003C8F80030D8F8083043F480631A
:10421000C8F80830D8F8043043F02003C8F8043058
:104220003E460FCE04F164050FC54FF0000C336815
:104230002B60C4F860C03B684BB10FCB04F178052C
:1042400085E80F006566A4F888C000284DD1D4E940
:104250002432C4F898205B681A68936843F080435E
:1042600093604FF0FF324FF0FF3304F1500003F042
:10427000A1FC054640BB256E484603F065FC284678
:1042800007B0BDE8F08FB368DB070BD53368D806FD
:1042900022D4B36823F00103B360B368D907FCD418
:1042A000EB6A9958736823F040730B437360DAF834
:1042B00004502E6825E76FF01505484603F044FCCE
:1042C000284607B0BDE8F08F2066484603F03CFC66
:1042D000284607B0BDE8F08F6FF00F05484603F0A1
:1042E00033FC284607B0BDE8F08FBFF35B8F54E87E
:1042F000003F44E800C2002AF9D1BFF35B8FA36FEF
:1043000063334CF1000C190DC3F3130241EA0C3175
:104310001144164AA2FB0102D20802EB820202EB10
:1043200082028A1A9B1A124A12496CF1000C03FB92
:1043300002F201FB0C22A3FB01310A449B0843EA71
:1043400082739208CDE9003204F1080000220023B4
:1043500004F0FEFB85E76FF08505AEE76FF00B0517
:10436000ABE700BF4CD900080CD900081F85EB5102
:10437000F5285C8F295C8FC22DE9F043DFF8D090DF
:1043800046680569D9F8088034684FF6FF7383B032
:10439000A5F8A630C5F89000D8F800304768E3B11A
:1043A00007F1080148469847B8B997F84530DA0749
:1043B0000AD5D8F8183007F1100173B10246484603
:1043C000984750B997F84530980729D41F4A396A59
:1043D000536823F440330B435360706A01AA0021F1
:1043E00001F0EEFE002827DB019B002219791868F6
:1043F00001F012FF00281FDB736803B19847A36820
:10440000DA0707D52368A36823F00103A360A36834
:10441000DB07FCD4AB6CA3B1002003B0BDE8F08394
:10442000D8F8183007F11801002BD6D00848002220
:1044300098470028CAD0D0E7811CDDD003B0BDE882
:10444000F08305F1400003F07FFBE5E70023014026
:1044500068C200082DE9F04F1F465B889346BA8872
:10446000013389B01344FA88BDF84CA005919C181B
:10447000129B002B00F02A81BAF57A7F80F026810A
:10448000836807A99B6A9847002840F02381BAF106
:10449000000F00F0D680129B3A89DDF81C80019253
:1044A00003FB04F1BBF80830B8FBF1F1994238BFC7
:1044B0001946914200F3F280129B03FB01F06FF06A
:1044C000004304934BE0B7F806C0AC4528BFAC46A8
:1044D0000EF1FF35A5EB0C05ADB2AA4265D2AEEBED
:1044E000020CFD880CF1FF3C1FFA8CFC654530D3B3
:1044F000B6EB520F4FEA520503D2039EAE4228BFDD
:104500002E46951BADB2AB425DD3029BAB425AD84F
:104510002B464FF47A7502FB0552B2FBF4F292453A
:104520005BD2B2EB0A0214D4049CA24211DA0492C8
:104530000022144666F30F0263F31F426CF30F046C
:10454000059B61F31F44C3F80220C3F806403B8972
:104550000193129B1844019B01318B425ADBB8FB3B
:10456000F0F400FB1483002BF3D15C4ABBF80690F7
:10457000BBF80460029604FB0AF3A2FB03351FFAA2
:1045800084FE7A88BB880392AEEB9515ADB29A187B
:104590004D45BBF8026092B295D8CC460EF1FF357E
:1045A000A5EB0C05ADB2AA4299D3029A324492B25D
:1045B000AA422DD9AEEB020E0EF1FF3E1FFA8EFC81
:1045C000E14595D9C5E74FF47A75D61A02FB055235
:1045D000B2FBF4F29245B6B2A3D3BAEB0202B8D45E
:1045E000049C9442B5DD002425466CF30F0566F368
:1045F0000F04059E63F31F4461F31F45C6F8024094
:10460000C6F80650002A32D03B8904920193A0E7F5
:104610002A466DE70599CB888A885B08934228BFB4
:1046200013460B80BBF80020934218D805990A80E6
:10463000049A6FF000439A4241D0049809B0BDE853
:10464000F08F274B129A9A420ED8264A129940F2BE
:104650006B33914294BF9A464FF4487A1BE73A88ED
:104660009A4228BF1A46E1E740F2EE2A13E74FEAE2
:104670005C0C9C45059A28BF9C46A2F800C0BBF87C
:104680000030634507D23B88634528BF63461380EB
:1046900000230493D1E7059A1380F9E70599CB88A5
:1046A0008A885B08934228BF13460B80BBF8002022
:1046B000934208D93A88934228BF13460B806FF083
:1046C00085030493B9E7059B1A80F8E76FF015039B
:1046D0000493B2E76FF004030493AEE7D34D621086
:1046E00000350C0020A107001046116103F02CBA20
:1046F0002DE9F04106468AB0DDE91050D6F8088071
:10470000002936D017464A790C46D20758BF1A49B5
:10471000226848BF4FF0604111422AD15DB1CDE916
:104720001050D8F814503A4621463046AC460AB0EC
:10473000BDE8F04160470393294605AD01222846B4
:1047400003F0F6F921460D4C01950094039BD8F82F
:1047500014403A463046A04710B10AB0BDE8F08197
:104760004FF0FF324FF0FF33284603F023FA099849
:10477000F3E76FF01500F0E700F8FFFFE9460008E7
:1047800070B5144682B01E468268074D8368AC42FD
:1047900007D8CDE9004630323A33FFF75BFE02B06E
:1047A00070BD6FF01500FAE740420F0030B5826827
:1047B000B1F800C0148E836864452BD85C8F6445C3
:1047C00028D34C88B2F832E0A64523D8B3F83CE0B1
:1047D000A6451FD3B1F804E0948E74451AD8DC8F37
:1047E000744517D3CC88D58EA54213D8B3F8405062
:1047F000A5420FD3158F0A8995420BD8B3F84250C2
:10480000954207D3F44505D8A44503D8BDE8304008
:104810001B6918476FF0850030BD00BF43685B69B6
:1048200021B10069007950B9042008702AB1996952
:10483000090C11709B691B0E53700020704798691A
:10484000400705D49869800705D502200870EDE778
:1048500003200870EAE7986910F0010018BF0120F2
:104860000870E3E70B230B600020704738B5074D55
:104870004368AA68D46834B10A46284603F11C018B
:10488000A04700B938BD6FF0040038BD68C2000809
:1048900000290CBF0E200720704700BF4368006945
:1048A0005B69C0E902125A6919B142F4E0625A61C7
:1048B000704722F4E0625A61704700BF2DE9F04171
:1048C000436806695D69884606F110044FF0FF32BF
:1048D0004FF0FF33204603F05DF836793EBBB8F861
:1048E0000830B8F80000EF69B8F80410DFF84CC0E1
:1048F000B8F80620013B013807EA0C0CC3F30903A2
:104900000006013900F0407043EA0C030904013A43
:1049100001F470210343120502F4E0020B43134338
:10492000EB61204603F0AEF83046BDE8F08120464A
:1049300003F0A8F86FF00F00F7E700BF00FC80FC61
:10494000F8B5436806695D6931F00B032CD1337902
:104950003BBB0C4606F110074FF0FF324FF0FF3320
:10496000384603F017F8EB69E0074CBF43F080438B
:1049700023F08043EB61EB69A1074CBF43F0004398
:1049800023F00043EB612B6822074CBF43F0100378
:1049900023F010032B603460384603F073F80020D6
:1049A000F8BD6FF00F00F8BD6FF08500F8BD00BFD7
:1049B0002DE9F04788461F4698F804304168D0F842
:1049C00010904D69082B00F2868098F80530032B73
:1049D00000F2848099F80430002B00F08280AB69EB
:1049E000580775D4164609F110044FF0FF322046DF
:1049F0004FF0FF3302F0CEFFA86810F0E05F1BD14C
:104A000009F1240A0AE04FF0FF324FF0FF3320464D
:104A100002F0C0FFA86810F0E05F0DD1204603F05F
:104A200031F832463B46504603F0C4F80028EAD03D
:104A30006FF00A00BDE8F087410133D505F5C07578
:104A400009F13409089BC9F80030099BC9F8043002
:104A50002B6803F001032B6098F80530D8F800208C
:104A600013F0010F2B681ABF43EAC20343F004039B
:104A700043EA42532B6098F805309B071CD52B68FE
:104A800043F002032B6098F8043003F00F036B60CF
:104A90002B6843F001032B60204602F0F3FF002057
:104AA000BDE8F08702010ED410F080501CD005F54F
:104AB000D07509F14409C5E7D8F80830AB60D8F8DB
:104AC0000C30EB60DFE705F5C87509F13C09B9E783
:104AD0006FF07100AEE76FF01500ABE76FF0850087
:104AE000A8E76FF07200A5E7089B03600368099BC5
:104AF0004360FFDE2DE9F843D0F804800669D8F85A
:104B0000145006F110074FF0FF334FF0FF323846D4
:104B100002F040FF337923BBD8F8000028B1836846
:104B200031681B6898470446A8B92B68DFF84C9099
:104B300023F001032B6002F0FDFC044604E002F0C8
:104B4000F9FC001B48450FD86B6813F00103F6D140
:104B5000012232711C46384602F094FF2046BDE81F
:104B6000F8836FF07704F6E7D8F8000010B1836897
:104B70005B6898476FF00404EDE700BF00F915008B
:104B8000002210B5114604461420FEF7DFFB142066
:104B9000FEF7CEFB002211461320FEF7D7FB1320B1
:104BA000FEF7C6FB002211461620FEF7CFFB1620AB
:104BB000FEF7BEFB636943F4044343F013036361F0
:104BC00010BD00BF2DE9F0474368D0F810805C6944
:104BD000E368990784B03BD00026074635464FF07E
:104BE0000109CDE90155D4F8B431D4F8B0210395C9
:104BF00012F0040FD4F8B021D4F8B0111ABF8DF818
:104C00000590D208520D00928A07C3F3072323D5DB
:104C10009DF8052042F002028DF80520D4F8B42159
:104C2000062B02F00F028DF8042023D808EB830333
:104C3000D3F88460D3F8D8A01EB1524669463846EE
:104C4000B047E36843F02003E360E3689B07C8D103
:104C5000E36804B0BDE8F087D4F8B811D4F8BC21FB
:104C6000CDE90212D4F8B421062B02F00F028DF820
:104C70000420DBD9222BDFD808EB83031E6BD3F88B
:104C800084A0D9E7F8B5436807695C69A569A3689A
:104C900005F0040503F001032B4306460ED0A3687C
:104CA000980767D50021A36843F00103A3607B6BDD
:104CB00023B1BA6B3046984700237B63A36803F4A3
:104CC00080732B430AD1A36803F480332B431AD19A
:104CD000A36813F0E05F2AD1F8BDA368A368980524
:104CE00038D50021A36843F48073A360FB6B002BCD
:104CF000E9D03A6C304698470023FB63A36803F47D
:104D000080332B43E4D0A368980316D50021A36811
:104D100043F48033A3607B6C002BD9D0BA6C30464F
:104D2000984700237B64A36813F0E05FD4D007F1B9
:104D30002400BDE8F84002F007BFA3681A0330D48E
:104D4000A3685B0336D4002D14BF6FF071016FF0C0
:104D50000401DCE7A3681A0520D4A3685B0526D408
:104D6000E5B1A36843F48073A360FB6B2BB36FF0D2
:104D70007101BEE7A3681A070DD4A3685B0713D4BB
:104D80004DB1A36843F00103A3607B6B002BA4D05B
:104D90006FF071018DE76FF0040184E76FF004019B
:104DA000A0E76FF00401B2E76FF00F017BE76FF04F
:104DB0000F0197E76FF00F01A9E7A368A3E700BF12
:104DC000FFF760BF2DE9F04143685D696B685B07E1
:104DD00082B002D402B0BDE8F0810446FFF752FF72
:104DE00026690DF1030101AA2046D6E90278FFF7F2
:104DF00015FD9DF8031096F8F4308B4206D086F826
:104E0000F4101FB1019A43462046B8476B6843F03F
:104E100004036B6002B0BDE8F08100BF2DE9F043F0
:104E200085B0456807696C694FF00008CDE90188D5
:104E30000646ADF80C80584802F0A4FD07F11000BA
:104E400002F0A0FD0122414607F1240002F070FEAD
:104E5000286828B102F05CFC6FF0120800285DD0D1
:104E60004E4883681B6805F11C01002B00F09180FF
:104E700098478146002840F08C80A86A6A464946D7
:104E800001F09EF9B0F1000848DB009B4A46197911
:104E9000186801F0C1F9B0F100083FDB2368DFF8C2
:104EA000009143F00103236002F044FB804605E0DB
:104EB00002F040FBA0EB08034B454BD86368DA07D0
:104EC000F6D52368DFF8D89023F00203236002F0C0
:104ED00031FB804605E002F02DFBA0EB08034B45BB
:104EE0003CD863689B07F6D4D5E9053293423BD0A2
:104EF000236823F0FC032360236843F0400323600E
:104F0000EA682B8A01A93046FFF73AFC163040D0F8
:104F100001A93046FFF74AFC804618B1404605B06B
:104F2000BDE8F08301463046FFF70AFD80460028C1
:104F3000F4D107F1F40142463046FFF76FFC6B6A8B
:104F4000204698476369404643F00103636105B01A
:104F5000BDE8F083236823F0010323606FF00A08A3
:104F6000404605B0BDE8F083D3F8002242F00102CC
:104F7000C3F80022AA69D2F80C3243F07F03C2F8CA
:104F80000C32AA69D2F8003223F00103C2F80032D1
:104F9000AEE76FF00408C1E7140E002068C20008F5
:104FA00000F915002DE9F8431D461B7A0669012B0F
:104FB00000F28A800446884617464FF0FF324FF0D1
:104FC000FF33434802F0E6FC06F110094FF0FF32D0
:104FD0004FF0FF33484602F0DDFC6168287A236910
:104FE000D1E905128A4214BF0E21002110F0010000
:104FF00013D08033002453F8040F00285AD0013412
:10500000072CF8D16FF01B04484602F03BFD3048F6
:1050100002F038FD2046BDE8F883483353F8044FCA
:1050200034B101300E28EDD053F8044F002CF8D1E4
:105030006B685B0143F0180C2B68073101EB6001D2
:10504000C41D5B01D2F8000240F00100C2F800026A
:10505000287AC00720D502EBC100C0F84032C0F862
:1050600044C2D2F81C0201238B400343C2F81C3215
:10507000D2F8003223F00103C2F800322B7A06EB9B
:105080008406DB0747BFC6F88480C6F8D870C6F828
:105090003080C6F88470B7E701F1480014F0010FC2
:1050A00008BF02EBC00043EA0C4314BF42F83030A3
:1050B0004360D6E72B686868DB00C000214443F0FA
:1050C000040340F0060CBDE76FF08504A2E700BFC3
:1050D000140E0020222900D970472DE9F041D0F8A4
:1050E00004800569D8F818600C464FF0FF324FF085
:1050F000FF333B4802F04EFC05F110074FF0FF3242
:105100004FF0FF33384602F045FCD8E905329342B0
:1051100014BF0E230023062C05EB84052ADC002295
:10512000C5F88420C5F8D820D6F80012234441F0F1
:105130000101C6F8001206EBC301C1F840224FF08E
:10514000FF32C1F84422D6F81C22012101FA03F3F0
:1051500022EA0303C6F81C32D6F8003223F001031A
:10516000C6F80032384602F08DFC1D48BDE8F0411B
:1051700002F088BC0022073C07332A63C5F884206C
:10518000E20703EB64030DD40C2C1ADDD6F80012F1
:1051900003F1480241F00101C6F80012114946F836
:1051A0003210D0E7D6F80022E96A0E4842F0010238
:1051B000C6F8002206EBC302C2F844020029CBD194
:1051C000C1E7D6F80022696B064842F00102C6F832
:1051D000002203F1480246F832000029BCD1B2E7B0
:1051E000140E00200000FFFF2DE9F047D0F804A0C6
:1051F0000669DAF81440804606F110094FF0FF33D3
:1052000048464FF0FF3202F0C5FB3379002B4DD0FA
:105210002368284F43F00103236002F08BF9054611
:1052200004E002F087F9401BB84233D86368DB071B
:10523000F7D5736B33B1B26B6FF07201404698478C
:1052400000237363F36B33B1326C6FF0720140462D
:1052500098470023F363736C33B1B26C40466FF030
:105260007201984700237364A36843F0801343F4EA
:105270000043A360DAF8000020B183685B689847B8
:10528000054608B900253571484602F0FBFB284663
:10529000BDE8F087236823F001036FF00405236065
:1052A000484602F0EFFB2846BDE8F0876FF077052F
:1052B000EAE700BF00F915000B88C3F30B0303F501
:1052C0007D62C2F30B02782A18D810B403F1804330
:1052D00003F50E334C681A68224383B01A600B88BA
:1052E000C3F30B0303F1804303F50E3300201B6867
:1052F0000193019B03B05DF8044B70476FF085008C
:10530000704700BF0B88C3F30B0303F57D62C2F344
:105310000B02782A0AD803F1804303F50E3349685B
:105320001A6822EA010200201A6070476FF08500B7
:10533000704700BF0A884B68C2F30B02162A99B265
:10534000C3F3044C1CD8104820FA02F2D20717D538
:10535000FF2B13D0C3F3415001F1804101F50E3111
:10536000013001228240013A086802FA0CF21B0E59
:1053700020EA020203FA0CF313430B60002070478B
:105380006FF08500704700BFE20060000B88C3F338
:105390000B0303F57D62C2F30B02782A0AD803F1EE
:1053A000804303F50E334A681B689A430CBF022002
:1053B00001207047162B05D80348D84000F00100A3
:1053C0000130704701207047E200600038B50C469C
:1053D0002E4923880868C3F30B03442B154628D8AD
:1053E0004BB3013B8208432B25D8DFE803F02E4A5C
:1053F0004A4A48273B2424242424242424242424E3
:105400002424462E24242424242424242424242430
:10541000242424242424242424242424242E242442
:10542000242E2424242E242424242424244C242400
:10543000242DA82B09D06FF0850038BD00F0C4F8EA
:10544000800800EBC0000001400828602368B3F525
:10545000805F05D3C3F313330133B0FBF3F028604F
:10546000002038BD00F0B0F88008094B00EBC00008
:105470000001A3FB00308008E7E75000E5E705489E
:10548000E3E70020E1E71046DFE700BFD40100209A
:10549000ABAAAAAA00127A00704700BF70B5454DAA
:1054A00000F0B2F82846FFF7F7FF02F07FF8424B12
:1054B000424A9B681178C3F303130D41D35C20FA71
:1054C00003F6AE4255D33C4A136823F4802313609D
:1054D000136843F48033136013689B03FCD593680F
:1054E00003F00C03082B4CD0334C236823F080735B
:1054F000236023689A01FCD4314AD2F8043823F49B
:105500004033C2F80438D2F8043823F0706343F013
:10551000C063C2F8043800F05BF82368264A43F001
:105520008073236013689B01FCD59368224923F0A4
:10553000F0039360936823F0030343F00203936046
:105540008B6803F00C03082BFAD1AE4215D21D4B29
:10555000194A18491960936823F4E05343F4A0539F
:105560009360936823F4604343F400439360002006
:1055700070BD284602F04EF8A5E7284602F04AF82A
:10558000E5E713689C0707D413680B4943F0010350
:1055900013600B689807FCD5074A936823F0030350
:1055A0009360936813F00C0FFBD1936823F0F00322
:1055B000936099E7004495080038024090DB0008AA
:1055C00000300240D40100200048704700127A00E9
:1055D000084B09495868094A01400A435A605A6809
:1055E000074922F440325A605868064A01400A438B
:1055F0005A607047003802400080BFFF042440001A
:105600000080BFF004244006064B1A6C42F0805222
:1056100082B01A641B6C03F080530193019B02B0AB
:10562000704700BF003802400A2838B5044607D04A
:10563000074DAB6806485B68E1B29847204638BD25
:10564000034DAB680D215B6828469847F1E700BF22
:10565000F0C3000808B5074802F05AF838B1064808
:10566000FEF76EFA0448FDF7DDF9002008BD6FF083
:10567000120008BDF0C300082956000843685B68A3
:105680001B690B600020704710B443685B685C695D
:1056900062400A4062405A6100205DF8044B704746
:1056A00043685B6800209961704700BF43685B688E
:1056B000090400209961704743685B685A6951404A
:1056C00000205961704700BF70B40569AE684EB1E3
:1056D0003346002400E003468B420BD018681C467A
:1056E0000028F8D1FAB10E60EB68A9609BB10020E8
:1056F00070BC70470B6884B12360EB68994208BFA7
:10570000EC6000230B60002AF1D0AE680E60EB68FD
:10571000A960002BEBD1E960E9E7E868AB60814262
:10572000EFD1EB60EDE76FF01500E1E72DE9F8430D
:10573000D0F8049016460746D9F8080088461C465B
:10574000FEF7BEFAB6F5001F2AD0B6F5800F3FD09F
:10575000B4F1806F054621D0B4F1C06F18D0B4F118
:10576000007F17D102241C493A462846FEF7FAFA70
:1057700058BBD9F808104046FEF728FB28462146BA
:10578000FEF7C4FA2846FEF7A1FA0020BDE8F88328
:105790000324E8E76FF01500BDE8F8830124E2E791
:1057A0004046D9F80840FEF72FFB8442EDD1414630
:1057B000FEF786FA0446FEF7A1FA2046FEF7F4FA51
:1057C00000212046FEF7A2FADFE76FF00F00DDE7C9
:1057D0006FF08500DAE700BF9158000870B51346F6
:1057E0000C4613F40031056902F030022AD09E07FE
:1057F00047D5590748D54FF420411E0301D541F440
:105800008011102A3AD0202A08BF41F40021DA0181
:1058100002F4403213F4403F42EA01021AD06E68AB
:1058200026FA04F1C90703D40121A140314369607C
:1058300003F44023003B18BF01232146FDF744F940
:10584000002070BDDE03DCD4F2B9DA0102F440328C
:1058500042F4C04203F44023003B18BF0123214619
:10586000FDF732F96B6823FA04F2D007E8D501227C
:10587000A24023EA02036B600020E2E741F48021AA
:10588000C5E74FF40051B8E76FF0850070BD00BF69
:105890000B699B687BB170B51C680E4605469A681B
:1058A0002A401946304601D05B68984714B1234618
:1058B0002468F4E770BD7047036993F850201AB16B
:1058C0001B6A0B60002070476FF00400704700BF38
:1058D000F0B543680569DE685A6883B004461F481E
:1058E000002301938368DB68002B33D00F461146F9
:1058F00001AA984700282DDB2F6205F110074FF011
:10590000FF324FF0FF33384602F054F9336823F08A
:1059100001033360626895F85230D168226982F8D9
:10592000523093B12046019900F02CFB95F851308C
:1059300004462BB9384602F007F9204603B0F0BD03
:10594000336843F001033360F4E70B6823F01A0374
:105950000B60E7E76FF00404EFE700BF68C20008E0
:105960002DE9F04398460B7A43F0040383B00746D1
:10597000144600690B72002A45D00D460122531CC3
:105980009442DAB20AD90B7A0E7D83EA060C1CF037
:10599000010F01D0760730D59B072ED4944201F138
:1059A0000C01ECD200F110094FF0FF3248464FF0E5
:1059B000FF3302F0FFF80BE095E80E00CDE9006838
:1059C00000F04EFB061E04F1FF340FDB0C35E4B291
:1059D000012C05F114063846EED1002095E80E00A2
:1059E000CDE90008384600F03BFB0646484602F089
:1059F000ABF8304603B0BDE8F0836FF015063046D3
:105A000003B0BDE8F08300F110094FF0FF324FF012
:105A1000FF33484602F0CEF82646E7E770B5044665
:105A2000466805694FF0FF320021284602F080F8F1
:105A3000336820469847002385F8503085F8523067
:105A40000122114605F1100002F072F8204600F024
:105A50005DF8144B3169994220D014D9124B994208
:105A60001AD003F5C31303F52063994214BF102124
:105A70001A212046FFF72CFF002803DB012385F8BD
:105A80005030002070BD094B994209D0084B994213
:105A900014BF10211421ECE71821EAE71621E8E7EA
:105AA0001221E6E740420F0040E13300A0860100EA
:105AB000801A060008B5002211461F20FDF746FC9B
:105AC0001F20FDF735FC002220201146FDF73EFC8B
:105AD000BDE808402020FDF72BBC00BF08B5002220
