:020000040800F2
:10000000802C0020352C000849270008212C0008EE
:10001000212C0008212C0008212C000800000000E1
:10002000000000000000000000000000692C000833
:10003000212C000800000000412F0008216D00085D
:10004000F92F0008F92F0008F92F0008F92F0008F0
:10005000F92F0008F92F0008F92F0008F92F0008E0
:10006000F92F0008F92F0008F92F0008F92F0008D0
:10007000F92F0008F92F0008F92F0008F92F0008C0
:10008000F92F0008F92F0008F92F0008F92F0008B0
:10009000F92F0008F92F0008F92F0008F92F0008A0
:1000A000F92F0008F92F0008F92F0008F92F000890
:1000B000F92F0008F92F0008F92F0008F92F000880
:1000C000F92F0008F92F0008F92F0008F92F000870
:1000D000F92F0008F92F0008F92F0008F92F000860
:1000E000F92F0008F92F0008F92F0008F92F000850
:1000F000F92F0008F92F0008F92F0008F92F000840
:10010000F92F0008F92F0008F92F0008F92F00082F
:10011000F92F0008F92F0008F92F0008F92F00081F
:10012000F92F0008F92F0008F92F0008F92F00080F
:10013000F92F0008F92F0008F92F0008F92F0008FF
:10014000F92F0008F92F0008F92F0008F92F0008EF
:0C015000F92F0008F92F0008F92F000813
:10016000844641EA000313F003036DD1403A41D3C2
:1001700051F8043B40F8043B51F8043B40F8043B81
:1001800051F8043B40F8043B51F8043B40F8043B71
:1001900051F8043B40F8043B51F8043B40F8043B61
:1001A00051F8043B40F8043B51F8043B40F8043B51
:1001B00051F8043B40F8043B51F8043B40F8043B41
:1001C00051F8043B40F8043B51F8043B40F8043B31
:1001D00051F8043B40F8043B51F8043B40F8043B21
:1001E00051F8043B40F8043B51F8043B40F8043B11
:1001F000403ABDD2303211D351F8043B40F8043BB1
:1002000051F8043B40F8043B51F8043B40F8043BF0
:1002100051F8043B40F8043B103AEDD20C3205D3C0
:1002200051F8043B40F8043B043AF9D2043208D0B8
:10023000D2071CBF11F8013B00F8013B01D30B882A
:1002400003806046704700BF082A13D38B078DD008
:1002500010F003038AD0C3F10403D21ADB071CBFDA
:1002600011F8013B00F8013B80D331F8023B20F844
:10027000023B7BE7043AD9D3013A11F8013B00F87D
:10028000013BF9D20B7803704B7843708B78837005
:100290006046704781F0004102E000BF83F00043F8
:1002A00030B54FEA41044FEA430594EA050F08BF11
:1002B00090EA020F1FBF54EA000C55EA020C7FEAD5
:1002C000645C7FEA655C00F0E2804FEA5454D4EB52
:1002D0005555B8BF6D420CDD2C4480EA020281EA1C
:1002E000030382EA000083EA010180EA020281EA54
:1002F0000303362D88BF30BD11F0004F4FEA0131A6
:100300004FF4801C4CEA113102D0404261EB4101B4
:1003100013F0004F4FEA03334CEA133302D052423A
:1003200063EB430394EA050F00F0A780A4F10104F6
:10033000D5F1200E0DDB02FA0EFC22FA05F2801830
:1003400041F1000103FA0EF2801843FA05F3594116
:100350000EE0A5F120050EF1200E012A03FA0EFC95
:1003600028BF4CF0020C43FA05F3C01851EBE371BF
:1003700001F0004507D54FF0000EDCF1000C7EEBDC
:1003800000006EEB0101B1F5801F1BD3B1F5001F1A
:100390000CD349085FEA30004FEA3C0C04F1010439
:1003A0004FEA445212F5800F80F09A80BCF1004F62
:1003B00008BF5FEA500C50F1000041EB045141EAE4
:1003C000050130BD5FEA4C0C404141EB0101013CAD
:1003D00028BFB1F5801FE9D291F0000F04BF01469C
:1003E0000020B1FA81F308BF2033A3F10B03B3F16E
:1003F00020020CDA0C3208DD02F1140CC2F10C02FE
:1004000001FA0CF021FA02F10CE002F11402D8BF5B
:10041000C2F1200C01FA02F120FA0CFCDCBF41EA27
:100420000C019040E41AA2BF01EB0451294330BDF6
:100430006FEA04041F3C1CDA0C340EDC04F11404D3
:10044000C4F1200220FA04F001FA02F340EA0300AA
:1004500021FA04F345EA030130BDC4F10C04C4F1F0
:10046000200220FA02F001FA04F340EA03002946D0
:1004700030BD21FA04F0294630BD94F0000F83F41A
:10048000801306BF81F480110134013D4EE77FEAFD
:10049000645C18BF7FEA655C29D094EA050F08BF49
:1004A00090EA020F05D054EA000C04BF194610462A
:1004B00030BD91EA030F1EBF0021002030BD5FEA6E
:1004C000545C05D14000494128BF41F0004130BD96
:1004D00014F580043CBF01F5801130BD01F00045EA
:1004E00045F0FE4141F470014FF0000030BD7FEA5D
:1004F000645C1ABF194610467FEA655C1CBF0B4658
:10050000024650EA013406BF52EA033591EA030F6E
:1005100041F4002130BD00BF90F0000F04BF002166
:10052000704730B54FF4806404F132044FF0000599
:100530004FF0000150E700BF90F0000F04BF002112
:10054000704730B54FF4806404F1320410F0004578
:1005500048BF40424FF000013EE700BF42004FEA73
:10056000E2014FEA31014FEA02701FBF12F07F43F0
:1005700093F07F4F81F06051704732F07F4208BFA7
:10058000704793F07F4F04BF41F40021704730B5AE
:100590004FF4607401F0004521F000411CE700BFFA
:1005A00050EA010208BF704730B54FF000050AE07D
:1005B00050EA010208BF704730B511F0004502D57E
:1005C000404261EB41014FF4806404F132045FEA80
:1005D000915C3FF4D8AE4FF003025FEADC0C18BF29
:1005E00003325FEADC0C18BF033202EBDC02C2F11B
:1005F000200300FA03FC20FA02F001FA03FE40EAAD
:100600000E0021FA02F11444BDE600BF70B54FF0B0
:10061000FF0C4CF4E06C1CEA11541DBF1CEA13558E
:1006200094EA0C0F95EA0C0F00F0DEF82C4481EAF6
:10063000030621EA4C5123EA4C5350EA013518BF16
:1006400052EA033541F4801143F4801338D0A0FB03
:1006500002CE4FF00005E1FB02E506F00042E0FBB0
:1006600003E54FF00006E1FB03569CF0000F18BFB6
:100670004EF0010EA4F1FF04B6F5007F64F540745E
:1006800004D25FEA4E0E6D4146EB060642EAC621F1
:1006900041EA55514FEAC52040EA5E504FEACE2E5E
:1006A000B4F1FD0C88BFBCF5E06F1ED8BEF1004F61
:1006B00008BF5FEA500E50F1000041EB045170BDDD
:1006C00006F0004646EA010140EA020081EA030121
:1006D000B4EB5C04C2BFD4EB0C0541EA045170BD1D
:1006E00041F480114FF0000E013C00F3AB8014F197
:1006F000360FDEBF002001F0004170BDC4F10004E0
:10070000203C35DA0C341BDC04F11404C4F1200560
:1007100000FA05F320FA04F001FA05F240EA0200BB
:1007200001F0004221F0004110EBD37021FA04F6F1
:1007300042EB06015EEA430E08BF20EAD37070BDAB
:10074000C4F10C04C4F1200500FA04F320FA05F00A
:1007500001FA04F240EA020001F0004110EBD3700C
:1007600041F100015EEA430E08BF20EAD37070BD7C
:10077000C4F1200500FA05F24EEA020E20FA04F355
:1007800001FA05F243EA020321FA04F001F0004104
:1007900021FA04F220EA020000EBD3705EEA430E75
:1007A00008BF20EAD37070BD94F0000F0FD101F0A4
:1007B0000046400041EB010111F4801F08BF013CDD
:1007C000F7D041EA060195F0000F18BF704703F01B
:1007D0000046520043EB030313F4801F08BF013DA2
:1007E000F7D043EA0603704794EA0C0F0CEA13555E
:1007F00018BF95EA0C0F0CD050EA410618BF52EA18
:100800004306D1D181EA030101F000414FF000001D
:1008100070BD50EA410606BF1046194652EA43062B
:1008200019D094EA0C0F02D150EA013613D195EA9F
:100830000C0F05D152EA03361CBF104619460AD1E7
:1008400081EA030101F0004141F0FE4141F47001F1
:100850004FF0000070BD41F0FE4141F4780170BDE1
:1008600070B54FF0FF0C4CF4E06C1CEA11541DBF46
:100870001CEA135594EA0C0F95EA0C0F00F0A7F848
:10088000A4EB050481EA030E52EA03354FEA013175
:1008900000F088804FEA03334FF0805545EA131388
:1008A00043EA12634FEA022245EA111545EA106550
:1008B0004FEA00260EF000419D4208BF964244F1E7
:1008C000FD0404F5407402D25B084FEA3202B61A06
:1008D00065EB03055B084FEA32024FF480104FF4DA
:1008E000002CB6EB020E75EB030E22BFB61A75464E
:1008F00040EA0C005B084FEA3202B6EB020E75EBE1
:10090000030E22BFB61A754640EA5C005B084FEA48
:100910003202B6EB020E75EB030E22BFB61A754615
:1009200040EA9C005B084FEA3202B6EB020E75EB20
:10093000030E22BFB61A754640EADC0055EA060EE1
:1009400018D04FEA051545EA16754FEA06164FEA24
:10095000C30343EA52734FEAC2025FEA1C1CC0D1D0
:1009600011F4801F0BD141EA00014FF000004FF05D
:10097000004CB6E711F4801F04BF01430020B4F11E
:10098000FD0C88BFBCF5E06F3FF6AFAEB5EB030CD6
:1009900004BFB6EB020C5FEA500C50F1000041EBD3
:1009A000045170BD0EF0004E4EEA113114EB5C04A0
:1009B000C2BFD4EB0C0541EA045170BD41F4801173
:1009C0004FF0000E013C90E645EA060E8DE60CEA7B
:1009D000135594EA0C0F08BF95EA0C0F3FF43BAF98
:1009E00094EA0C0F0AD150EA01347FF434AF95EA4F
:1009F0000C0F7FF425AF104619462CE795EA0C0F33
:100A000006D152EA03353FF4FDAE1046194622E7FF
:100A100050EA410618BF52EA43067FF4C5AE50EAD9
:100A200041047FF40DAF52EA43057FF4EBAE12E7C9
:100A30004FEA410212F5001215D211D56FF4787306
:100A4000B3EB625212D94FEAC12343F0004343EAA9
:100A5000505311F0004F23FA02F018BF4042704784
:100A60004FF00000704750EA013005D111F000400E
:100A700008BF6FF0004070474FF00000704700BFA4
:100A800053B94AB9002908BF00281CBF4FF0FF31F5
:100A90004FF0FF3000F00CB8ADF1080C6DE904CE5A
:100AA00000F068F8DDF804E0DDE9022304B07047E7
:100AB000704700BF70B4840746D0541E002A41D04E
:100AC000CDB2034602E0621EE4B3144603F8015BB4
:100AD0009A07F8D1032C2ED9CDB245EA05250F2C63
:100AE00045EA054519D9264603F11002103E0F2E9E
:100AF00042F8105C42F80C5C42F8085C42F8045C76
:100B000002F11002F2D8A4F1100222F00F0204F058
:100B10000F041032032C13440DD91E462246043A0A
:100B2000032A46F8045BFAD8221F22F0030204329B
:100B3000134404F003042CB1C9B21C4403F8011B94
:100B4000A342FBD170BC704714460346C2E743087A
:100B500003F05533C01A00F03333800800F033300F
:100B6000184400EB10104FF0013300F00F305843E1
:100B7000000E70472DE9F0478C468E46089E1546BC
:100B800004461946002B40F0D080724547D9B2FA8E
:100B900082F74FB1C7F120030EFA07FC20FA03F3E6
:100BA000BD4043EA0C0CBC404FEA154EA8B2BCFB5A
:100BB000FEF8230C0EFB18CC08FB00F943EA0C43AB
:100BC000994528D9EB1808F1FF3204D2994502D98A
:100BD000A8F102022B44A3EB0903A4B2B3FBFEFC71
:100BE0000EFB1C330CFB00F044EA0344A04214D972
:100BF0002C190CF1FF3304D2A04202D9ACF102034C
:100C00002C44241A43EA02401EB1FC400023346005
:100C10007360BDE8F0874246DDE76346F1E7002AEE
:100C200079D0B2FA82F3002B3FD01946C1F12003EC
:100C300002FA01F52EFA03F20EFA01FE20FA03F38E
:100C400043EA0E034FEA154E00FA01F4B2FBFEFC34
:100C5000AFB20EFB1C201A0C0CFB07F842EA004254
:100C600090455AD9AA180CF1FF3004D2904502D908
:100C7000ACF102002A44A2EB08029BB2B2FBFEFCDC
:100C80000EFB1C220CFB07F743EA02439F4246D9A6
:100C9000EB180CF1FF3204D29F4202D9ACF10202F0
:100CA0002B44DB1B42EA004202E0AEEB02030122CE
:100CB0004FEA154EAFB2B3FBFEFC200C0EFB1C330B
:100CC0000CFB07F840EA034398452AD9EB180CF1CE
:100CD000FF3004D2984502D9ACF102002B44A3EBBB
:100CE0000803A4B2B3FBFEFC0EFB1C330CFB07F79E
:100CF00044EA0344A74216D92C190CF1FF3304D25D
:100D0000A74202D9ACF102032C44E41B43EA0040A1
:100D10000F46114678E71F2188E76046ABE7624639
:100D2000BFE76046DBE76346EFE7734506D916B9D0
:100D3000002108466DE7C6E9000EF9E7B3FA83F72C
:100D400087B9734501D3824207D8841A6EEB030337
:100D500001209C461EB900215BE73846FAE7C6E948
:100D6000004CF8E7C7F1200CBB4022FA0CF51D43FC
:100D700020FA0CF12EFA0CF30EFA07FE41EA0E01EE
:100D80004FEA154900FA07F4B3FBF9F81FFA85FE9C
:100D900009FB18300B0C08FB0EFA43EA00439A4596
:100DA00002FA07F240D9EB1808F1FF3004D29A4555
:100DB00002D9A8F102002B44A3EB0A0389B2B3FBCA
:100DC000F9F809FB183308FB0EFE41EA03418E4592
:100DD0002CD9691808F1FF3304D28E4502D9A8F145
:100DE0000203294443EA0040A0FB0298A1EB0E0154
:100DF0004145CE46434602D306D14C4504D2B9EB19
:100E0000020E68EB05030138002EA4D0B4EB0E02ED
:100E100061EB030101FA0CFC22FA07F34CEA03032D
:100E2000F940C6E9003196E74046C5E74346D9E7B1
:100E300030B52DED048B002191B0072001F038F979
:100E4000062208A91A2001F055F91D4B1888FFF752
:100E500063FB04460D46BDF92000FFF76DFB2246FB
:100E60002B46FFF7FDFC02460B46BDF9220043EC82
:100E7000192BFFF761FB22462B46FFF7F1FC0246D8
:100E80000B46BDF9240043EC182BFFF755FB224617
:100E90002B46FFF7E5FCB0EE491AF0EE691AB0EE0A
:100EA000482AF0EE682A9FED040B41EC130B11B0B9
:100EB000BDEC048B30BD00BF00000000000000004E
:100EC000C0010020000000009FED077B10B501234A
:100ED0000374838180ED207B044607F023FB044BE1
:100EE0009C6010BDAFF30080000000000000000017
:100EF000B80C00200000000010B5EFF3118410239F
:100F000083F31288BFF36F8F10F8083C13F02802A8
:100F100017D150F8101C69B150E906319FED0C7BD8
:100F20000B60596010F8083C40F8102C00ED067B6F
:100F300003F0FD0323F0040300F8083C183806F022
:100F40002FFC84F31188BFF36F8F10BDAFF30080C7
:100F50000000000000000000EFF31181102383F374
:100F60001288BFF36F8F83686BB1D0E900329FEDB9
:100F7000087B13605A60037C80ED007B23F0020342
:100F800000220374826081F31188BFF36F8F704772
:100F900000000000000000000346EFF31182102162
:100FA00081F31288BFF36F8F0068834213D068B15A
:100FB000D0E900319FED0C7B0B605960037C80ED24
:100FC000007B23F0020300210374816082F3118807
:100FD000BFF36F8F7047002082F31188BFF36F8FCC
:100FE000704700BFAFF30080000000000000000069
:100FF0002DE9F0472DED028BB0F80C90EFF311883E
:10100000102383F31288BFF36F8F037C1C0700F15A
:10101000A180D909824643F0080270D1704F027452
:10102000DAF8083083B1DAE9003213605A609AF8CE
:10103000103023F002038AF810300023CAF8083079
:1010400000220023CAE900230AF1180007F0E0F8A3
:10105000DAF858400AF15806A6421DD0E4B19FEDD7
:101060005E8B002500E0BCB1D4E9003213605A6009
:10107000237CA56023F00203237484ED008B04F12C
:10108000180007F0C5F8C4F89850204606F088FB11
:10109000DAF85840A642E6D1BA68924500F091804D
:1010A0000024D7F8203107EBC3010B46CD691C3370
:1010B0009D4200F08C80002D00F08980AA4202D071
:1010C000284606F047FF5046BD6101F0A1FE002C06
:1010D00048D1BB689A454BD088F31188BFF36F8F16
:1010E00019F0010F07D0002383F31188BFF36F8F2E
:1010F0000423184602DFBDEC028BBDE8F08703F045
:101100007F03827B364F43F008030374D0E900313C
:101110001032D2B20B605960D300F9181C33C96980
:101120003B4499427FF47CAF5109403107EB810188
:1011300002F01F02CB69012000FA02F223EA020347
:10114000CB61002B45D093FAA3F3B3FA83F3C7F82E
:10115000203165E788F31188BFF36F8FBDEC028BF8
:10116000BDE8F0871F48FFF7AFFEBB689A45B3D1D3
:10117000EFF30582002AAFD19989C90712D588F308
:101180001188BFF36F8F82F31188BFF36F8F042331
:10119000184602DFEFF31188102383F31288BFF3A0
:1011A0006F8FBB68104A6FF00A01C3E9258153684D
:1011B00043F080530021536081F31188BFF36F8F98
:1011C0008EE7EFF30584003C18BF012469E7FD6852
:1011D00074E71F23BBE700BF000000000000000011
:1011E000B80C00208008002000ED00E000000000A6
:1011F0002DE9F047524FDFF850912DED048B3C68FC
:10120000C9F80000BC4203460E4670D0002C00F026
:1012100082809FED479B9FED488BDFF828A14FF020
:101220001008256962690E46AB424FEAE37171EB23
:10123000020C204629DBDAF800305B19CAF80030CE
:10124000DAF8043084ED049B43EBE573CAF804300C
:1012500006F010FF84ED048B86F31188BFF36F8FC7
:10126000A3689847EFF3118688F31288BFF36F8F56
:10127000D9F800303C685B1BBC423146C9F80030ED
:1012800037D0002CCDD1D91705E0ED1A62EB010261
:10129000256162613C68DAF80020D218DAF804307F
:1012A000CAF8002043EB0103CAF80430BC424FF0F7
:1012B0000003C9F8003017D0B4B1D4E90403B0F189
:1012C000004F73F100020FDA002BB8BF002000219D
:1012D00005F062FD86F31188BFF36F8FBDEC048BC0
:1012E000BDE8F04706F084BE6FF00040EFE7DFF89E
:1012F00054A0DAF80020D218CAF800204FF00002FB
:10130000C9F80020DAF8042042EBE3726FF00040E5
:10131000CAF80420DBE70B49C9F80040D1E90020F6
:10132000D21840EBE370C1E900206FF00040CEE737
:10133000000000000000000001000000000000802C
:10134000B801002078090020E80D0020000000000E
:101350009FED097B10B4002300F11804C0E9064496
:1013600080ED007BC0E908125DF8044B0363436322
:10137000704700BFAFF300800000000000000000D5
:10138000704700BF014806F0C1B800BF200200202E
:10139000014806F0BBB800BF00020020014806F07B
:1013A000B5B800BF30020020014806F0AFB800BF5A
:1013B000100200202DE9F04F334E344DDFF8E0B03D
:1013C000DFF8E080324F9FB006F1040A4FF0FF32A1
:1013D0004FF0FF332F4806F0CFF8BFF35B8F316833
:1013E000BFF35B8FBFF35B8FDAF80020BFF35B8F37
:1013F000294BBFF35B8F1868BFF35B8F003818BFB2
:1014000001200890687B0790287B0690E87A059079
:10141000A87A0490B069039088FB014381EAE170E7
:1014200082EAE274A4EBE274A0EBE170C917C1EBAD
:10143000A303A7FB04C1C90801EB8101A4EB41048C
:10144000029488FB0241D217C2EBA101A7FB004224
:10145000D20802EB8202A0EB4200CDE900010F4A64
:1014600050210AA807F0C0F89DF828100029ADD037
:10147000DBF808400DF1280909486268904719F81F
:10148000011F0029F8D1A1E788090020C40000202D
:10149000CDCCCCCC200200209C09002010C9000833
:1014A000E0BC0008676666662DE9F843224EBFF38C
:1014B0005B8F354655F8044BBFF35B8F0027A6F1D1
:1014C0001009A6F10C080BE00122BFF35B8F55E871
:1014D000001F45E800200028F9D1BFF35B8F1C46B0
:1014E0004FF0FF324FF0FF33144806F045F8BFF3DA
:1014F0005B8F3368BFF35B8F9C42E5D1BFF35B8F9B
:1015000055E8002F45E800710029F9D1BFF35B8F42
:10151000BFF35B8F59E8002F49E800710029F9D12A
:10152000BFF35B8FBFF35B8F58E8002F48E8007173
:101530000029D2D0F8E700BF98090020300200202F
:101540002DE9F04F2DED0A8BB84DDFF81CA39FED70
:10155000B88A9FEDB89ADFEDB88AB84CDFEDB89A3B
:101560008DB005F1080805F10C0705F1140908AE66
:101570004FF0FF33B3484FF0FF3205F0FDFF9AF80C
:101580000030002B40F07281BFF35B8FD8F8003041
:10159000BFF35B8FDBB2BFF35B8F3A68BFF35B8F48
:1015A000BFF35B8FD9F80020BFF35B8F002A00F0F8
:1015B0009981BFF35B8F2A68BFF35B8F07EE902A98
:1015C000F8EEE77AB2EE047AC7EE87BA9E4ABFF326
:1015D0005B8F1268BFF35B8F07EE902AF8EEE77A15
:1015E0005A1E87EE87BA0B2A0DD8DFE812F0FB00EF
:1015F000F500EF00E9000C000C000C00E4000C000A
:101600000C000C00010146F26442102B228100F014
:101610006481202B40F0D2819FED8C7AF0EE477AE6
:1016200084ED057A94ED047ADFED896ADFED895A5D
:101630009FED896A2A6B77EEC77A67EEA67AD4EDBA
:10164000066A77EE877A87EEA57AC4ED047A67EEAC
:10165000067ABDEEE67AFDEEE77A17EE103A17EE5F
:10166000901A13445B1A142B00F3DC8013F1140F4F
:1016700080F2AD81BBEE04AA6FF013031A4407EEAB
:10168000902AF8EEE77A9FED747AE36177EEA67A16
:10169000DFED706A67EEA67A87EE87CAB0EE4C0A75
:1016A00009F090F9F0EE40AAB0EE4C0A09F010F8FB
:1016B000F1EE6A7AB1EE407A9FED686A684B70EE9F
:1016C0006A5A3AEEC05A7AEE806A37EE6A7A77EE54
:1016D000C07A65EE865A66EE866A25EE065A27EED1
:1016E000067A67EE867A2BEE264A6BEE254A27EEBF
:1016F0000B7A2BEE856A6BEEA66A6BEEA55A67EE47
:10170000AB7A2BEE05BA36EE046A76EEA46A37EEB3
:10171000257A77EE8B7A36EE086A76EE886A37EEAF
:10172000087A77EE887A36EE0A6A76EE8A6A37EEBB
:101730000A7A77EE8A7A8DED046ACDED056A8DED31
:10174000067ACDED077A04AAA3F11B00F3EC017A27
:10175000B2EC017AF4EEC77AF1EE10FA4DD577EEDD
:10176000897AB4EEE77AF1EE10FA48BFF0EE477AE4
:10177000F4EEE87AF1EE10FA43ED017A4EDAF5EE86
:10178000C07AF1EE10FA4BD9FCEEE77ACDED027A91
:101790009DF8081000F8011F9642D7D194F8203028
:1017A000A3730023CDE9003324492E4800220023EF
:1017B00002F04CFCDCE66423D4ED057A238131E7AA
:1017C00046F2C843D4ED057A23812BE74CF6320369
:1017D000D4ED057A238125E74CF66403D4ED057A30
:1017E00023811FE74FF4C843D4ED057A238119E71D
:1017F00096232381D4ED057A14E7B9DD77EEC97A13
:10180000B4EEE77AF1EE10FAC8BFF0EE477AF4EEE4
:10181000E87AF1EE10FA43ED017AB0DBFF21B9E787
:101820000021B7E7B3EE04AA142327E788090020B4
:101830000000C842CDCC2C4000007F43C4000020F3
:1018400000000000100200208C090020F90FC93FA1
:10185000CDCCCC3DD80F4940000034438104353F06
:10186000E800002088BD0008EF0D0020FFF7E0FA37
:1018700051EC110B8DED040B8DED082B8DED061B3E
:101880008DED0A3B8DED023BFFF7D2F8DDE9022337
:10189000834619461046FFF7CBF8544B1B78002BB4
:1018A0007AD12B6AC5F818B0ABEB0303B42B79DD02
:1018B000A3F5B4732A6BAB621A446B6AC5F820B007
:1018C000C31AB42BE8612A6372DDA3F5B4736A6BA3
:1018D00068621A44EB626A6356E6DFED457AC4ED4E
:1018E000059A9FE6BFF35B8F58E8003F48E8002168
:1018F0000029F9D1BFF35B8FBFF35B8F57E8003F3F
:1019000047E800210029F9D1BFF35B8F394BE26131
:10191000C4ED059AC4ED049AA3F11B01F3EC017A1E
:10192000F4EEC87AF1EE10FA21D577EE897AF4EE6A
:10193000C87AF1EE10FAC8BFF0EE487AF5EEC07A38
:10194000F1EE10FA43ED017A24D9FCEEE77ACDED01
:10195000027A9DF8082001F8012F274A9342DDD131
:1019600046F2644323814FF4C843E38119E7ECDD79
:1019700077EEC97AFF22F4EEC87AF1EE10FA48BF8A
:10198000F0EE487AF4EEE87AF1EE10FA43ED017ADF
:10199000DBDBE0E70022DEE7144A0023C5E908B0FC
:1019A0001370F1E513F1B40FB8BF03F5B47381E719
:1019B00013F1B40FB8BF03F5B47388E7402B0BD114
:1019C0009FED0E7AF0EE477A84ED057A2AE607EE6F
:1019D000903AB8EEE7AA51E6802B7FF40BAF9FED6B
:1019E000087AF0EE477A84ED057A1BE6C201002002
:1019F00000000000E8000020F8000020D80F494057
:101A0000F90FC9BFF0B5044683B083685A6C1AB1A8
:101A10009047002878D0A3683C4E351F371D54E00E
:101A2000DFF8F4C03A4A9CF80000042864D913781F
:101A3000643B002103EB83038CF800105B00BFF3D1
:101A40005B8F56E8001F46E800300028F9D1BFF34D
:101A50005B8F5378BFF35B8FC3F1640303EB8303A6
:101A60005B0055E8001F45E800300028F9D1BFF3BE
:101A70005B8F9378BFF35B8F57E8001F47E8003018
:101A80000028F9D1BFF35B8F05F10C03D278BFF3C7
:101A90005B8F53E8001F43E800200028F9D1BFF313
:101AA0005B8FBFF35B8F05F1100353E8001F01311B
:101AB00043E80012002AF8D1BFF35B8F1548836812
:101AC0004FF400415B699847A3685A6B1AB12046EE
:101AD0009047C8B1A3689B69B3B101220DF107011A
:101AE0002046984701280FD19DF80730FF2B97D14A
:101AF000094B00221A70E7E7411CC9B205291354AB
:101B00008CF80010E0D192E703B0F0BD8C09002002
:101B10008009002054BC0008EE0D002010B40469B8
:101B20000123246803FA01F1214218BF5A4022B16F
:101B300083685DF8044BDB68184783685DF8044BE5
:101B40001B69184770B4D6028568046902F0010366
:101B50000FD512F4402F0CD0D3B182F4402222F4DE
:101B60008012266801238B40334323602B6870BCAE
:101B7000184722F48012002BF3D123684FF0010C98
:101B80000CFA01FC23EA0C0323602B6870BC184795
:101B900022F48012F1E700BF0A21A0FB010106F048
:101BA00025B900BF2DE9F0413E4E3F4C3F4FDFF8D5
:101BB00008814BE0A3680221DB6820469847226930
:101BC00012686B08510748BFDB4303F00103002B89
:101BD0005CD0A3680421DB6820469847226912681C
:101BE000AB08120748BFDB4303F00103002B53D0BF
:101BF000A3680821DB682046984723691B68ED0825
:101C0000DB0648BFED4305F00105002D38D0A36881
:101C10001021DB6820469847642006F013F9BB6862
:101C200022485B682249984796F8483048B9B8F985
:101C3000002007EE902AF8EEE77A06EB8302C2ED69
:101C40000E7A013303F0030386F848304FF0FF3378
:101C500018484FF0FF3205F08FFC236996F8485082
:101C60001B6898074ABFEB4305F0010303F001032B
:101C7000002B9FD1A36802211B69204698479EE74D
:101C8000A36810211B6920469847C5E7A368042173
:101C90001B6920469847A1E7A36808211B692046D5
:101CA0009847AAE7880900208CBC000818BD0008E6
:101CB000A800002000020020EC0D00202DE9F041DA
:101CC0008AB0B44805F004FA00B9FEE7B24AB14858
:101CD0000D21FFF737FF032401220D21AD48FFF747
:101CE0001DFF6420FFF758FFAA4800220D21FFF7CF
:101CF00015FF6420FFF750FF013CEDD1A74C0126F2
:101D000004F1200520682179E2880369D0F8088071
:101D1000D3F800C012F0010F06FA01FE4CEA0E07DC
:101D200008BF2CEA0E071F6014BF42F4202242F4C1
:101D3000C022D8F8003008349847AC42E2D1954828
:101D400005F0C6F9002840F01E81924805F0C0F960
:101D5000002840F0FF80924C204605F0B9F9024679
:101D6000002840F0C1808B480E21FFF7D7FE8D4838
:101D700005F0AEF920B18B4B8A489B685B689847A9
:101D8000894805F0A5F9002840F0CC80874805F087
:101D90009FF9002840F0BB80854805F099F928B1EB
:101DA000834B84499B6882481B6898474FF4FA70BC
:101DB000FFF7F2FE0026002700240223CDE90334BA
:101DC000CDE90667CDE901447B4B7C4900944FF493
:101DD00000627B4805F0B2FC7A49794805F03CFC8A
:101DE0000623CDE90334CDE90667CDE90144764BFE
:101DF000764900944FF40072754805F09FFC7549D0
:101E0000734805F029FC0823CDE90334CDE90667C2
:101E1000CDE90144704B714900944FF40072704851
:101E200005F08CFC6F496E4805F016FC0A22CDE9DE
:101E30000324CDE90667CDE901446B4B6B4900945F
:101E40004FF480626A4805F079FC6A49684805F0F9
:101E500003FC224668496948FFF77AFA2246684936
:101E60006848FFF775FA224667496848FFF770FA35
:101E7000224667496748FFF76BFA642200235F48F0
:101E8000CDE9002306F0E8FA4FF4FA6200235D483A
:101E9000CDE9002306F0E0FAC82200235B48CDE933
:101EA000002306F0D9FA4FF47A72002359485A4DAC
:101EB000CDE9002306F0D0FA364B9C6804E041F2ED
:101EC0008830002105F092FF4FF4005163693148DA
:101ED0009847BFF35B8F2B68BFF35B8F002BEED06F
:101EE0004FF47A700021EDE7A3682BB19B6C1BB116
:101EF0004A49002220469847A3689B6A0BB12848AC
:101F00009847244801220E21FFF708FE2FE7444896
:101F1000802100F015F99FED430A4148802100F02F
:101F200031F939E7404800F0B5F800F08BF80020AF
:101F300001220DF127018DF8270000F0DBF89DF854
:101F40002730A02B7FF422AF00F072F8374B01222C
:101F50001A701BE7104A0F480F21FFF7F3FD052405
:101F600001220F210B48FFF7D9FD5020FFF714FE87
:101F7000084800220F21FFF7D1FD5020FFF70CFE8B
:101F8000013CEDD1E7E6044A02480E21FFF7DAFDF5
:101F9000DBE600BF54BC00080100160098CF000823
:101FA000C4BC000888BD000850BD000834BD00084E
:101FB00018BD0008BC000020411500088017002053
:101FC000C005002030C90008A91400080015002031
:101FD000E004002038C90008A51B0008801200207A
:101FE0000004002044C90008B5130008000E0020BA
:101FF0002003002048C90008A9130008E8020020B7
:102000009D130008B0020020911300087802002000
:1020100085130008400200209C090020051A0008D2
:10202000B8CF000800004842C0CF0008EF0D0020E4
:1020300008B53D200C2100F03BF8BDE80840072022
:1020400000F02EB810B5202182B03F20002400F00F
:102050002FF84FF42F7000F023F801220DF1070143
:1020600020468DF8074000F045F82146072000F093
:102070001FF821463F2000F01BF821463D2000F0CC
:1020800017F8132000F00CF80A2000F009F802B04D
:1020900010BD00BF014B1860704700BFD40900207D
:1020A00020EAE0700A21A0FB010105F09FBE00BFFD
:1020B0000F4B1B68D3B130B585B0024602241868B7
:1020C0008DF800209B88CDF804D08DF80110029483
:1020D0008DF80C409DF80C2022438DF80C2081686F
:1020E00001228C6801A9A04705B030BD704700BF30
:1020F000D409002010B5114B88B01B688DF807007B
:10210000CBB118689B88059107210DEB010406925D
:102110008DF81C1000220121CDE902418DF810201C
:102120009DF81C2042F002028DF81C2081680222DA
:102130008C6802A9A04708B010BD00BFD4090020D8
:1021400010B5034684B002224FF4004100689B881A
:10215000CDF804D0ADF8001002928DF80C209DF857
:102160000C2042F002028DF80C20816801228C685C
:1021700001A9A0476420002104B0BDE8104005F08B
:1021800035BE00BF2DE9F0472DED028B88B0044627
:102190000DF10303002701260DF104090293072323
:1021A0008DF81C30CDE905960068A3888DF8037082
:1021B000B0EE408A8DF8047003968DF810709DF88B
:1021C0001C2042F002028DF81C20826802A995684A
:1021D0000222A8479DF804802068CDF808900225C7
:1021E00048F010038DF805308DF80470A38803952E
:1021F0008DF810509DF810202A438DF81020826829
:1022000002A9D2F808A03246D0479FED317ADFED1F
:10221000317A20688DF8105028EE070A9FED2E7A4B
:1022200020EE270AF7EE006AC7EE007AFE238DF84B
:102230000430CDE90295B6EE007A77EEE67A77EED5
:10224000877AFCEEE77A17EE903A8DF80530A3888E
:102250009DF810202A438DF81020826802A9D2F838
:1022600008A03246D047CDE902952068A3888DF8B2
:1022700004708DF805808DF810509DF810202A43C9
:102280008DF81020826802A9D2F808A03246D04703
:10229000002168F07F080A2005F0A8FD2068A388C7
:1022A0008DF80470CDF808908DF8058003958DF8B1
:1022B00010509DF810202A438DF810208168324676
:1022C0008C6802A9A04708B0BDEC028BBDE8F0877E
:1022D0006666663F0000804520BCBE4B30B500EB13
:1022E000C1044FEAC10C63885B08B3FA83F3C3F1FE
:1022F0001F0300EB83050CF1040C2A691FFA81FE11
:1023000072B96EF30F02C4686EF31F424FF0010EF4
:102310000EFA03F31C43C460296140F80C2030BD61
:10232000D3000433C15A20F80C1000EBC101E28045
:10233000A1F806E020F803E030BD00BF043A2DE923
:10234000F041CC1D114424F0070421F00706331B93
:10235000DF08B7FA87F2C2F12405AD004FF000089C
:10236000C2F120020735ED0804604146C4E9027855
:10237000920004F11000FEF79DFBA9B24A007B1BFE
:1023800042F0010262809BB204EBC5025800A4F83F
:102390000080508024F83510012233807280294655
:1023A0002046BDE8F041FFF799BF00BF002070470D
:1023B000014B1B68184700BFF8000020014B186054
:1023C000704700BFF80000200FB400B587B008AA1E
:1023D00052F8041B019200230293CDE904334FF01D
:1023E000020C064B8DF80AC002A8039306F0C6FA49
:1023F00007B05DF804EB04B0704700BFB1230008DC
:10240000704700BF034A536823F002030020536063
:10241000704700BF002004E008B5074A4168936890
:102420001B682BB10C311046984700EAE07008BDDC
:102430006FF0570008BD00BF74BB0008192810B525
:1024400008D8064B53F82040204604F041FE08B15E
:10245000204610BD0024204610BD00BF7CD00008DF
:10246000F0B540684468012066688840C2F3801572
:1024700026EA00068D4035436560A66890FAA0F50F
:1024800002F0300CC2F3C11E3DB1B5FA85F56D0006
:10249000032707FA05F526EA050690FAA0F535B1F7
:1024A000B5FA85F56D000EFA05FE46EA0E06A66041
:1024B000E66890FAA0F5C2F3412245B1B5FA85F578
:1024C0006D004FF0030E0EFA05F526EA050690FAA8
:1024D000A0F525B1B5FA85F56D00AA401643BCF10B
:1024E000200FE6601AD090FAA0F322684FEA1C1C75
:1024F0003BB1B3FA83F35B00032101FA03F322EA51
:10250000030290FAA0F030B1B0FA80F040000CFA6B
:1025100000FC42EA0C0222600020F0BD072916D818
:1025200090FAA0F2216A3AB1B2FA82F292000F2533
:1025300005FA02F221EA020190FAA0F22AB1B2FAF7
:1025400082F2920003FA02F211432162CBE7020AFF
:10255000656A92FAA2F139B1B1FA81F189000F26C8
:1025600006FA01F125EA010592FAA2F222B1B2FAC5
:1025700082F2920093401D436562B4E7084B09491B
:102580001A68094842F480721A601A6842F40072AC
:102590001A601A6842F480621A600860704700BFCF
:1025A000003C0240B00100200024F400014B036015
:1025B00000207047E4D0000880B505460E4614465A
:1025C0001F4605F0B1FC034600F028FD21460446F5
:1025D0003046034E3A463351A847A05900F096FCC6
:1025E00008000000FEF766BAFDF7BABD0648074AC4
:1025F00008B5121A0021FFF7F5FF0548054A00212A
:10260000121AFFF7EFFF08BD40020020F40D002072
:1026100000000010000000100A480B4A0B4908B5E2
:10262000121AFFF7E1FF0A480A4A0B49121AFFF78C
:10263000DBFF0A480A4A0B49BDE80840121AFFF7B7
:10264000D3BF00BF0000002040020020D8D80008FF
:102650000000002000000020D8D800080000001072
:102660000000001018DB0008036973B170B505465F
:102670000024061D56F834201AB155F8340090474E
:102680002B690134A342F5D870BD70472DE9F041A4
:10269000804686B00E4671B3D1E90123214809680E
:1026A000FFF792FED6E90423F1681F48FFF78CFE7E
:1026B0001E48F169FFF788FE00243546EF6AE21CE8
:1026C000D5E90930CDE90327A11C2A6A0093CDE999
:1026D0000110631C214616480434FFF775FE102CC8
:1026E00005F11005EAD1316E1248FFF76DFE124870
:1026F000B169FFF769FEB8F1010F06D031464046D7
:1027000006B0BDE8F04104F0FBBCEFF305810B48D7
:102710001039FFF759FE3146404606B0BDE8F0419A
:1027200004F0EEBCE0C9000810CA000840CA000866
:1027300050CA000894CA0008A4CA0008D4CA0008F5
:1027400001460068FFF7A2BF08B500F005F8BDE834
:10275000084000F0CBBB00BF30BFFFF7FDBF00BF9C
:102760002DE9F0410B4EDFF8348006EB0807CC1B57
:102770000546324608492046FDF7F2FCA0194246BC
:102780000021083CFEF796F9C5F8904007F10800D3
:10279000BDE8F0810000000074C6000804000000DD
:1027A0002DE9F8430646394814460F46FFF70CFE5C
:1027B000374B9B6ADA0657D41025354B9B6A1B07AB
:1027C0004DD4DFF8CC80D8F8283098073AD46FF091
:1027D00015092F4B9B6ADA072FD42D4B9B6A9B065A
:1027E00026D42B4B9A6AD70614D49B6A980711D427
:1027F000274B9A6A920603D55A6A22F400525A620B
:10280000234A936A002143F0FF0393622170284614
:10281000BDE8F8831E4B5B681905E9D5314648468B
:1028200000F0DEFA0028E3D080F309880225DFE714
:102830001848FFF7C9FD1525D3E71748FFF7C4FD72
:102840001425CAE71548FFF7BFFDD8F83490D8F82B
:10285000283019060DD46FF015091325B9E7104873
:10286000FFF7B2FD1225ACE70E48FFF7ADFD1125CD
:10287000A3E70D484946FFF7A7FD002FEDD0D8F894
:10288000283023F08003C8F82830E6E7E8CA0008BB
:1028900000ED00E09CCB00087CCB000848CB000892
:1028A00034CB000800CB000864CB000808B52B48E7
:1028B000FFF78AFD2A4B9B6A99011DD4284B9B6A1E
:1028C000DA014FF01D0020D4254B9B6A1B0325D451
:1028D000234B9B6A59032AD4214B9B6A9A032FD41A
:1028E0001F4B9B6ADB0334D41D4A936A6FEA034390
:1028F0006FEA1343936208BD1A48FFF765FD184B52
:102900009B6ADA014FF01E00DED51748FFF75CFD29
:10291000134B9B6A1B034FF01F00D9D51348FFF7D9
:1029200053FD0F4B9B6A59034FF02100D4D510483B
:10293000FFF74AFD0A4B9B6A9A034FF02200CFD55E
:102940000C48FFF741FD064B9B6ADB034FF0230069
:10295000CAD50948FFF738FD2420C5E7CCCB0008CD
:1029600000ED00E0E8CB0008FCCB000818CC000824
:1029700038CC000860CC00087CCC000870B5054657
:1029800028480C46FFF720FD274B9B6AD80439D412
:102990001623254A926A11052FD4234EB26A920556
:1029A00022D4214A926A500519D41F4A916AC90556
:1029B00010D4926A920408D418461B4A936A0021E4
:1029C00043F47F439362217070BD1848FFF7FCFC0D
:1029D0001C20F2E71648FFF7F7FC1B20EDE715482F
:1029E000FFF7F2FC1A23E0E71348FFF7EDFCB16BA9
:1029F000B36A1B040BD41923D3E71048FFF7E4FC98
:102A00001823CAE70E48FFF7DFFC1723C1E70D487C
:102A1000FFF7DAFC002DEED0B36A23F40043B36273
:102A2000E9E700BFA8CC000800ED00E09CCB00085F
:102A300024CD000808CD0008D4CC000834CB000811
:102A4000C0CC0008F0CC0008F0B5644B5D689DB0C8
:102A5000C5F30807002383F31188BFF36F8F02F0DB
:102A60007F44B4F17F4F19D102F00C04082C12D02E
:102A7000140747BF0C461E460446012600238DF866
:102A80000730FB1E092B0CD8DFE803F02B677C74A2
:102A90000B0B0B0B0B785248FFF796FC00263446C5
:102AA000ECE715F4F87F0CBF4E494F494F48A7F1AA
:102AB0001002FFF789FC00256822214602A8FDF7D5
:102AC0004FFB099B002E64D0C3F3080240F2FF11B4
:102AD0000AB90B43099302A92846FFF7D7FD1DB099
:102AE000F0BD43483D4DFFF76FFC00238DF80730E4
:102AF000EB6A9A0751D4EB6A002B52DBEB6A5B005E
:102B0000D9D53C48FFF760FC6B69A26943F4807338
:102B10006B61BFF34F8FBFF36F8F6B6932F8022C7D
:102B200023F480736B61BFF34F8FBFF36F8F02F499
:102B30007F43B3F55F4F38D0284A936ADBB2002B4E
:102B40003CD1956A15F47F4540D1936AB3F5803F37
:102B50000AD3FFF7ABFE054606E00DF107020021A0
:102B60002046FFF71DFE05469DF80730002BA3D039
:102B70001DB0F0BDFFF79AFE05469DE71E48FFF722
:102B800023FC98E70DF107010020FFF7F7FE05464B
:102B9000EAE76FF3080309939DE71848FFF714FC71
:102BA00089E71748FFF710FC85E7D2B2022AC3D1A4
:102BB00021681448FFF708FC2568D5E70DF10702E6
:102BC00001212046FFF7ECFD0546CDE70DF1070199
:102BD0000120FFF7D3FE0546C6E700BF00ED00E089
:102BE00074CD000840CD000858CD000854CE000830
:102BF000A0CD0008ECCD00082CCE0008B8CD000810
:102C0000DCCD00080CCE0008044B5A6942F01002DB
:102C10005A615A6922F008025A61704700ED00E0DB
:102C2000EFF30880EFF3098101B57246FFF70CFF5F
:102C300001BD00BF0A4880F30888102080F3118886
:102C400008484FF40861401880F30988EFF31480B6
:102C50000221084380F31488BFF36F8F00F04CF813
:102C6000802C0020002000201EF0040F0CBFEFF38A
:102C70000880EFF30980816911F8021C0229FFD056
:102C800001B57246FFF75CFD01BD00BF40B20028F0
:102C900007DB044A4109012300F01F00834042F88A
:102CA0002130704700E100E0013140B20901002805
:102CB000C9B206DB00F1604000F5614080F8001306
:102CC0007047034B00F00F0003441976704700BFB4
:102CD000FCEC00E000210120FFF7D8BC044B054AC2
:102CE00023F07F039360BFF34F8FBFF36F8F704765
:102CF0000000000800ED00E008B5FFF7EFFF104B03
:102D00001049D3F8882022F47002C3F88820D3F841
:102D100088204FF0404042F4A002C3F88820486366
:102D2000BFF34F8FBFF36F8F0023E1EE103AFFF731
:102D30005DFCFFF771FC00F053F904F075FA00BF79
:102D400000ED00E000EF00E030B4029C0E494FF4CB
:102D50007D45C0F8DC5042E90834039B42F8183C3A
:102D600021F00101049B42F8081C42F8143C4FF08A
:102D70008074A2F12001002342F8044C30BC0165AC
:102D8000C0F89430704700BFB92500088389134A02
:102D9000990711D490F8DD30DB060DD5536B23F085
:102DA00080435363D0F8DC301A0744BF23F0080394
:102DB000C0F8DC3080207047536B43F0804353638E
:102DC000D0F8DC3019075CBF43F00803C0F8DC30F2
:102DD000838943F0020383818020704700EF00E085
:102DE0000A4B9B68024673B112F1160FD3F88000AC
:102DF00005D0A0F180039A4205D3824203D28142DA
:102E000028BF002070470020704700BFB80C00208A
:102E1000114B9B6898421BD1EFF30583C3B9EFF3C5
:102E20001181102282F31288BFF36F8F828922F002
:102E300002028281EFF3148222F0040282F31488EA
:102E4000BFF36F8F81F31188BFF36F8F1846704700
:102E50006FF01500704700BFB80C002008B515468C
:102E60000E460022E1EE102AEFF3148222F0040253
:102E700082F31488BFF36F8FBFF36F8F0B4AD0F8C4
:102E8000903090600A4A136000F0DAF82C4686F31E
:102E900009880020034B9847204600210022002388
:102EA000014C2047B52E0008B9250008B80C0020B9
:102EB000680A002061B662B680F31188BFF36F8F95
:102EC000704700BF014B10221A61704700ED00E00F
:102ED00072B6002383F31188BFF36F8FBFF34F8F58
:102EE00030BF62B6BFF36F8F704700BF054B9A6962
:102EF0009B689A4204D0044A536843F0805353605D
:102F0000704700BFB80C002000ED00E00A4B9B6842
:102F1000834201D0FEF76CB8EFF30583002BF9D0A4
:102F2000064B5A6842F080525A605A6A22F40042B4
:102F30005A62FEF75DB800BFB80C002000ED00E05B
:102F400024498A6882F8DDE04FF030001044EFF346
:102F5000098C80E8F01F1EF0100F03D102F19C00D5
:102F600080EC108A102080F31288BFF36F8F1A4F05
:102F70004FF000668A698A603E60D2F89000174C74
:102F8000206092F9DDE0D2F894000023C2F894307A
:102F900080F311881EF0100F03D00023E1EE103AE9
:102FA00003E002F19C0090EC108AEFF3148323F00D
:102FB000040383F31488BFF36F8F04B5104600F049
:102FC0003FF8BDE8044002F1300090E8F01F8CF3B8
:102FD00009887047B80C002004ED00E0680A002062
:102FE000044800231021C2180133472B82F8001334
:102FF000F9D1704700E100E008B5EFF30583064A18
:10300000103B02EBC30152F833004B689847BDE810
:103010000840FFF76BBF00BFA4BD0008014800686F
:1030200070470000680A0020024B034A0348012150
:1030300000F01CB80000022000000020E4D00008CE
:1030400010B50446FFF7A2FED4F88030054C064ABE
:10305000A2601B1AC4E9003001212046BDE81040DF
:1030600000F054B8A006002000000B152DE9F04335
:10307000244F3A781346A9B1234D01EB410E061DAA
:10308000002100F1080856F82140A4B37F2C04F178
:10309000FF3C06D950F8213044EA030919EA0C0F25
:1030A00003D0EA233B70BDE8F083B4F1004FD5F8BC
:1030B000904058F82190BCFA8CFCC4F30724CCF162
:1030C0001F0CD2B204F1FF3494BF4FEA4C0C4FF006
:1030D0003E0CA24249EA0C0923F01F03E1D8134336
:1030E00043F0100349F00104C5F89820C5F89C305E
:1030F0000132C5F8A04003317145C4D1D3B23B7051
:10310000BDE8F083F00D002000ED00E02DE9F04176
:10311000294B1A78D1B301EB410C284D002100F165
:10312000040E00F108061EE0B7F1004F2CD85B003A
:10313000D5F89070C7F30727D2B2013FBA4248EAE8
:10314000030824F01F0434D8144344F0100448F05A
:103150000103C5F89820C5F89C400132C5F8A0309D
:103160000331614512D05EF821707B1EB3FA83F300
:10317000C3F11F03002FF3D0202F50F8214056F841
:103180002180D1D80823D3E73E23D1E70B49D1F8DA
:103190009030C3F307239A420BDA0020C1F898203D
:1031A000C1F8A000D1F890300132C3F307239A424E
:1031B000F4DBBDE8F08100BFF00D002000ED00E081
:1031C0002DE9F0439B489C49D0F890300C68C3F33C
:1031D00007239C4283B000F22981BFF35F8F002256
:1031E000C0F89420ACB14968C0F898200B6823F06F
:1031F0001F03134343F010030C31C0F89C3051F807
:10320000043C013243F00103A242C0F8A030EBD1EC
:10321000D4B28A4F01A83C70FFF7C8F997F800E0D4
:10322000002800F001814FF00008019D844C814E80
:103230007346C4463EE0B2F5001F00F09E80B2F532
:10324000800F00F08980B2F5801F2DD1D5E90112E1
:10325000202A40F2C680B2F1004F00F2DA8002F17B
:10326000FF39B9FA89F9774AC9F11F0942EA4902D7
:10327000D6F89090C9F3072909F1FF394B4500F2C0
:10328000CC8021F01F01194341F0100142F00102EE
:1032900003F10109C6F898304FF00108C6F89C10F8
:1032A0005FFA89F3C6F8A0200CF1010C604505F126
:1032B000100573D0EA682240B2F5000F1BD0BAD9CE
:1032C000B2F1007F38D0B2F1805F24D0B2F1807FBC
:1032D000EAD1D5E90112202A40F28F80B2F1004FE5
:1032E00000F29980013AB2FA82F2C2F11F02520052
:1032F00042F08872BCE7D5E90112202A7BD9B2F1ED
:10330000004F7CD8013AB2FA82F2C2F11F02520099
:1033100042F08272ACE7D5E90112202A69D9B2F1F4
:10332000004F72D802F1FF39B9FA89F9464AC9F15A
:103330001F0942EA49029BE7D5E90112202A56D922
:10334000B2F1004F63D8013AB2FA82F2C2F11F0221
:10335000520042F480228BE7D5E90112202A44D999
:10336000B2F1004F4DD802F1FF39B9FA89F9374A65
:10337000C9F11F0942EA49027AE7D5E90112202A78
:1033800031D9B2F1004F3ED802F1FF39B9FA89F9CB
:103390002F4AC9F11F0942EA490269E7B8F1000F53
:1033A00042D03B702349D1F89020C2F307229342C8
:1033B0000BDA0020C1F89830C1F8A000D1F89020B5
:1033C0000133C2F307229A42F4DC1A4B0522C3F8F8
:1033D0009420BFF34F8FBFF36F8F002003B0BDE881
:1033E000F0831C4A44E71C4A42E71C4A40E71C4A57
:1033F0003EE71C4A3CE71C4A3AE71C4A38E71C4AAD
:1034000036E71C4A34E71C4A32E71C4A30E71C4ABC
:103410002EE71C4A2CE71C4A2AE7B8F1000F00D01F
:103420003B706FF01500D9E77346BBE74FF0FF30F4
:10343000D4E700BF00ED00E0F0D00008F00D002060
:103440000000F0FF00000B11000002110000020656
:103450000000081108000B110800081108000206FE
:10346000080004000800021108000401080010010F
:103470003E0004013E0002063E0008113E0002111B
:103480003E0004003E000B113E00100108B5024B47
:103490001B689847002008BD6C0A0020034A0449B5
:1034A0009378086043F0020393707047FC0000209B
:1034B0006C0A002008B50649064821F00701C1F151
:1034C000005202F50032FEF739FF002008BD00BFB0
:1034D0004B350020700A002010B5094B094C93E8C9
:1034E000030082B0CDE90001A268126822B16946EA
:1034F0002046904702B010BD6FF05700FAE700BFBA
:1035000078C6000874BB00081F2808D8054A0123A4
:103510005269834093430CBF012000207047002074
:10352000704700BF003C014000F01F021F284FF011
:10353000010303FA02F39DBF024A002053616FF0BA
:1035400015007047003C014010B500221A4C0620BF
:1035500011462070FFF7A8FB00220720114660707B
:10356000FFF7A2FB002208201146A070FFF79CFB8A
:10357000002209201146E070FFF796FB00220A2086
:1035800011462071FFF790FB002217204FF01733F0
:103590001146C4F805306072FFF786FB00224FF039
:1035A000283042F62803C4F80A0011462820E38197
:1035B000FFF77AFB002010BD0C01002043784BB3CD
:1035C0002DE9F041144F064600254FF0010804E0B4
:1035D00072780135EBB29A421AD934782C442046DD
:1035E000FFF792FF0028F3D02046FFF79DFF57F822
:1035F000343007EBC40204F01F0408FA04F0002B77
:10360000E6D05168984701357278EBB29A42E4D817
:10361000BDE8F081704700BF7C0A002001F01F0167
:1036200001208840704700BF10B4034670B1B0FA63
:1036300080F2C2F11F02D2B2054906480C688056DA
:1036400023430B605DF8044BFFF720BBFF22F3E739
:10365000003C01400C010020024A136823EA0003E9
:1036600013607047003C014003290AD8DFE801F0ED
:103670001C130A02114B9A6802439A60DA681043DD
:10368000D86070470D4BDA680243DA609A6822EA24
:1036900000029A607047094B9A6802439A60DA68A0
:1036A00022EA0002DA607047044B9A6822EA0002BC
:1036B0009A60DA6822EA0002DA607047003C014052
:1036C00030B4C0B1B0FA80F3C3F11F03DBB20C48D1
:1036D00050F833408C4208D07CB900EBC30440F86A
:1036E00033106260002030BC704700EBC3056D688A
:1036F0009542F1D1F6E7FF23E9E76FF00F00F2E71B
:103700007C0A002060B1B0FA80F3C3F11F03DBB282
:10371000044901EBC300002241F8332042607047A6
:10372000FF23F5E77C0A002000F003020432920038
:103730000F23934043EA9000C3B210B49B0003F1FF
:10374000804303F59C33020C9C6892FAA2F224EAAF
:1037500010401AB1B2FA82F29140084398605DF8C5
:10376000044B704700F00302043292000F23934091
:1037700043EA9003DAB207490232180C51F82220CA
:1037800090FAA0F002EA134218B1B0FA80F022FADF
:1037900000F0704700380140A0F10803BFF35B8FD1
:1037A00053E8002F511C43E8001CBCF1000FF7D177
:1037B000BFF35B8F52B9D0E92232C0F890205B682A
:1037C0001A68936843F08043936070476FF00F036B
:1037D0008365704708B5002212201146FFF764FA8E
:1037E000BDE808401220FFF751BA00BF334B1A68FA
:1037F000910644BF6FF020021A60304B1A6892079E
:1038000013D510B52E4CDA6CD4F89430991CC4F84A
:1038100094101A8094F8A53094F8A4200133DBB2F8
:103820009A4284F8A53001D010BD7047636E002223
:1038300084F8A520B3B1E36F4BB1B4F888202148D8
:1038400004F164019847012815D0022805D0B4F886
:103850008830B4F884209A421ED8A36F13B11A4856
:1038600004F030FE4FF6FF73A4F8A6301748BDE809
:10387000104003F04BBED4F89830C4F89430A36FD6
:1038800073B9D4E92432C4F898205B681A68936845
:1038900043F08043936010BD0133A4F88830EEE715
:1038A000BFF35B8F54E8003F5A1E44E80021002913
:1038B000F8D1BFF35B8F012BE3DC10BD002001408A
:1038C0000000002018BD0008080000205000002063
:1038D00070B4466896F84530DA0602D40B799B0638
:1038E0001BD40B78092B18D14B78042B15D14C889D
:1038F000BCB143F6FF739C425DD0A30B032B0CD1EC
:103900002F4D06F12E00002230F8023F2B439BB2D0
:103910009C4207D00132082AF6D16FF0150070BC26
:103920007047224696F9413033B1013BDBB2012B9F
:10393000F3D8002070BC70470B7903F01F03092BEC
:1039400003EB430130D91E3943EA015303F00075FC
:1039500030684FF0007114460C3091FAA1F121B19A
:10396000B1FA81F1CD4000EB85004FF0F8710568A8
:1039700091FAA1F103F0F873F9B1B1FA81F123FAE8
:1039800001F1072606FA01F1C9430D404FF0F87125
:1039900091FAA1F121B1B1FA81F1CB4002FA03F41D
:1039A0002C4304600020C5E743EA015343F0007351
:1039B0004FF00075CCE70722B4E76FF00701E4E7AA
:1039C00000C0FFFF2DE9F04F036987B082460F4624
:1039D00003F140094FF0FF324FF0FF33484603F048
:1039E000CBFDDAF80430DAF81040D3F80080BB6879
:1039F000C4F894307D68C4F8A0502846FDF7A7F8B5
:103A0000002284F8A40084F8A52097F810C084F858
:103A10009CC0002D00F0FD80102800F3FA80DAF839
:103A2000045095F940002E6890420ADDAB6A013BD4
:103A300003E00132824200F0EC8013F8011F61457F
:103A4000F7D1824200F0E580EB6A53F822107368E8
:103A500003F040738B424FEA820240F0C280DAF8F2
:103A60001030D3F8A000002856D04FF4407393FADA
:103A7000A3F30293B3FA83F3CDE904944FF0000C5F
:103A800003934FF0010E03E098430CF1010C41D079
:103A900090FAA0F3B3FA83F303EB4302092B43EA52
:103AA000025198BF41F0007295F9421084BF1E3A4E
:103AB00043EA025201290EFA03F3E5D180495FFA85
:103AC0008CFB1F2451F82B1002F01F0201F01F097C
:103AD00002FA09F204FA09F9029C06F12C0A01F42F
:103AE00040711CB1039CE1400AEB810A754951F811
:103AF0002BB0DAF8001021EA09011143CAF80010CE
:103B0000F26A22F4700242EA0B029843F2620CF16C
:103B1000010CBDD1DDE90494736843F480737360D4
:103B200094F8A4303A685B0012B1928902FB033327
:103B3000FA689A42C0F0C0807B7C002B40F0B980CC
:103B4000BB7C002B40F0B580D8F80830DB0705D4EB
:103B5000D8F8083043F00103C8F808306FF02003AC
:103B6000C8F80030D8F8083043F48063C8F808304B
:103B7000D8F8043043F02003C8F804303E460FCE96
:103B800004F164050FC54FF0000C33682B60C4F8D6
:103B900060C03B684BB10FCB04F1780585E80F009E
:103BA0006566A4F888C000284DD1D4E92432C4F851
:103BB00098205B681A68936843F0804393604FF0E5
:103BC000FF324FF0FF3304F1500003F0D5FC0546FF
:103BD00040BB256E484603F099FC284607B0BDE877
:103BE000F08FB368DB070BD53368D80622D4B368EF
:103BF00023F00103B360B368D907FCD4EB6A99588A
:103C0000736823F040730B437360DAF804502E6836
:103C100025E76FF01505484603F078FC284607B005
:103C2000BDE8F08F2066484603F070FC284607B0D8
:103C3000BDE8F08F6FF00F05484603F067FC28469B
:103C400007B0BDE8F08FBFF35B8F54E8003F44E856
:103C500000C2002AF9D1BFF35B8FA36F63334CF12D
:103C6000000C190DC3F3130241EA0C311144164A3A
:103C7000A2FB0102D20802EB820202EB82028A1A44
:103C80009B1A124A12496CF1000C03FB02F201FB71
:103C90000C22A3FB01310A449B0843EA8273920879
:103CA000CDE9003204F108000022002304F0D4FB27
:103CB00085E76FF08505AEE76FF00B05ABE700BF5A
:103CC000E0D10008A0D100081F85EB51F5285C8FDA
:103CD000295C8FC22DE9F043DFF8D0904668056972
:103CE000D9F8088034684FF6FF7383B0A5F8A63082
:103CF000C5F89000D8F800304768E3B107F1080133
:103D000048469847B8B997F84530DA070AD5D8F841
:103D1000183007F1100173B102464846984750B970
:103D200097F84530980729D41F4A396A536823F415
:103D300040330B435360706A01AA002101F038FF41
:103D4000002827DB019B00221979186801F05CFF2D
:103D500000281FDB736803B19847A368DA0707D50B
:103D60002368A36823F00103A360A368DB07FCD4E6
:103D7000AB6CA3B1002003B0BDE8F083D8F81830D5
:103D800007F11801002BD6D00848002298470028D8
:103D9000CAD0D0E7811CDDD003B0BDE8F08305F1C7
:103DA000400003F0B3FBE5E70023014074BB0008CB
:103DB0002DE9F04F1F465B889346BA88013389B0DE
:103DC0001344FA88BDF84CA005919C18129B002B57
:103DD00000F02A81BAF57A7F80F02681836807A9EE
:103DE0009B6A9847002840F02381BAF1000F00F049
:103DF000D680129B3A89DDF81C80019203FB04F106
:103E0000BBF80830B8FBF1F1994238BF194691422E
:103E100000F3F280129B03FB01F06FF00043049368
:103E20004BE0B7F806C0AC4528BFAC460EF1FF35F5
:103E3000A5EB0C05ADB2AA4265D2AEEB020CFD8833
:103E40000CF1FF3C1FFA8CFC654530D3B6EB520FEA
:103E50004FEA520503D2039EAE4228BF2E46951B61
:103E6000ADB2AB425DD3029BAB425AD82B464FF466
:103E70007A7502FB0552B2FBF4F292455BD2B2EBCB
:103E80000A0214D4049CA24211DA049200221446BD
:103E900066F30F0263F31F426CF30F04059B61F39B
:103EA0001F44C3F80220C3F806403B890193129BCC
:103EB0001844019B01318B425ADBB8FBF0F400FB44
:103EC0001483002BF3D15C4ABBF80690BBF8046066
:103ED000029604FB0AF3A2FB03351FFA84FE7A88DC
:103EE000BB880392AEEB9515ADB29A184D45BBF861
:103EF000026092B295D8CC460EF1FF35A5EB0C05C9
:103F0000ADB2AA4299D3029A324492B2AA422DD9B2
:103F1000AEEB020E0EF1FF3E1FFA8EFCE14595D985
:103F2000C5E74FF47A75D61A02FB0552B2FBF4F2DC
:103F30009245B6B2A3D3BAEB0202B8D4049C944221
:103F4000B5DD002425466CF30F0566F30F04059ECE
:103F500063F31F4461F31F45C6F80240C6F80650DC
:103F6000002A32D03B8904920193A0E72A466DE7EC
:103F70000599CB888A885B08934228BF13460B803B
:103F8000BBF80020934218D805990A80049A6FF074
:103F900000439A4241D0049809B0BDE8F08F274B06
:103FA000129A9A420ED8264A129940F26B339142E5
:103FB00094BF9A464FF4487A1BE73A889A4228BF42
:103FC0001A46E1E740F2EE2A13E74FEA5C0C9C4503
:103FD000059A28BF9C46A2F800C0BBF80030634594
:103FE00007D23B88634528BF6346138000230493B0
:103FF000D1E7059A1380F9E70599CB888A885B0891
:10400000934228BF13460B80BBF80020934208D987
:104010003A88934228BF13460B806FF085030493C0
:10402000B9E7059B1A80F8E76FF015030493B2E730
:104030006FF004030493AEE7D34D621000350C001B
:1040400020A107001046116103F060BA2DE9F0418C
:1040500006468AB0DDE91050D6F80880002936D02F
:1040600017464A790C46D20758BF1A49226848BFFA
:104070004FF0604111422AD15DB1CDE91050D8F81E
:1040800014503A4621463046AC460AB0BDE8F041ED
:1040900060470393294605AD0122284603F02AFA1A
:1040A00021460D4C01950094039BD8F814403A46E4
:1040B0003046A04710B10AB0BDE8F0814FF0FF32A2
:1040C0004FF0FF33284603F057FA0998F3E76FF0F3
:1040D0001500F0E700F8FFFF4540000870B51446F2
:1040E00082B01E468268074D8368AC4207D8CDE98E
:1040F000004630323A33FFF75BFE02B070BD6FF01E
:104100001500FAE740420F0030B58268B1F800C0F0
:10411000148E836864452BD85C8F644528D34C8803
:10412000B2F832E0A64523D8B3F83CE0A6451FD349
:10413000B1F804E0948E74451AD8DC8F744517D317
:10414000CC88D58EA54213D8B3F84050A5420FD3E2
:10415000158F0A8995420BD8B3F84250954207D380
:10416000F44505D8A44503D8BDE830401B6918477D
:104170006FF0850030BD00BF43685B6921B1006905
:10418000007950B9042008702AB19969090C11709E
:104190009B691B0E5370002070479869400705D437
:1041A0009869800705D502200870EDE703200870A4
:1041B000EAE7986910F0010018BF01200870E3E7F2
:1041C0000B230B600020704738B5074D4368AA6881
:1041D000D46834B10A46284603F11C01A04700B94F
:1041E00038BD6FF0040038BD74BB000800290CBF57
:1041F0000E200720704700BF436800695B69C0E973
:1042000002125A6919B142F4E0625A61704722F40D
:10421000E0625A61704700BF2DE9F04143680669CA
:104220005D69884606F110044FF0FF324FF0FF330E
:10423000204603F091F836793EBBB8F80830B8F85C
:104240000000EF69B8F80410DFF84CC0B8F8062099
:10425000013B013807EA0C0CC3F3090300060139DE
:1042600000F0407043EA0C030904013A01F47021A4
:104270000343120502F4E0020B431343EB612046B3
:1042800003F0E2F83046BDE8F081204603F0DCF8A8
:104290006FF00F00F7E700BF00FC80FCF8B5436843
:1042A00006695D6931F00B032CD133793BBB0C46B9
:1042B00006F110074FF0FF324FF0FF33384603F09E
:1042C0004BF8EB69E0074CBF43F0804323F0804399
:1042D000EB61EB69A1074CBF43F0004323F00043BF
:1042E000EB612B6822074CBF43F0100323F010034F
:1042F0002B603460384603F0A7F80020F8BD6FF05B
:104300000F00F8BD6FF08500F8BD00BF2DE9F04744
:1043100088461F4698F804304168D0F810904D69DF
:10432000082B00F2868098F80530032B00F2848079
:1043300099F80430002B00F08280AB69580775D4DF
:10434000164609F110044FF0FF3220464FF0FF33BC
:1043500003F002F8A86810F0E05F1BD109F1240A0D
:104360000AE04FF0FF324FF0FF33204602F0F4FF37
:10437000A86810F0E05F0DD1204603F065F83246E2
:104380003B46504603F0F8F80028EAD06FF00A00E8
:10439000BDE8F087410133D505F5C07509F1340951
:1043A000089BC9F80030099BC9F804302B6803F05A
:1043B00001032B6098F80530D8F8002013F0010FA6
:1043C0002B681ABF43EAC20343F0040343EA425393
:1043D0002B6098F805309B071CD52B6843F002032F
:1043E0002B6098F8043003F00F036B602B6843F0E8
:1043F00001032B60204603F027F80020BDE8F0877A
:1044000002010ED410F080501CD005F5D07509F1D2
:104410004409C5E7D8F80830AB60D8F80C30EB6039
:10442000DFE705F5C87509F13C09B9E76FF07100E0
:10443000AEE76FF01500ABE76FF08500A8E76FF00F
:104440007200A5E7089B03600368099B4360FFDED9
:104450002DE9F843D0F804800669D8F8145006F125
:1044600010074FF0FF334FF0FF32384602F074FF71
:10447000337923BBD8F8000028B1836831681B6802
:1044800098470446A8B92B68DFF84C9023F0010345
:104490002B6002F02FFD044604E002F02BFD001B10
:1044A00048450FD86B6813F00103F6D10122327131
:1044B0001C46384602F0C8FF2046BDE8F8836FF07E
:1044C0007704F6E7D8F8000010B183685B68984776
:1044D0006FF00404EDE700BF00F91500002210B5ED
:1044E000114604461420FEF7DFFB1420FEF7CEFB36
:1044F000002211461320FEF7D7FB1320FEF7C6FB60
:10450000002211461620FEF7CFFB1620FEF7BEFB59
:10451000636943F4044343F01303636110BD00BFB8
:104520002DE9F0474368D0F810805C69E36899078B
:1045300084B03BD00026074635464FF00109CDE94F
:104540000155D4F8B431D4F8B021039512F0040F1A
:10455000D4F8B021D4F8B0111ABF8DF80590D20864
:10456000520D00928A07C3F3072323D59DF8052037
:1045700042F002028DF80520D4F8B421062B02F097
:104580000F028DF8042023D808EB8303D3F884604E
:10459000D3F8D8A01EB1524669463846B047E36802
:1045A00043F02003E360E3689B07C8D1E36804B0ED
:1045B000BDE8F087D4F8B811D4F8BC21CDE90212D7
:1045C000D4F8B421062B02F00F028DF80420DBD9B9
:1045D000222BDFD808EB83031E6BD3F884A0D9E726
:1045E000F8B5436807695C69A569A36805F0040527
:1045F00003F001032B4306460ED0A368980767D546
:104600000021A36843F00103A3607B6B23B1BA6B65
:104610003046984700237B63A36803F480732B43E1
:104620000AD1A36803F480332B431AD1A36813F093
:10463000E05F2AD1F8BDA368A368980538D50021AA
:10464000A36843F48073A360FB6B002BE9D03A6C42
:10465000304698470023FB63A36803F480332B4361
:10466000E4D0A368980316D50021A36843F48033EF
:10467000A3607B6C002BD9D0BA6C304698470023DE
:104680007B64A36813F0E05FD4D007F12400BDE899
:10469000F84002F03BBFA3681A0330D4A3685B0361
:1046A00036D4002D14BF6FF071016FF00401DCE708
:1046B000A3681A0520D4A3685B0526D4E5B1A368D6
:1046C00043F48073A360FB6B2BB36FF07101BEE703
:1046D000A3681A070DD4A3685B0713D44DB1A36870
:1046E00043F00103A3607B6B002BA4D06FF071013A
:1046F0008DE76FF0040184E76FF00401A0E76FF02D
:104700000401B2E76FF00F017BE76FF00F0197E74D
:104710006FF00F01A9E7A368A3E700BFFFF760BF31
:104720002DE9F04143685D696B685B0782B002D494
:1047300002B0BDE8F0810446FFF752FF26690DF193
:10474000030101AA2046D6E90278FFF715FD9DF87E
:10475000031096F8F4308B4206D086F8F4101FB19F
:10476000019A43462046B8476B6843F004036B60E8
:1047700002B0BDE8F08100BF2DE9F04385B0456887
:1047800007696C694FF00008CDE901880646ADF86D
:104790000C80584802F0D8FD07F1100002F0D4FD5B
:1047A0000122414607F1240002F0A4FE286828B146
:1047B00002F08EFC6FF0120800285DD04E4883682E
:1047C0001B6805F11C01002B00F091809847814681
:1047D000002840F08C80A86A6A46494601F0E8F952
:1047E000B0F1000848DB009B4A461979186801F0CF
:1047F0000BFAB0F100083FDB2368DFF8009143F0CB
:104800000103236002F076FB804605E002F072FBB4
:10481000A0EB08034B454BD86368DA07F6D523684D
:10482000DFF8D89023F00203236002F063FB804698
:1048300005E002F05FFBA0EB08034B453CD8636842
:104840009B07F6D4D5E9053293423BD0236823F089
:10485000FC032360236843F040032360EA682B8A4B
:1048600001A93046FFF73AFC163040D001A9304686
:10487000FFF74AFC804618B1404605B0BDE8F0831A
:1048800001463046FFF70AFD80460028F4D107F1C3
:10489000F40142463046FFF76FFC6B6A20469847AA
:1048A0006369404643F00103636105B0BDE8F083EE
:1048B000236823F0010323606FF00A08404605B027
:1048C000BDE8F083D3F8002242F00102C3F80022D1
:1048D000AA69D2F80C3243F07F03C2F80C32AA69FD
:1048E000D2F8003223F00103C2F80032AEE76FF0D5
:1048F0000408C1E7F40B002074BB000800F91500A0
:104900002DE9F8431D461B7A0669012B00F28A80C7
:104910000446884617464FF0FF324FF0FF334348B6
:1049200002F01AFD06F110094FF0FF324FF0FF338D
:10493000484602F011FD6168287A2369D1E9051221
:104940008A4214BF0E21002110F0010013D08033E1
:10495000002453F8040F00285AD00134072CF8D152
:104960006FF01B04484602F06FFD304802F06CFD0A
:104970002046BDE8F883483353F8044F34B1013082
:104980000E28EDD053F8044F002CF8D16B685B0172
:1049900043F0180C2B68073101EB6001C41D5B016B
:1049A000D2F8000240F00100C2F80002287AC007E5
:1049B00020D502EBC100C0F84032C0F844C2D2F8A2
:1049C0001C0201238B400343C2F81C32D2F8003290
:1049D00023F00103C2F800322B7A06EB8406DB07D2
:1049E00047BFC6F88480C6F8D870C6F83080C6F8CD
:1049F0008470B7E701F1480014F0010F08BF02EB23
:104A0000C00043EA0C4314BF42F830304360D6E79D
:104A10002B686868DB00C000214443F0040340F0C9
:104A2000060CBDE76FF08504A2E700BFF40B002081
:104A3000222900D970472DE9F041D0F8048005699A
:104A4000D8F818600C464FF0FF324FF0FF333B4868
:104A500002F082FC05F110074FF0FF324FF0FF33F8
:104A6000384602F079FCD8E90532934214BF0E2390
:104A70000023062C05EB84052ADC0022C5F88420DF
:104A8000C5F8D820D6F80012234441F00101C6F839
:104A9000001206EBC301C1F840224FF0FF32C1F80B
:104AA0004422D6F81C22012101FA03F322EA03036F
:104AB000C6F81C32D6F8003223F00103C6F80032E3
:104AC000384602F0C1FC1D48BDE8F04102F0BCBC14
:104AD0000022073C07332A63C5F88420E20703EB72
:104AE00064030DD40C2C1ADDD6F8001203F1480231
:104AF00041F00101C6F80012114946F83210D0E722
:104B0000D6F80022E96A0E4842F00102C6F80022F7
:104B100006EBC302C2F844020029CBD1C1E7D6F8A4
:104B20000022696B064842F00102C6F8002203F138
:104B3000480246F832000029BCD1B2E7F40B00204D
:104B40000000FFFF2DE9F047D0F804A00669DAF86D
:104B50001440804606F110094FF0FF3348464FF0ED
:104B6000FF3202F0F9FB3379002B4DD02368284F38
:104B700043F00103236002F0BDF9054604E002F0B2
:104B8000B9F9401BB84233D86368DB07F7D5736BBC
:104B900033B1B26B6FF072014046984700237363E4
:104BA000F36B33B1326C6FF07201404698470023CB
:104BB000F363736C33B1B26C40466FF07201984787
:104BC00000237364A36843F0801343F40043A3609D
:104BD000DAF8000020B183685B689847054608B999
:104BE00000253571484602F02FFC2846BDE8F087C5
:104BF000236823F001036FF004052360484602F0A8
:104C000023FC2846BDE8F0876FF07705EAE700BF90
:104C100000F915000B88C3F30B0303F57D62C2F3A3
:104C20000B02782A18D810B403F1804303F50E3331
:104C30004C681A68224383B01A600B88C3F30B03D5
:104C400003F1804303F50E3300201B680193019BA1
:104C500003B05DF8044B70476FF08500704700BFEC
:104C60000B88C3F30B0303F57D62C2F30B02782AB2
:104C70000AD803F1804303F50E3349681A6822EA23
:104C8000010200201A6070476FF08500704700BF76
:104C90000A884B68C2F30B02162A99B2C3F3044C7C
:104CA0001CD8104820FA02F2D20717D5FF2B13D0D8
:104CB000C3F3415001F1804101F50E310130012271
:104CC0008240013A086802FA0CF21B0E20EA020246
:104CD00003FA0CF313430B60002070476FF085005C
:104CE000704700BFE20060000B88C3F30B0303F5BD
:104CF0007D62C2F30B02782A0AD803F1804303F5E0
:104D00000E334A681B689A430CBF0220012070478B
:104D1000162B05D80348D84000F001000130704739
:104D200001207047E200600038B50C462E49238808
:104D30000868C3F30B03442B154628D84BB3013B3B
:104D40008208432B25D8DFE803F02E4A4A4A482739
:104D50003B24242424242424242424242424462ED0
:104D60002424242424242424242424242424242403
:104D70002424242424242424242E2424242E2424DF
:104D8000242E242424242424244C2424242DA82B1D
:104D900009D06FF0850038BD00F0C4F8800800EB42
:104DA000C0000001400828602368B3F5805F05D388
:104DB000C3F313330133B0FBF3F02860002038BD98
:104DC00000F0B0F88008094B00EBC0000001A3FB25
:104DD00000308008E7E75000E5E70548E3E70020FA
:104DE000E1E71046DFE700BFB0010020ABAAAAAAA6
:104DF00000127A00704700BF70B5454D00F0B2F860
:104E00002846FFF7F7FF02F0B1F8424B424A9B6891
:104E10001178C3F303130D41D35C20FA03F6AE42BD
:104E200055D33C4A136823F480231360136843F47A
:104E30008033136013689B03FCD5936803F00C0365
:104E4000082B4CD0334C236823F0807323602368F5
:104E50009A01FCD4314AD2F8043823F44033C2F822
:104E60000438D2F8043823F0706343F0C063C2F80A
:104E7000043800F05BF82368264A43F0807323600F
:104E800013689B01FCD59368224923F0F0039360DB
:104E9000936823F0030343F0020393608B6803F0ED
:104EA0000C03082BFAD1AE4215D21D4B194A1849F2
:104EB0001960936823F4E05343F4A053936093681C
:104EC00023F4604343F400439360002070BD284600
:104ED00002F080F8A5E7284602F07CF8E5E71368C1
:104EE0009C0707D413680B4943F0010313600B6858
:104EF0009807FCD5074A936823F0030393609368EF
:104F000013F00C0FFBD1936823F0F003936099E743
:104F1000004495080038024060D400080030024088
:104F2000B00100200048704700127A00084B094980
:104F30005868094A01400A435A605A68074922F4EE
:104F400040325A605868064A01400A435A60704726
:104F5000003802400080BFFF042440000080BFF002
:104F600004244006064B1A6C42F0805282B01A6448
:104F70001B6C03F080530193019B02B0704700BF8C
:104F8000003802400A2838B5044607D0074DAB6800
:104F900006485B68E1B29847204638BD034DAB68D0
:104FA0000D215B6828469847F1E700BFFCBC00086C
:104FB00008B5074802F08CF838B10648FEF76EFADB
:104FC0000448FDF7FBF9002008BD6FF0120008BD92
:104FD000FCBC0008854F000843685B681B690B60D8
:104FE0000020704710B443685B685C6962400A4007
:104FF00062405A6100205DF8044B704743685B686B
:1050000000209961704700BF43685B680904002075
:105010009961704743685B685A6951400020596143
:10502000704700BF70B40569AE684EB133460024C6
:1050300000E003468B420BD018681C460028F8D1CC
:10504000FAB10E60EB68A9609BB1002070BC70479C
:105050000B6884B12360EB68994208BFEC600023C1
:105060000B60002AF1D0AE680E60EB68A960002BDF
:10507000EBD1E960E9E7E868AB608142EFD1EB6032
:10508000EDE76FF01500E1E72DE9F843D0F8049063
:1050900016460746D9F8080088461C46FEF7BEFAB1
:1050A000B6F5001F2AD0B6F5800F3FD0B4F1806F5F
:1050B000054621D0B4F1C06F18D0B4F1007F17D1EC
:1050C00002241C493A462846FEF7FAFA58BBD9F89A
:1050D00008104046FEF728FB28462146FEF7C4FA92
:1050E0002846FEF7A1FA0020BDE8F8830324E8E78C
:1050F0006FF01500BDE8F8830124E2E74046D9F8D7
:105100000840FEF72FFB8442EDD14146FEF786FAB8
:105110000446FEF7A1FA2046FEF7F4FA00212046E5
:10512000FEF7A2FADFE76FF00F00DDE76FF0850012
:10513000DAE700BFBD52000870B512F4003305690C
:1051400094460C461CD012F0020F63D11CF0100FD5
:105150004FF010020CF4C06E66D0BEF5806F00F008
:105160008380BEF5C06F00F0968042F40072BEF5F9
:10517000007F19D11CF4403F42F080023AD013E086
:1051800012F4803F29D012F0100F59D10CF4C06EE8
:10519000C2F34012BEF5806F4FEA82225ED0BEF5A8
:1051A000C06FE4D142F4C0726E6826FA04F1C907F8
:1051B00003D40121A14031436960002B57D01CF476
:1051C000002358D0416801234968A3408B61002324
:1051D0002146FDF745F9002070BD02F4C06CBCF516
:1051E000806F3ED0BCF5C06F52D0BCF5007F14BFBD
:1051F0003022B02200232146FDF732F96B6823FAF2
:1052000004F2D20704D50122A24023EA02036B6014
:10521000002070BD12F0040F4CD01CF0100F4FF0A6
:1052200050020CF4C06E98D11CF0200F13D0BEF5C4
:10523000806F3CD0BEF5C06F36D042F4806296E7F6
:1052400002F4C06EBEF5806F2BD0BEF5C06F25D0C6
:105250004FF400728BE7BEF5806FA0D142F48072EC
:10526000A2E74FF49872C5E742F440729CE72146EA
:10527000FDF7F6F8CCE71CF4802CA8D041684D6807
:105280004FF48031A140A9612146FDF7E9F8BFE75D
:105290004FF4D872AEE742F4607285E74FF4607263
:1052A00082E74FF440727FE742F4B0627CE742F459
:1052B000A06279E76FF0850070BD00BF0B699B6845
:1052C0007BB170B51C680E4605469A682A4019469F
:1052D000304601D05B68984714B123462468F4E750
:1052E00070BD7047036993F850201AB11B6A0B60B8
:1052F000002070476FF00400704700BFF0B54368AE
:105300000569DE685A6883B004461F48002301938C
:105310008368DB68002B33D00F46114601AA9847FB
:1053200000282DDB2F6205F110074FF0FF324FF000
:10533000FF33384602F020F9336823F0010333606D
:10534000626895F85230D168226982F8523093B180
:105350002046019900F00EFB95F8513004462BB918
:10536000384602F0D3F8204603B0F0BD336843F06E
:1053700001033360F4E70B6823F01A030B60E7E7DF
:105380006FF00404EFE700BF74BB00082DE9F043A1
:1053900098460B7A43F0040383B00746144600692D
:1053A0000B72002A45D00D460122531C9442DAB2FA
:1053B0000AD90B7A0E7D83EA060C1CF0010F01D08E
:1053C000760730D59B072ED4944201F10C01ECD224
:1053D00000F110094FF0FF3248464FF0FF3302F062
:1053E000CBF80BE095E80E00CDE9006800F030FB4B
:1053F000061E04F1FF340FDB0C35E4B2012C05F17D
:1054000014063846EED1002095E80E00CDE90008DC
:10541000384600F01DFB0646484602F077F8304655
:1054200003B0BDE8F0836FF01506304603B0BDE869
:10543000F08300F110094FF0FF324FF0FF33484680
:1054400002F09AF82646E7E770B504464668056913
:105450004FF0FF320021284602F04CF83368204616
:105460009847002385F8503085F8523001221146C4
:1054700005F1100002F03EF8204600F05DF8144BF4
:105480003169994220D014D9124B99421AD003F5B0
:10549000C31303F52063994214BF10211A2120463B
:1054A000FFF72CFF002803DB012385F85030002094
:1054B00070BD094B994209D0084B994214BF102185
:1054C0001421ECE71821EAE71621E8E71221E6E7C4
:1054D00040420F0040E13300A0860100801A060020
:1054E00008B5002211461F20FDF7DEFB1F20FDF747
:1054F000CDFB002220201146FDF7D6FBBDE8084079
:105500002020FDF7C3BB00BF08B5002211462120B3
:10551000FDF7CAFB2120FDF7B9FB0022222011462E
:10552000FDF7C2FBBDE808402220FDF7AFBB00BF7E
:1055300000F0E8B800F0E8B910B5446882B06069DE
:1055400001AA002100F034FB00280EDB019B0022A1
:105550001979186800F058FB002806DB05486168D7
:1055600083681B681BB1984708B902B010BD6FF083
:105570000400FAE774BB00088B6CC26823B3022BEB
:1055800035D0032B3FD0012B28D1136823F480633F
:105590001360136823F400631360CB6A980703D584
:1055A000136843F400731360536823F480635360FB
:1055B000D1E91230013B8B6413690370CB6C01336A
:1055C000CB64084601F0A2BFCB6A9B0703D51368E2
:1055D00043F400731360084601F098BF013BC86CA8
:1055E0008B6413690370CB6C0133CB6470474B6CD5
:1055F0005B68022B0CD8136823F480631360136874
:1056000043F400631360536823F48063536070476E
:10561000704700BFC3685A6822F4C0625A605A6873
:1056200022F4C0625A605A6822F400725A605A68C2
:1056300022F480625A6091F851201AB95A6822F413
:1056400080725A60704700BFF8B54368DC68236811
:1056500023F00103236001694068FFF7DBFF266840
:105660006568A368E068E169226A276847F4004733
:10567000276027689BB2B6B2ADB243F4804380B2D4
:1056800089B292B227F40047276026606560A36064
:10569000E060E1612262F8BD38B50369D3E90D54D9
:1056A000DA6B94B93ABB5DBB09B1002038BD4068E4
:1056B0001946C468FFF7AEFF91F85130002BF4D1C2
:1056C000236823F001032360EFE70DB10021596344
:1056D000002199638AB943680169DC681846FFF7BD
:1056E00099FF91F851301BB9236823F0010323601F
:1056F0006FF0040038BD05B15C630022DA63EAE7AD
:105700005A63E8E710B442680169D3685869C4076E
:1057100085B01ED4586900070AD51A6991F824107B
:1057200022F0FF020A431A6105B05DF8044B70478E
:105730005869840757D4586940072BD45869000624
:105740006CD5086B002840F0AE805B695B066CD4BA
:10575000EAE7086A8A8C10F0010032D1086B520027
:10576000D2B240B1196921F0FF010A431A6105B0B4
:105770005DF8044B7047186942F0010220F0FF0009
:1057800002431A618A6C022ACED11A6842F400627E
:105790001A60C9E70C6B886C002C6CD1022800F0F1
:1057A0009A80032841D11A6822F480621A60D1E9F4
:1057B0001220013A8A641B690370CB6C0133CB64FD
:1057C000B2E78C6AD21102F00602002C33D142F00B
:1057D000F0028862196921F0FF010A431A6105B0DD
:1057E0005DF8044B7047086A0A6BC00727D5002A8A
:1057F0003AD1886A20B38A625A690392039A9A69F5
:105800000392039A1A68940503D54FF6FF510A4094
:105810001A601A6842F480721A6085E75B6958065C
:1058200082D50B6B002B7FF47FAF104605B05DF87F
:10583000044BFFF7A1BE42F0F1020020C9E79AB97C
:105840008A6C012A2AD0022A07D11A6822F48062BF
:105850001A601A6842F400621A605A690192019A49
:105860009B690193019B5FE75A690292029A9B69C7
:105870000293029B58E7E8B10138886418B95A6866
:1058800022F480625A60CA6C1869127820F0FF0016
:1058900002431A61CB6C0133CB6445E71A6822F4EA
:1058A00080621A60D9E78A6C22B1013A8A64002AC0
:1058B000E9D1E4E7CA6A920703D51A6842F4007294
:1058C0001A605A69540700D51B69084605B05DF88F
:1058D000044B01F01BBECA6A940704D51A6842F44F
:1058E00000721A60886CCA6C01388864186910707C
:1058F000D1E91220441C013AC1E912241B6943700A
:10590000CB6C0133CB64E0E710B54368D9684B69D1
:1059100013F4806F02464B69006914D113F4007FC1
:105920004B691AD1DB051ED4486910F4006000D120
:1059300010BD4B6923F400634B61106901F0E6FD73
:105940006FF0040010BD23F480634B610B680124E9
:1059500043F400730B608463EFE7012423F40073C6
:105960004B614463E9E74B69012423F480734B6185
:10597000C463E2E710B4036942681B6AD268C3F3E8
:105980004203012B2CD0022B04D06FF015005DF8E0
:10599000044B7047294B5068A3FB013C4FF49674AD
:1059A00020F03F004FEA9C4340EA9C4004FB03F395
:1059B000234C5060106AA4FB03439B09214C013324
:1059C00020F03F000343A142136230D848F20101A6
:1059D000D36923F44F4323F0FF030B43D36122E049
:1059E0005068164B20F03F00A3FB014340EA934070
:1059F0005060106A9B0C20F03F0001330343136298
:105A00001148D3698909A0FB010140F6FC7414EA2E
:105A1000911423F44F434FEA911023F0FF0308BF82
:105A200004200343D36100205DF8044B7047074B0B
:105A3000A3FB0131C90C41F40041C9E783DE1B43DC
:105A4000D34D62107F4F1200632D3E05851DD96F27
:105A50002DE9F04385B001AF87E80E009DF80C609A
:105A6000BDF834900469436816F00106054647D135
:105A7000D3F80C80204601F0ABFDDDE90132C4E92A
:105A800012239DF80C20A6620123C4E90E66C4E926
:105A90000B2366636764A4F82490D8F8003043F0C1
:105AA0000103C8F80030D8F8003023F40063C8F8C8
:105AB0000030D8F8003043F48063C8F800309DF817
:105AC0000C305E075ED46B68DB685A6842F4807203
:105AD0005A605A6842F400725A605A6842F480620E
