:020000040800F2
:10000000002A0020191C0008597D0008051C000862
:10001000051C0008051C0008051C00080000000065
:100020000000000000000000000000004D1C00085F
:10003000051C000800000000DD1E00088D450008BA
:10004000911F0008911F0008911F0008911F0008D0
:10005000911F0008911F0008911F0008911F0008C0
:10006000911F0008911F0008911F0008911F0008B0
:10007000911F0008911F0008911F0008911F0008A0
:10008000911F0008911F0008911F0008911F000890
:10009000911F0008911F0008911F0008911F000880
:1000A000911F0008911F0008911F0008911F000870
:1000B000911F0008911F0008911F0008911F000860
:1000C000911F0008911F0008911F0008911F000850
:1000D000911F0008911F0008911F0008911F000840
:1000E000911F0008911F0008911F0008911F000830
:1000F000911F0008911F0008911F0008911F000820
:10010000911F0008911F0008911F0008911F00080F
:10011000911F0008911F0008911F0008911F0008FF
:10012000911F0008911F0008911F0008911F0008EF
:10013000911F0008911F0008911F0008911F0008DF
:10014000911F0008911F0008911F0008911F0008CF
:0C015000911F0008911F0008911F00087B
:1001600081F0004102E000BF83F0004330B54FEA68
:1001700041044FEA430594EA050F08BF90EA020FD5
:100180001FBF54EA000C55EA020C7FEA645C7FEA68
:10019000655C00F0E2804FEA5454D4EB5555B8BF8B
:1001A0006D420CDD2C4480EA020281EA030382EAFC
:1001B000000083EA010180EA020281EA0303362D8E
:1001C00088BF30BD11F0004F4FEA01314FF4801C61
:1001D0004CEA113102D0404261EB410113F0004F73
:1001E0004FEA03334CEA133302D0524263EB43032A
:1001F00094EA050F00F0A780A4F10104D5F1200EC8
:100200000DDB02FA0EFC22FA05F2801841F1000122
:1002100003FA0EF2801843FA05F359410EE0A5F1F6
:1002200020050EF1200E012A03FA0EFC28BF4CF027
:10023000020C43FA05F3C01851EBE37101F00045DD
:1002400007D54FF0000EDCF1000C7EEB00006EEBEA
:100250000101B1F5801F1BD3B1F5001F0CD3490874
:100260005FEA30004FEA3C0C04F101044FEA4452CB
:1002700012F5800F80F09A80BCF1004F08BF5FEA52
:10028000500C50F1000041EB045141EA050130BD32
:100290005FEA4C0C404141EB0101013C28BFB1F544
:1002A000801FE9D291F0000F04BF01460020B1FA8F
:1002B00081F308BF2033A3F10B03B3F120020CDA62
:1002C0000C3208DD02F1140CC2F10C0201FA0CF040
:1002D00021FA02F10CE002F11402D8BFC2F1200CA5
:1002E00001FA02F120FA0CFCDCBF41EA0C0190405B
:1002F000E41AA2BF01EB0451294330BD6FEA0404A4
:100300001F3C1CDA0C340EDC04F11404C4F120028E
:1003100020FA04F001FA02F340EA030021FA04F3A0
:1003200045EA030130BDC4F10C04C4F1200220FAF7
:1003300002F001FA04F340EA0300294630BD21FA35
:1003400004F0294630BD94F0000F83F4801306BFFB
:1003500081F480110134013D4EE77FEA645C18BFEF
:100360007FEA655C29D094EA050F08BF90EA020F86
:1003700005D054EA000C04BF1946104630BD91EA7E
:10038000030F1EBF0021002030BD5FEA545C05D181
:100390004000494128BF41F0004130BD14F58004C0
:1003A0003CBF01F5801130BD01F0004545F0FE4134
:1003B00041F470014FF0000030BD7FEA645C1ABF69
:1003C000194610467FEA655C1CBF0B46024650EAA0
:1003D000013406BF52EA033591EA030F41F40021CC
:1003E00030BD00BF90F0000F04BF0021704730B552
:1003F0004FF4806404F132044FF000054FF0000127
:1004000050E700BF90F0000F04BF0021704730B5E7
:100410004FF4806404F1320410F0004548BF4042BC
:100420004FF000013EE700BF42004FEAE2014FEA11
:1004300031014FEA02701FBF12F07F4393F07F4FEC
:1004400081F06051704732F07F4208BF704793F0EF
:100450007F4F04BF41F40021704730B54FF4607402
:1004600001F0004521F000411CE700BF50EA010205
:1004700008BF704730B54FF000050AE050EA0102AE
:1004800008BF704730B511F0004502D5404261EB1E
:1004900041014FF4806404F132045FEA915C3FF45F
:1004A000D8AE4FF003025FEADC0C18BF03325FEAFC
:1004B000DC0C18BF033202EBDC02C2F1200300FAAD
:1004C00003FC20FA02F001FA03FE40EA0E0021FAD2
:1004D00002F11444BDE600BF70B54FF0FF0C4CF4C0
:1004E000E06C1CEA11541DBF1CEA135594EA0C0F72
:1004F00095EA0C0F00F0DEF82C4481EA030621EAAD
:100500004C5123EA4C5350EA013518BF52EA0335E7
:1005100041F4801143F4801338D0A0FB02CE4FF099
:100520000005E1FB02E506F00042E0FB03E54FF0C9
:100530000006E1FB03569CF0000F18BF4EF0010EC1
:10054000A4F1FF04B6F5007F64F5407404D25FEABD
:100550004E0E6D4146EB060642EAC62141EA555170
:100560004FEAC52040EA5E504FEACE2EB4F1FD0CB2
:1005700088BFBCF5E06F1ED8BEF1004F08BF5FEA30
:10058000500E50F1000041EB045170BD06F00046E2
:1005900046EA010140EA020081EA0301B4EB5C048F
:1005A000C2BFD4EB0C0541EA045170BD41F4801187
:1005B0004FF0000E013C00F3AB8014F1360FDEBFAC
:1005C000002001F0004170BDC4F10004203C35DA88
:1005D0000C341BDC04F11404C4F1200500FA05F30B
:1005E00020FA04F001FA05F240EA020001F00042AC
:1005F00021F0004110EBD37021FA04F642EB060122
:100600005EEA430E08BF20EAD37070BDC4F10C044B
:10061000C4F1200500FA04F320FA05F001FA04F20F
:1006200040EA020001F0004110EBD37041F10001FB
:100630005EEA430E08BF20EAD37070BDC4F1200506
:1006400000FA05F24EEA020E20FA04F301FA05F26E
:1006500043EA020321FA04F001F0004121FA04F216
:1006600020EA020000EBD3705EEA430E08BF20EAE6
:10067000D37070BD94F0000F0FD101F00046400020
:1006800041EB010111F4801F08BF013CF7D041EAA2
:10069000060195F0000F18BF704703F000465200A6
:1006A00043EB030313F4801F08BF013DF7D043EA77
:1006B0000603704794EA0C0F0CEA135518BF95EA2D
:1006C0000C0F0CD050EA410618BF52EA4306D1D1B4
:1006D00081EA030101F000414FF0000070BD50EAD3
:1006E000410606BF1046194652EA430619D094EA5D
:1006F0000C0F02D150EA013613D195EA0C0F05D147
:1007000052EA03361CBF104619460AD181EA03019A
:1007100001F0004141F0FE4141F470014FF0000052
:1007200070BD41F0FE4141F4780170BD70B54FF0ED
:10073000FF0C4CF4E06C1CEA11541DBF1CEA13556D
:1007400094EA0C0F95EA0C0F00F0A7F8A4EB05044F
:1007500081EA030E52EA03354FEA013100F0888046
:100760004FEA03334FF0805545EA131343EA12630F
:100770004FEA022245EA111545EA10654FEA0026C4
:100780000EF000419D4208BF964244F1FD0404F57D
:10079000407402D25B084FEA3202B61A65EB0305D9
:1007A0005B084FEA32024FF480104FF4002CB6EB96
:1007B000020E75EB030E22BFB61A754640EA0C0016
:1007C0005B084FEA3202B6EB020E75EB030E22BF56
:1007D000B61A754640EA5C005B084FEA3202B6EB97
:1007E000020E75EB030E22BFB61A754640EA9C0056
:1007F0005B084FEA3202B6EB020E75EB030E22BF26
:10080000B61A754640EADC0055EA060E18D04FEAE3
:10081000051545EA16754FEA06164FEAC30343EA83
:1008200052734FEAC2025FEA1C1CC0D111F4801F50
:100830000BD141EA00014FF000004FF0004CB6E749
:1008400011F4801F04BF01430020B4F1FD0C88BFE8
:10085000BCF5E06F3FF6AFAEB5EB030C04BFB6EBF3
:10086000020C5FEA500C50F1000041EB045170BDE6
:100870000EF0004E4EEA113114EB5C04C2BFD4EB13
:100880000C0541EA045170BD41F480114FF0000E97
:10089000013C90E645EA060E8DE60CEA135594EA13
:1008A0000C0F08BF95EA0C0F3FF43BAF94EA0C0F16
:1008B0000AD150EA01347FF434AF95EA0C0F7FF48B
:1008C00025AF104619462CE795EA0C0F06D152EADF
:1008D00003353FF4FDAE1046194622E750EA4106C3
:1008E00018BF52EA43067FF4C5AE50EA41047FF4D4
:1008F0000DAF52EA43057FF4EBAE12E74FEA410237
:1009000012F5001215D211D56FF47873B3EB625261
:1009100012D94FEAC12343F0004343EA505311F088
:10092000004F23FA02F018BF404270474FF000001A
:10093000704750EA013005D111F0004008BF6FF058
:10094000004070474FF00000704700BF53B94AB9EC
:10095000002908BF00281CBF4FF0FF314FF0FF30C7
:1009600000F00CB8ADF1080C6DE904CE00F01BF8F6
:10097000DDF804E0DDE9022304B07047704700BFF2
:10098000430803F05533C01A00F03333800800F0F9
:100990003330184400EB10104FF0013300F00F30EB
:1009A0005843000E70472DE9F0478C468E46089E4E
:1009B000154604461946002B40F0D080724547D9B1
:1009C000B2FA82F74FB1C7F120030EFA07FC20FA02
:1009D00003F3BD4043EA0C0CBC404FEA154EA8B2ED
:1009E000BCFBFEF8230C0EFB18CC08FB00F943EA15
:1009F0000C43994528D9EB1808F1FF3204D29945E8
:100A000002D9A8F102022B44A3EB0903A4B2B3FB61
:100A1000FEFC0EFB1C330CFB00F044EA0344A04236
:100A200014D92C190CF1FF3304D2A04202D9ACF135
:100A300002032C44241A43EA02401EB1FC40002366
:100A400034607360BDE8F0874246DDE76346F1E756
:100A5000002A79D0B2FA82F3002B3FD01946C1F1B7
:100A6000200302FA01F52EFA03F20EFA01FE20FA33
:100A700003F343EA0E034FEA154E00FA01F4B2FB0A
:100A8000FEFCAFB20EFB1C201A0C0CFB07F842EA6E
:100A9000004290455AD9AA180CF1FF3004D2904573
:100AA00002D9ACF102002A44A2EB08029BB2B2FBCD
:100AB000FEFC0EFB1C220CFB07F743EA02439F429D
:100AC00046D9EB180CF1FF3204D29F4202D9ACF1A7
:100AD00002022B44DB1B42EA004202E0AEEB0203BF
:100AE00001224FEA154EAFB2B3FBFEFC200C0EFB09
:100AF0001C330CFB07F840EA034398452AD9EB184E
:100B00000CF1FF3004D2984502D9ACF102002B441D
:100B1000A3EB0803A4B2B3FBFEFC0EFB1C330CFBDF
:100B200007F744EA0344A74216D92C190CF1FF3306
:100B300004D2A74202D9ACF102032C44E41B43EADD
:100B400000400F46114678E71F2188E76046ABE773
:100B50006246BFE76046DBE76346EFE7734506D9C9
:100B600016B9002108466DE7C6E9000EF9E7B3FAA9
:100B700083F787B9734501D3824207D8841A6EEB95
:100B8000030301209C461EB900215BE73846FAE7C3
:100B9000C6E9004CF8E7C7F1200CBB4022FA0CF57F
:100BA0001D4320FA0CF12EFA0CF30EFA07FE41EA6F
:100BB0000E014FEA154900FA07F4B3FBF9F81FFAE2
:100BC00085FE09FB18300B0C08FB0EFA43EA0043C4
:100BD0009A4502FA07F240D9EB1808F1FF3004D227
:100BE0009A4502D9A8F102002B44A3EB0A0389B26B
:100BF000B3FBF9F809FB183308FB0EFE41EA034189
:100C00008E452CD9691808F1FF3304D28E4502D9DC
:100C1000A8F10203294443EA0040A0FB0298A1EB9B
:100C20000E014145CE46434602D306D14C4504D27F
:100C3000B9EB020E68EB05030138002EA4D0B4EB2B
:100C40000E0261EB030101FA0CFC22FA07F34CEAF5
:100C50000303F940C6E9003196E74046C5E743463D
:100C6000D9E700000000000030B52DED068B0446EA
:100C700093B0002006F0E7FE202C42D10822204647
:100C800008A900F0FDFB444B1888FFF7ABFB0446B6
:100C90000D46BDF92000FFF7B5FB22462B46FFF7B6
:100CA00045FD41EC1A0BBDF92200FFF7ABFB2246D4
:100CB0002B46FFF73BFD41EC190BBDF92400FFF774
:100CC000A1FB22462B46FFF731FD41EC180BBDF985
:100CD0002600FFF797FB22462B46FFF727FD41EC46
:100CE000130BB0EE4A0AF0EE6A0AB0EE491AF0EEC3
:100CF000691AB0EE482AF0EE682A13B0BDEC068BF4
:100D000030BD062208A9204600F0BAFB142C38D0CA
:100D100006D8082C0CD00E2C0CD0204D00240FE04F
:100D20001A2C30D0192CF8D9282C01D02E2CF4D123
:100D30001B4B00E01B4B1888FFF754FB04460D4685
:100D4000BDF92000FFF75EFB22462B46FFF7EEFCC5
:100D500041EC190BBDF92200FFF754FB22462B464C
:100D6000FFF7E4FC41EC180BBDF92400FFF74AFB48
:100D700022462B46FFF7DAFC9FED05AB41EC130B47
:100D8000AFE7094BD7E7094BD5E700BFAFF30080CA
:100D90000000000000000000520500200000F03FAD
:100DA0005A05002054050020580500205605002053
:100DB000014804F023B900BF94040020014804F066
:100DC0001DB900BFA4040020B0EE407A9FED0E0ACA
:100DD000B4EEC07AF1EE10FA07B50ADADFED0B7A5D
:100DE000B5EEC07AF1EE10FA8CBFB0EE470AB0EE65
:100DF000670A06F071F8FCEEC07ACDED017A9DF835
:100E0000040003B05DF804FB00007F430000000015
:100E10002DE9F14F0A78032A50D0052A5CD0022A26
:100E200012D10020D1F80CE0314B324CDFF8DC80DD
:100E3000DFF8DC90304EDFF8DCC09FED307A0546FD
:100E40004FF0000B704502D101B0BDE8F08FD1E941
:100E500001270244D75DFF2F02D11D700130F1E759
:100E60001A78042A07D81A785FFA82FA0132D2B2C5
:100E70001A7004F80A701A78042AEFD91D702279C2
:100E8000D2B288F8002099F8002092B9227807EEB3
:100E9000902AF8EE677A77EEC77AC6ED007A627824
:100EA00007EE902AF8EE677A77EE677ACCED007A53
:100EB000D4E7C6F800B0CCF800B0CFE7104C836898
:100EC00021681B692022984721680E4A0E4B9142E7
:100ED00018BF13462360B7E783680A49DC682022FD
:100EE0004FF0FF33A44601B0BDE8F04F604700BFAC
:100EF000170F0020180F00209C0900200000C84296
:100F0000B4040020F20E0020D20E0020160F0020A4
:100F1000140F0020980900202DE9F0412DED068BDB
:100F20008AB006F0CDFD954C51EC110B8DED020B06
:100F30008DED041B8DED062B8DED083BFFF7DEFCE0
:100F4000A3682060C31AB42B3FDC13F1B40F3FDB5E
:100F5000A26923619D18A060A561DDE90801FFF782
:100F6000CDFCE3686060C31AB42B34DC13F1B40F1A
:100F700034DBE26963611A44814BE261D978814ACA
:100F8000814E92ED007AE06008292AD1F6EE007ACF
:100F900037EE677A82ED007A0923B37130687168A1
:100FA00040F223120823CDE9022304AB03C300233C
:100FB000CDE900330022002302A9744801F0F2FCBD
:100FC0000AB0BDEC068BBDE8F081A3F5B473BFE7B2
:100FD00003F5B473BCE7A3F5B473CAE703F5B473C0
:100FE000C7E7D978042904D1F6EE007A37EE277ADC
:100FF000D0E7DA789FED666A102A664A02D10021AE
:1010000011600AE0D978202901D16349F8E7D9783D
:10101000402940F0AC8082ED006A9B785F49D2EDB8
:10102000007ADFED5F5ADFED5F8ADFF898815E4F6F
:10103000DBB20B705D4BD3ED006A77EEE67A47EEDC
:10104000A56AFDEEC77AC3ED006A17EE904AC6EEB8
:10105000867A2C44DFED566A67EEA67AFDEEE77AD3
:1010600017EE903AE41A6FF013039C42B8BF1C4687
:10107000142C504BA8BF14241C60631907EE903A3F
:10108000F8EEE77AE5B277EE877A67EE867A87EE52
:10109000A68A78EE289A78EE688AB0EE690A06F099
:1010A000A3F8B0EE409AB0EE690A05F039FF98ED6A
:1010B00000AAD7ED007A60EE277A49EE0A7A9FED12
:1010C0003E9A37EE890AFFF77FFEB0EE680A50FAC3
:1010D00084F4B47006F088F8F0EE409AB0EE680A36
:1010E00005F01EFF98ED00AAD7ED007A60EE277A92
:1010F00049EE8A7ADFED319A37EE890AFFF764FE0E
:1011000038EE69AA2844B0EE4A0AF07006F06CF88E
:10111000F0EE408AB0EE4A0A05F002FFD8ED00AAD0
:10112000D7ED007A60EE277A48EEAA7A38EE298A5F
:1011300037EE890AFFF748FEB0EE480A28443071BE
:1011400006F052F8F0EE408AB0EE480A05F0E8FEEC
:10115000D8ED009AD7ED007A60EE277A48EEA97AAA
:1011600037EE890AFFF730FE0544757114E7D97828
:1011700080297FF452AF124942E700BFA009002046
:10118000180F00208C0900205C05002018A800081A
:10119000D80F494090090020F90FC93F130F0020D4
:1011A000CDCCCC3DFBCB1640980900209409002003
:1011B00000003443880900200000C842F90F493F6D
:1011C000F90FC9BF9C090020024883684FF4005101
:1011D0005B691847ACA6000838B50B4D0B4C2A7854
:1011E00023789A420A4B07D000221A70FFF7ECFFCF
:1011F0002B78DBB2237038BD01221A70054A002318
:101200001360054A1360F3E7160F0020150F002046
:10121000140F00209C09002098090020F0B587B029
:10122000684808F02AFD00B9FEE7674A65480D21C5
:1012300006F0E9FB03240121644806F0D0FB64209A
:1012400006F0FCFB6148002106F0C9FB642006F0B3
:10125000F5FB013CEFD15E4DEA882868297942F41C
:10126000B012013406F0CFFB042C05F10805F3D1D0
:10127000584C204608F001FD70B1A3681B681BB1F3
:101280005549002220469847A3685449DC685148D4
:101290004FF0FF332022A047514C204608F0EDFCD0
:1012A00068B1002203AB11462046CDE903228DF838
:1012B000142006F023FEA36820465B68984749483F
:1012C00008F0DBFC30B1484800F0B4F806F0DEFB73
:1012D00006F0CEFB454808F0D0FC48B144488021D8
:1012E00006F015FC9FED430A4148802100F0EEF81E
:1012F000414D284608F0C1FC20B1AB683F491B684E
:10130000284698473E4B64224FF47A701A705A7000
:1013100006F094FB3B493C48002208F003FF64229E
:1013200000233948CDE9002304F092FC37493848BE
:10133000002208F0F7FE4FF4FA6200233448354EDD
:10134000354CCDE9002304F083FCFFF73DFF3378F3
:10135000002B14BF4FF4FA70642006F06FFB217865
:101360001B48CFB201F0010106F039FBC7F3400181
:101370002A4806F034FBC7F38001294806F02FFB0A
:101380002848C7F3C00106F02AFB642008F025FEB8
:10139000AB6825495B681848984760B9234B2278A9
:1013A000B3F9003007EE903A214BF8EEE77A03EB01
:1013B0008203C3ED007A2378013303F00303237023
:1013C000C3E700BFACA6000801001600C8B30008C0
:1013D000A8B3000854A70008110E0008F20E002060
:1013E00018A80008E0A70008D8B30008C4A70008A0
:1013F000D0B3000800004842A8A700084C05002010
:101400005C050020BD0D0008F0050020B10D0008AE
:10141000B8050020140F0020120F0020B0B3000800
:10142000B8B30008C0B3000880040020D00E00202C
:1014300078090020014B1860704700BFD0090020D8
:101440001FB50E4B1B68B3B102228DF800008DF85A
:10145000011018689B88CDF804D002928DF80C20FA
:101460009DF80C2042F002028DF80C20826801A940
:1014700094680122A04704B010BD00BFD00900202D
:1014800010B5114B88B01B688DF80700CBB10DF17A
:1014900007041868029401249B880394CDE905127F
:1014A000002407228DF810408DF81C209DF81C2088
:1014B00042F002028DF81C20826802A99468022280
:1014C000A04708B010BD00BFD009002070B52DEDB9
:1014D000028B8AB00DF10F02044604920DF10E0149
:1014E00001220025CDE90712059207220068A38892
:1014F0008DF80F50B0EE408A8DF80E508DF81850D0
:101500008DF824209DF8242042F002028DF824203A
:10151000826804A996680222B0479DF80E602946A9
:1015200046F01002204606F0D7FADFED187A9FED5C
:10153000187A28EE270ADFED177A20EE270A2046D0
:10154000C7EE007AFE21B7EE007A77EEC77AB6EEE4
:10155000007A77EE877AFCEEE77ACDED017A9DF896
:10156000042006F0B9FA32462946204606F0B4FABD
:1015700000210A2008F018FD46F080022946204686
:1015800006F0AAFA0AB0BDEC028B70BD6666663F33
:1015900020BCBE4B00008045014B1B68184700BFB4
:1015A000B8040020014B1860704700BFB804002049
:1015B00030B5044685B00D4610220021684608F07B
:1015C000D4FD02238DF802302A46044B01932146B4
:1015D000684604F069FC05B030BD00BF99150008ED
:1015E000034A536823F0020353600020704700BF92
:1015F000002004E008B54168054883681B680C3189
:101600001BB1984700EAE07008BD6FF05700F9E79A
:10161000CCA50008192810B502D90024204610BD19
:10162000044B53F82040204608F027FB0028F5D152
:10163000F3E700BF94B40008084B1A6842F48072C4
:101640001A601A6842F400721A601A6842F48062E2
:101650001A60034B034A1A60704700BF003C024007
:101660003C0500200024F400014B0360002070477B
:10167000FCB4000880B505460E461746984603F0B0
:10168000FFFF034600F096FCDFF81890044649F887
:101690000030424630463946A84754F8090000F069
:1016A00007FC00BF080000000648074A08B5121AE8
:1016B000002106F039FB0548054A0021121A06F000
:1016C00033FB08BDB8050020200F002000000010EB
:1016D000000000100A480B4A0B4908B5121A06F020
:1016E00025FB0A480A4A0B49121A06F01FFB0A4852
:1016F0000A4A0B49BDE80840121A06F017BB00BFA2
:1017000000000020B405002038C5000800000020BB
:101710000000002038C50008000000100000001084
:10172000ECCA0008F0B5074687B00C4600292ED059
:10173000D1E901231D48096806F063FAD4E90423BE
:10174000E1681B4806F05DFAE1691A4806F059FAAB
:1017500026460025F36A0493EB1C0393B36A0293B5
:10176000AB1C0193736A0093326A13486B1C2946C1
:10177000043506F046FA102D06F11006EAD1216E66
:101780000E4806F03EFAA1690D4806F03AFA012F1C
:1017900005D1EFF305810B48103906F032FA2146E6
:1017A000384607B0BDE8F04003F0A8B870BF0008A5
:1017B000A0BF0008D0BF0008E0BF000824C0000898
:1017C00034C0000863C0000830BFFFF7FDBF00BF92
:1017D0002DE9F0410B4EDFF8348006EB0807CC1BF7
:1017E000054632460849204608F0B1FCA019424699
:1017F0000021083C08F0B9FC2C6707F10800BDE89F
:10180000F08100BF000000000CB1000804000000DF
:101810002DE9F843324D804632488946174606F096
:10182000F0F9AB6ADE0622D52F4806F0EAF911245A
:10183000AB6A1D0703D52D4806F0E3F91224284DA5
:10184000AB6A980715D52A4806F0DBF96E6BAB6AD0
:10185000190642D52748314606F0D3F9B9F1000FF1
:1018600003D0AB6A23F08003AB62132403E010249F
:10187000DEE76FF015061A4DAB6ADA0703D51E488E
:1018800006F0BFF91424AB6A9B0603D51B4806F08B
:10189000B8F91524124B9A6AD50602D49A6A9007B1
:1018A0000AD55B68190507D54146304600F084FA31
:1018B00010B180F309880224094B9A6A920642BF4C
:1018C0005A6A22F400525A629A6A42F0FF029A62FD
:1018D00000233B702046BDE8F8836FF01506C4E78F
:1018E00000ED00E077C000088EC00008C2C000080C
:1018F000D6C00008EFC0000806C1000826C10008D5
:1019000010B51D4C1D4806F07CF9A36A990130D52D
:101910001B4806F076F91E20A36ADA0103D51948A0
:1019200006F06FF91F20144CA36A1B0303D5164859
:1019300006F067F92120A36A590303D5134806F07E
:1019400060F922200C4CA36A9A0303D5104806F0D4
:1019500058F92320A36ADB0303D50E4806F051F99A
:101960002420054A936A6FEA03436FEA13439362A4
:1019700010BD1D20D0E700BF00ED00E056C10008FB
:101980006FC1000883C100089EC10008BDC10008E6
:10199000E3C10008FEC1000870B5244C0646244887
:1019A0000D4606F02EF9A36AD90435D5214806F074
:1019B00028F91720A36A1A0503D51F4806F021F954
:1019C00018201A4CA36A9B050FD51C4806F019F97C
:1019D000A16BA36A180407D5194806F012F91EB1C5
:1019E000A36A23F40043A3621920104CA36A59058B
:1019F00003D5144806F005F91A20A36ADA050DD5B7
:101A0000114806F0FEF81B20084A936A43F47F430E
:101A1000936200232B7070BD1620CBE7A36A9B0452
:101A2000F2D50A4806F0EDF81C20EDE700ED00E0E5
:101A30002AC2000841C20008C2C0000853C2000800
:101A40006DC2000883C200089FC2000826C10008BA
:101A50002DE9F0415A4B5F689CB00546C7F3080476
:101A6000002686F31188BFF36F8F02F07F43B3F136
:101A70007F4F06D102F00C03082B13D1514806F01A
:101A8000C0F8002635464FF00008E31E8DF80780A9
:101A9000092B00F28680DFE803F00A7A7E768484E0
:101AA0008484848210074CBF0D460126EBE746482C
:101AB000434C06F0A6F88DF80780E36A9A0704D530
:101AC000424806F09EF800242AE0E36A002B01DA7F
:101AD0003F48F6E7E36A5B00F5D53E4806F091F82B
:101AE0006369AA6943F480736361BFF34F8FBFF3E7
:101AF0006F8F32F8023C626922F480726261BFF338
:101B00004F8FBFF36F8F03F47F42B2F55F4F21D148
:101B1000DBB2022B1ED129682F4806F072F82C6820
:101B20009DF807309BB96822294602A808F00FFBF0
:101B3000099B002E41D0C3F3080222B96FEA532358
:101B40006FEA4323099302A92046FFF7EBFD1CB07F
:101B5000BDE8F0811A4B9A6AD2B232B10DF1070298
:101B600001212846FFF754FE0FE09A6A12F47F4FD6
:101B700005D00DF107010120FFF70EFF05E09B6A7C
:101B8000B3F5803F9FD3FFF7BBFE0446C8E70DF1D6
:101B900007020021E5E70DF107010020ECE70F48FF
:101BA0008FE70F4B0F49104817F4F87FA4F110028C
:101BB00008BF194606F025F885E76FF30803C1E76B
:101BC00000ED00E0E6C2000812C300082AC30008C6
:101BD0004CC300085BC300087BC3000898C300081F
:101BE000B8C20008CDC20008BDC30008044B5A6942
:101BF00042F010025A615A6922F008025A61704795
:101C000000ED00E0EFF30880EFF3098101B57246C3
:101C1000FFF71EFF01BD00BF0A4880F308881020AF
:101C200080F3118808484FF40861401880F3098850
:101C3000EFF314800221084380F31488BFF36F8F01
:101C400000F04AF8002A0020800F00201EF0040F48
:101C50000CBFEFF30880EFF30980816911F8021CD3
:101C60000229FFD001B5724606F072F801BD00BF2F
:101C700040B2002807DB044A4109012300F01F009D
:101C8000834042F82130704700E100E040B2002874
:101C9000A8BF00F1604001F10101B8BF064B4FEA57
:101CA0000111ACBF00F5614000F00F00C9B2B4BF34
:101CB000195480F80013704714ED00E0044B054AF6
:101CC00023F07F039360BFF34F8FBFF36F8F704795
:101CD0000000000800ED00E008B5FFF7EFFF104B33
:101CE000D3F8882022F47002C3F88820D3F8882023
:101CF00042F4A002C3F888204FF04042C3F83422D7
:101D0000BFF34F8FBFF36F8F0023E1EE103AFFF761
:101D1000CBFCFFF7DFFC00F02FF902F0B5FE00BFAF
:101D200000ED00E04FF47D41C0F8BC1042F8203CCB
:101D3000009B42F81C3C0A49019B42F8183C029B5C
:101D400042F8143C21F001014FF0807342F8043C4A
:101D500042F8081C0023203A02654367704700BF21
:101D600075160008838913F0020F124B03D190F807
:101D7000BD20D20611D45A6B42F080425A63D0F88B
:101D8000BC3019075CBF43F00803C0F8BC3083893E
:101D900043F002038381802070475A6B22F0804217
:101DA0005A63D0F8BC301A0744BF23F00803C0F8C8
:101DB000BC30F0E700EF00E0094A0346906870B1DC
:101DC00013F1160F006E05D0A0F18002934205D3E7
:101DD000834203D2814228BF002070470020704711
:101DE000980E0020104B9B6883421AD1EFF30580B8
:101DF000B8B9EFF31181102282F31288BFF36F8F0D
:101E00009A8922F002029A81EFF3148323F00403EB
:101E100083F31488BFF36F8F81F31188BFF36F8F43
:101E200070476FF015007047980E002008B51546F2
:101E30000E460022E1EE102AEFF3148222F0040293
:101E400082F31488BFF36F8FBFF36F8F0B4A0C4B75
:101E50009060026F1A6000F0BFF82C4686F3098884
:101E60000020044B98472046002100220023024C0A
:101E700020470000737D000875160008980E0020AA
:101E8000640A0020014B10221A61704700ED00E047
:101E9000054B9A699B689A421FBF044A536843F0F6
:101EA00080535360704700BF980E002000ED00E0A3
:101EB000084B9B6883420BD1EFF3058343B1064B7C
:101EC0005A6842F080525A605A6A22F400425A62BA
:101ED00003F0DCBB980E002000ED00E023498A6887
:101EE00082F8BDE04FF030001044EFF3098C80E839
:101EF000F01F1EF0100F03D102F17C0080EC108A5D
:101F0000102080F31288BFF36F8F194F4FF00066D7
:101F10008A698A603E60106F164C206092F9BDE0BD
:101F2000506F0023536780F311881EF0100F03D009
:101F30000023E1EE103A03E002F17C0090EC108AFD
:101F4000EFF3148323F0040383F31488BFF36F8F3C
:101F500004B5104600F040F8BDE8044002F130003E
:101F600090E8F01F8CF3098870470000980E00205D
:101F700004ED00E0640A0020044800231021C21888
:101F80000133472B82F80013F9D1704700E100E0DC
:101F900008B5EFF30583064A103B02EBC30152F884
:101FA000330049688847BDE80840FFF771BF00BFAC
:101FB00034A800080148006870470000640A002047
:101FC000024B034A0348012100F07CB800000220C4
:101FD00000000020FCB4000810B50446FFF7C2FE64
:101FE000226E03460548D21AC0E90023044B8360E1
:101FF000BDE81040012100F06FB800BF680A002062
:1020000000000B15084AC2F898000B6823F01F0364
:10201000034343F01003C2F89C308B6843F0010384
:10202000C2F8A030704700BF00ED00E02DE9F0439A
:10203000DFF8608085B00E461F4604464FF0000969
:10204000B14523DA6068D8B13FB1411E08421BD1C7
:102050007F2819D92368194216D12368019305F006
:102060009CFEA36803430393D8F89050C5F307255B
:10207000D0B2013DA84207D801A9FFF7C3FF421C17
:1020800009F101090C34DBE76FF01502104605B0C9
:10209000BDE8F08300ED00E0044B0522C3F8942076
:1020A000BFF34F8FBFF36F8F704700BF00ED00E0AD
:1020B000BFF35F8F024B0022C3F89420704700BF2C
:1020C00000ED00E010B5034C01232278FFF7AEFFCE
:1020D000207010BD1D0F002008B50B4A0023127898
:1020E000FFF7A4FF10F1160F07D0084A0021D2F81D
:1020F0009030C3F30723984200DB08BDC2F8980074
:10210000C2F8A0100130F2E71D0F002000ED00E042
:102110002DE9F0435A4B5B4DD3F890302C68C3F354
:1021200007239C4285B000F2A780FFF7C1FF002083
:102130000C2684421AD1544EDFF84491347068461C
:10214000FFF792FA514C524D80460027B84514D102
:1021500033784B490020D1F89020C2F307229342F4
:10216000C0F28480FFF798FF002045E0696806FB15
:102170000011FFF747FF0130DBE7009800EB071184
:102180004FEA071CCB682340B3F5000F4DD00AD8A7
:10219000B3F5001F33D0B3F5800F3BD0B3F5801FEC
:1021A00013D00137D2E7B3F1007F47D0B3F1805F9E
:1021B0004DD0B3F1807FF4D150F80C3088684A6874
:1021C00005F0EBFD40F0887009E050F80C308868AD
:1021D0004A6805F0E2FD40F0885040F43020CDE937
:1021E00001230390D9F890303078C3F30723013BE3
:1021F000984234D96FF0150005B0BDE8F08350F86F
:102200000C3088684A6805F0C8FD40F0885040F4FA
:102210000020E4E750F80C3088684A6805F0BDFDFE
:1022200040F0C06040F40030D9E750F80C308868C6
:102230004A6805F0B2FD40F08270D0E750F80C30EB
:1022400088684A6805F0A9FD40F48020C7E750F887
:102250000C3088684A6805F0A0FD2843BFE701A953
:10226000FFF7D0FE3378013333709AE7C1F8983026
:10227000C1F8A00001336EE74FF0FF30BCE700BFAC
:1022800000ED00E008B500081D0F00200000F0FF81
:102290000000021108B5024B1B689847002008BDDA
:1022A000740A0020034B044A1860937843F0020339
:1022B00093707047740A0020BC04002008B50649DA
:1022C000064821F00701C1F1005202F5003205F085
:1022D00055FC002008BD00BF4B3F0020780A0020BD
:1022E00007B5084A92E80300CDE900010648826874
:1022F000126822B16946904703B05DF804FB6FF0A5
:102300005700F9E710B10008CCA500081F2809D82C
:10231000012303FA00F0044B5B6998430CBF0120D2
:102320000020704700207047003C014000F01F0271
:102330001F284FF0010303FA02F39DBF024A002059
:1023400053616FF015007047003C0140044B184486
:10235000002301338B4200F8012BFADB704700BFEA
:10236000640500202DE9F041104F054600264FF08E
:1023700001086B78F4B2A34201D8BDE8F0812B7854
:102380001C442046FFF7C2FF68B12046FFF7CEFF8E
:1023900057F834303BB107EBC40204F01F04516816
:1023A00008FA04F098470136E3E700BF840A0020EA
:1023B000034660B1B0FA80F2C2F11F02D2B2054901
:1023C0008856054A11680B431360FFF751BCFF2282
:1023D000F5E700BF64050020003C0140024A136895
:1023E00023EA000313607047003C0140032921D811
:1023F000DFE801F0020C10190F4B9A6822EA000284
:102400009A60DA6822EA0002DA6070470A4B9A683A
:102410000243F5E7084BDA680243DA609A6822EA79
:1024200000029A607047044B9A6802439A60DA6827
:102430001043D860704700BF003C014030B5B0B1D8
:10244000B0FA80F3C3F11F03DBB20B4850F83340FE
:102450008C4204D100EBC3056D68954205D044B9A8
:1024600040F8331000EBC3004260002030BDFF2372
:10247000EBE76FF00F00F9E7840A002060B1B0FAD3
:1024800080F3C3F11F03DBB2044A002142F833108A
:1024900002EBC30251607047FF23F5E7840A002076
:1024A00000F00302043292000F23934043EA9000AD
:1024B000C3B20233054A52F82320030C02EA10404B
:1024C00093FAA3F3B3FA83F3D8407047003801407E
:1024D00070B5446894F84530DA0602D40B799B064F
:1024E0001BD40B78092B18D14B78042B15D14B88B2
:1024F000B3B143F6FF7293421CD09A0B032A0CD15E
:10250000244D04F12E06002236F8020F284380B233
:10251000834206D00132082AF6D16FF0150008E098
:102520001A4694F941303BB1013BDBB2012BF4D8A0
:10253000002070BD0722F4E70B79206803F01F0329
:1025400003EB4301092B93BF43EA01531E3943EACE
:10255000015343F0007303F000754FF0007191FADE
:10256000A1F1B1FA81F1CD400C3003F0F8734FF0D6
:10257000F87191FAA1F1B1FA81F1CB4050F8254000
:102580000721994024EA01019A400A4340F8252096
:10259000CEE700BF00C0FFFF2DE9F743DFF8C4908E
:1025A00047680669D9F808803D68C6F890004FF67C
:1025B000FF73A6F8A6304468D8F8003004F108018B
:1025C0002BB348469847024608BB94F84530DB07D2
:1025D00014D494F84530980708D5D8F8183004F189
:1025E0001801A3B11F480022984780B91E4A216AEA
:1025F000536823F440330B43536008E0D8F8183095
:1026000004F110011BB1484698470028E1D0786AD0
:1026100001AA002106F0F8FD00281CDB019B002226
:102620001979186806F003FE002814DB7B68BBB933
:10263000AB68DA0707D52B68AB6823F00103AB6002
:10264000AB68DB07FCD4B36C1BB906F1400002F0A9
:1026500043FB002001E0811CE8D003B0BDE8F0831B
:102660009847E5E7CCA500080023014038B52F4B7B
:102670001A68910644BF6FF020021A601A68920728
:1026800045D52B4CDA6CD4F89430991CC4F89410CE
:102690001A8094F8A53094F8A4200133DBB29A4252
:1026A00084F8A530254632D1002384F8A530636E26
:1026B0009BB3E36F4BB1B4F888201E4804F164016A
:1026C000984701280BD0022822D0B4F88830B4F8FB
:1026D00084209A421CD90133A4F8883003E0D4F84E
:1026E0009830C4F89430A36F23B9BDE8384010483F
:1026F00005F0DCBBBFF35B8F55E8003F5A1E45E891
:1027000000210029F8D1BFF35B8F012BEDDC38BD30
:10271000A36F13B1084803F0D3FA4FF6FF73A4F880
:10272000A6300648BDE8384002F0D6BA0020014085
:1027300000000020A8A7000808000020500000208A
:102740002DE9F04F036987B0403307460D460293E9
:102750004FF0FF324FF0FF33029802F0F1FA7B683E
:102760003C691E68AB68C4F89430D5F80490C4F88E
:10277000A0904846FEF704F9002384F8A40084F8EA
:10278000A53095F810C084F89CC0B9F1000F00F096
:10279000F980102800F3F6807868026890F940E02C
:1027A0007345C0F29A8000F0ED80516801F0407EE0
:1027B000C16A4FEA830C51F823309E450BD09368D1
:1027C000D90700F19180C16A536851F80C1023F0C9
:1027D00040730B435360D7F804B03B69DBF800103B
:1027E000D3F8A0C04FF4407393FAA3F3B3FA83F382
:1027F0004FF00009059301F12C08BCF1000F7ED1C8
:102800004B6843F480734B6094F8A4302A685B00F3
:1028100012B1928902FB0333EA689A42C0F0B88091
:102820006B7C002B40F0B780AB7C002B40F0B3807A
:10283000B368DB075EBFB36843F00103B3606FF0BA
:1028400020033360B36843F48063B360736843F07C
:10285000200373602F460FCF04F164060FC63B6858
:102860003360002626662B68002B00F087800FCB94
:1028700004F1780585E80F006566A4F888600028F3
:102880007CD0BFF35B8F54E8003F44E80062002A2D
:10289000F9D1BFF35B8FA06F633046F10001642272
:1028A0000023FEF753F80022CDE90001002304F1D4
:1028B000080003F0CDF94FF0FF324FF0FF3304F181
:1028C000500002F03DFA00B12066246E029802F03A
:1028D00003FA204607B0BDE8F08F816AC95C614504
:1028E0003FF463AF01335BE71368DB064DD49368B5
:1028F00023F0010393609368D907FCD463E79CFA43
:10290000ACF2B2FA82F202EB4203092A9BF94200CE
:1029100095BF42EA03531E3B43F0007342EA035360
:102920000128039323D15FFA89FA1C48059F50F8C8
:102930002A0000F4407E2EFA07FE00F01F0058F82F
:102940002E7004971F2303FA00F7049B23EA07075E
:10295000039B03F01F0383401F4348F82E70104869
:10296000CB6A50F82A0023F470030343CB6201239F
:1029700003FA02F22CEA020C99443EE7204605F0E5
:1029800095FA98E76FF01504A0E76FF00F049DE744
:102990006FF00B049AE76FF0850497E7D8B500084D
:1029A00098B500082DE9F04788B08768DDF840C089
:1029B0008246914698460C4679B34E790D6816F0DA
:1029C000010F40F2FF7618BF6FF0604635EA060649
:1029D00023D1BCF1000F1AD103AE0122614630466B
:1029E00007F07BF90E4B009301967F694A464346F8
:1029F00021465046B84738B94FF0FF324FF0FF3309
:102A0000304602F09DF9079808B0BDE8F0877C6970
:102A1000A44608B0BDE8F04760476FF01500F3E743
:102A2000F57E00082DE9F04F0F4689B091461E460D
:102A3000D0F808A06D4BD0F808809A4200F2D280FE
:102A4000B8F83C40B8F83E3001341C44B8F8403087
:102A50001C44002A00F0C680B6F57A7F80F0C28060
:102A6000836807A99B6A9847002840F0B8804EB950
:102A70005F4B994537D85F4B40F26B36994588BF1D
:102A80004FF44876079B039304FB09F4B3FBF4F47B
:102A9000BAF838309C4238BF1C466FF000430194AE
:102AA00004FB09FB0493B8F84230019A9A421DDDF9
:102AB0000498FB88BA885B08934228BF13463B8082
:102AC000BAF83020934204D9B8F83A209A4228BF85
:102AD0001A466FF0004398423A8008BF6FF08500B5
:102AE00009B0BDE8F08F40F2EE26CBE7039BB3FBC5
:102AF000FBF30293DDE902230BFB12335BBBBDF852
:102B000008200299B8F83C30BAF83650B8F83EE0E0
:102B100005934FF47A747143B1FBF4F1511A89B201
:102B20000EEB0300A942BAF834C0BAF8323080B2D2
:102B30002C4604D9B8F840508D4228BF0D46511E8E
:102B4000491B89B288420BD2151A013DB8F84020C2
:102B5000ADB2AA420ED2019B01330193CB44A2E74E
:102B60000CEB030080B2884230D9121A013A95B2B8
:102B7000AC42F0D8B3EB500F4FEA500203D2059BA2
:102B8000934228BF1346C21A92B2964520D2A0EBB8
:102B90000E039BB272464FF47A7100FB011002994A
:102BA000B0FBF1F0864234BF811B311A0029084680
:102BB000D1DB049C8C42CEDD7B80019BBA80FD8002
:102BC0003B8100293FF475AF0491C4E70846D1E783
:102BD000944582BFA0EB0C039BB26246DBE76FF02B
:102BE00004007DE76FF015007AE700BF40420F0058
:102BF00000350C0020A1070070B503680C4E43F0AF
:102C000001030360044601F08FFD05466368DB079E
:102C100001D500200AE001F087FD401BB042F5D944
:102C2000236823F0010323606FF00A0070BD00BF2A
:102C300000F9150008B50A46416805488368DB6855
:102C40001C310BB1984708B16FF0040008BD00BFFC
:102C5000CCA50008F8B50769436807F110065D695F
:102C60004FF0FF324FF0FF3330460C4605F0FFFACD
:102C70003F792FB1304605F0FCFA6FF00F00F8BD38
:102C80002389E9690E4A013B0A40C3F30903134350
:102C90002288013A120602F040721343A288013AD8
:102CA000120402F470221343E288013A120502F47E
:102CB000E00213433046EB6105F0DBFA3846DEE70D
:102CC00000FC80FC2DE9F84F1F461B7AD0F81080DD
:102CD000012B04468A46914600F2878044484FF013
:102CE000FF324FF0FF3308F1100B05F0C0FA4FF040
:102CF000FF324FF0FF33584605F0B9FA6368397A6E
:102D00002069D3E905329A4214BF0E23002311F043
:102D1000010149D08030002550F8041FB1BB3C6848
:102D20007E68E400F60044F0040446F006065819F4
:102D3000D2F8003243F00103C2F800323B7ADB07DD
:102D400045D502EBC003C3F84042C3F84462D2F851
:102D50001C12012383400B43C2F81C32D2F800320C
:102D600023F00103C2F800323B7A13F0010F4FEA5F
:102D7000850317BF43449844C3F884A0C3F8D89090
:102D800004BFC8F830A0C8F8849004E00135072DCE
:102D9000C2D16FF01B05584605F06BFA144805F0D8
:102DA00068FA2846BDE8F88F483050F8044F54B907
:102DB0007E683C6876010733640146F01806CD1D35
:102DC00003EB6100B4E701310E29EED1E1E715F024
:102DD000010F00F1480108BF02EBC10144EA0644BB
:102DE00014BF42F831404C60B1E76FF08505D8E779
:102DF000FC0B00202DE9F04385B04568D0F8108029
:102E00006E690024CDE901440746ADF80C404948FD
:102E100006F05CFF08F1100006F058FF0122214681
:102E200008F1240006F059FF286840B94248836839
:102E30001B6805F11C0163B96FF0040405E006F09E
:102E40001CFF0028F2D16FF01204204605B0BDE847
:102E5000F083984781460028EED101466A46A86A69
:102E600006F0D2F9041EF0DB009B4A461979186877
:102E700006F0DDF9041EE8DB3046FFF7BDFE10B1B9
:102E80006FF00A04E1E73368DFF8B09023F0020343
:102E9000336001F049FC044673689B0743D4D5E9CD
:102EA0000532934213D1D3F8002242F00102C3F855
:102EB0000022AA69D2F80C3243F07F03C2F80C3228
:102EC000AA69D2F8003223F00103C2F80032336855
:102ED00023F0FC033360336843F040033360EA6857
:102EE0002B8A01A93846FFF79DFD1630A4D001A911
:102EF000384605F021F804460028A6D10146384698
:102F000005F094FA044600289FD1024608F1F40126
:102F1000384605F04EF86B6A30469847736943F0BF
:102F20000103736191E701F0FFFB001B4845B3D932
:102F3000A6E700BFFC0B0020CCA5000800F9150097
:102F400022292DE9F0410E4677D80469D0F8048093
:102F50003B48D8F818504FF0FF324FF0FF3304F1E0
:102F6000100705F084F94FF0FF324FF0FF33384679
:102F700005F07DF9D8E905239A4214BF0E220022FC
:102F8000062E4FEA860331DC23440021C3F8841067
:102F9000C3F8D810012332441C46D5F8001241F082
:102FA0000101C5F80012002C3AD005EBC201002047
:102FB000C1F840024FF0FF30C1F8440243B1D5F8E8
:102FC0001C32012101FA02F223EA0203C5F81C3285
:102FD000D5F8003223F001033846C5F8003205F079
:102FE00048F9BDE8F041164805F043B92344F11F04
:102FF0000020073211F0010402EB61021863C3F8EC
:10300000840005D0DB6AB3FA83F35B090446C4E7A6
:103010000C29DDBF5B6BB3FA83F35B090123BCE7CB
:1030200016F0010F02F1480108BF05EBC101054888
:1030300014BF45F831004860C0E7BDE8F08100BF2B
:10304000FC0B00200000FFFF2DE9F04705694668F2
:1030500005F110074FF0FF334FF0FF323846D6F836
:10306000148005F004F92B797BBB306890B9D8F84F
:103070000030DFF85CA023F00103C8F8003001F055
:1030800053FB8146D8F8044014F001040FD101230A
:103090002B7106E0836829681B689847044600285E
:1030A000E5D0384605F0E5F82046BDE8F08701F0A8
:1030B0003BFBA0EB09005045E4D9306810B18368B0
:1030C0005B6898476FF00404EBE76FF07704E8E77C
:1030D00000F9150038B5284B18680B88C3F30B03AB
:1030E000162B14460D464FEA900218D803B3013B45
:1030F000152B1DD8DFE803F00C3535350B232A1CC2
:103100001C1C1C1C1C1C1C1C1C1C1C1C330C1B48CD
:1031100020602B68B3F5805F27D2002038BD402B9C
:1031200021D008D823F00402302AF1D0382BEFD078
:103130006FF08500F2E7442B06D0A82BF7E700F0EC
:10314000C1F89023800858434008E1E700F0BAF83E
:103150009023800858430623B0FBF3F0D8E75000D3
:10316000D6E70020D4E71046D2E7C3F31333013388
:10317000B0FBF3F02060D0E73C05002000127A009D
:10318000162808D8054BC34013F0010F0CBF6FF091
:103190008500002070476FF085007047E2006000F6
:1031A000F8B5434F434D00F0ADF8384605F0ECF963
:1031B00001F0CEFAAB68404AC3F303131478D35C32
:1031C00047FA04F420FA03F6A64202D2204601F0A0
:1031D0002FFB2B6823F480232B602B6843F4803370
:1031E0002B60344B1A689203FCD59A6802F00C02EB
:1031F000082A17D11A68950707D41A6842F0010205
:103200001A602C4A13689807FCD52A4B9A6822F05A
:1032100003029A609A6812F00C0FFBD19A6822F0B0
:10322000F0029A60234D2B6823F080732B602B688B
:103230009901FCD4214AD2F8043823F44033C2F86F
:103240000438D2F8043823F0706343F0C063C2F846
:10325000043800F03BF82B6843F080732B60154B6B
:103260001A689201FCD59A6822F0F0029A609A6876
:1032700022F0030242F002029A609A6802F00C0205
:10328000082AFAD1A64202D3204601F0D1FA0C4B0B
:10329000084A1F60936823F4E05343F4A0539360FB
:1032A000936823F4604343F4004393600020F8BD27
:1032B000004495080038024020C500080030024054
:1032C0003C0500200048704700127A00084B09496D
:1032D0005A681140084A0A435A605A68074922F45A
:1032E00040325A605A681140054A0A435A60704792
:1032F000003802400080BFFF042440000080BFF07F
:1033000004244006064B1A6C42F0805282B01A64C4
:103310001B6C03F080530193019B02B0704700BF08
:103320000038024008B5074806F0A7FC38B1064847
:10333000FEF7B8FF0448FEF735F9002008BD6FF02E
:103340001200FBE78CA700084D3300080A2838B5A7
:10335000074D044604D1AB680D21DB692846984728
:10336000AB680348DB69E1B29847204638BD00BF2F
:103370008CA700082DE9F04143681446D3E9048284
:103380008A4213D91C2508469E694D4300F06CFA09
:10339000084B1B5C434477195B689BB263607359AD
:1033A0006370BB7923700020BDE8F0816FF01500D9
:1033B000FAE700BF10C5000870B505464668124818
:1033C00083681B681BB96FF00404204670BD31464A
:1033D000984704460028F6D1B36828469847234604
:1033E0001C2120467269934207D32A690023136087
:1033F0002A6953602A699360E7E7B26901FB0322F7
:1034000001339071EEE700BFCCA500082DE9F04F25
:1034100093B0D0F804B0019003A80E461446DBF830
:10342000107006F001FCDBF81420B24240F29F80DD
:10343000DBF818A04FF01C0909FB06F90AEB090597
:10344000AA792AB16FF00F08404613B0BDE8F08F9B
:103450003146384605F01FF980460028F2D1019B1D
:103460003146586805F02BF9628802F4FE52B2F535
:10347000FE5F09D10123AB716B71A3696B61636955
:103480002B6185F81880DFE722695169B1F5803F2B
:103490006DD26178490704D19BF80C30002B00F005
:1034A0002581A188E3888B4261D1042B02D0013BA6
:1034B000012B5CD8137FC3F38012B2EBD31F56D11C
:1034C0000123AB71A3696B616278DFF830C202F04F
:1034D00007024AF8092063692B61A388AB60E3887F
:1034E000EB6023691B7FC3F380132B76A188E088F0
:1034F0002369002991FAA1FEBEFA8EFE90FAA0F18E
:1035000008BF4FF0FF3E0028B1FA81F108BF4FF02D
:10351000FF31012AD3F800B0764812D1CDF810B0AF
:103520005A6850F82E0003925CF821200A90099204
:10353000A27802F00F02032A19D8DFE802F0210D69
:103540001B1E5A6804925CF82E20099250F8212024
:10355000CDF80CB00A92EBE74FF480320D9262780E
:1035600002F00702012A0DD0022A1CD01AB36FF014
:10357000150869E74FF40032F0E74FF44032EDE709
:103580000022EBE71B7F40220592C3F38102C3F3C5
:103590000113012A00F0AA80022A0ED0002AE6D1E7
:1035A0004FF480620AE000221B7F0592C3F30112F0
:1035B000C3F38103EDE78022F6E70022012B089296
:1035C00000F09480022B60D0002BD0D14FF4007318
:1035D00007932B7E1B0206935AF809108B1E594243
:1035E00059412971204600F011FA1090297920469E
:1035F00000F01AFA6378119013F00703207846D090
:103600000728B4D800F036F923690C90587F00F0F1
:103610000F0005F03AFA0F9003A805F008FA8000B1
:103620000E9023692A795B69002A35D0A288B3FB02
:10363000F2F330460B9300F017F903AA014638461F
:1036400001F0B4F8304600F00FF92B4C225CD3594E
:1036500043F00403D3512B7E03B36B69F3B90E9B84
:10366000042B304631D100F0FFF8235C3B44304658
:103670005A6942F004025A6100F0F6F8235C3B44B8
:103680005A6942F080025A61DEE60023A0E707286B
:1036900084BF23701846B5E7E288C8E7304600F0DB
:1036A000E3F8225CD35943F01003D3512B7E002B57
:1036B000D5D06B69002BD2D0304600F0D5F8225C13
:1036C000D35943F00803D351C9E700F0CDF8235C88
:1036D0003B4430465A6922F004025A6100F0C4F8B3
:1036E000235C3B445A6922F08002CCE76FF08508E6
:1036F000AAE600BFA8B6000810C500089CB60008DE
:103700002DE9F04143685A698A4207460C462BD995
:103710009D691C2202FB015595F80580B8F1000F48
:1037200004D00023AB710020BDE8F0811E69304653
:1037300000F034F90028F6D0204600F095F80C4B44
:103740001A5C935923F0100393512146304600F040
:103750004DF97868214604F0B2FF2146304604F066
:103760009AFF85F80680DEE76FF01500DCE700BF02
:1037700010C500082DE9F84F994643689246D3E9F1
:1037800004528A420C4613D94FF01C0B28469F69FD
:103790000BFB01FB04F07FFF07EB0B08064600283C
:1037A0005DD157F80B30012B07D033F0020333D033
:1037B0006FF015063046BDE8F88F204600F054F84B
:1037C000DFF8A0B01BF800302B442046C3F80CA053
:1037D00000F04AF81BF800302B44C3F8089098F822
:1037E0000430DFF8809020464BB300F03DF819F824
:1037F0000020D8F808300A98B0FBF3F32A44516847
:103800006FF30F010B435360012388F80630214604
:10381000284600F0B5F8CDE7204600F025F8DFF89F
:1038200044B01BF800302B442046C3F808A000F039
:103830001BF81BF800302B44C3F80C90CFE700F0C6
:1038400013F819F80030D8F80C100A98B0FBF1F70B
:103850002B445A686FF30F0217435F60D4E76FF091
:103860000F06A7E710C50008014B53F8200070476A
:103870003CB80008014B53F8200070471CB8000802
:10388000014B53F821301847FCB70008014B53F89F
:1038900021301847DCB7000808B5044B53F8213035
:1038A0009847003818BF012008BD00BFBCB700080A
:1038B00008B5044B53F821309847003818BF012051
:1038C00008BD00BF9CB70008014B53F821301847D2
:1038D0007CB70008014B53F8213018475CB700084B
:1038E000014B53F8213018473CB7000808B5044B8A
:1038F00053F821309847003818BF012008BD00BF99
:103900001CB70008084A10B452F82120074CA25CEA
:10391000835813F0100303D05DF8044BFFF7C8BFC2
:1039200018465DF8044B70473CB8000818C50008FD
:10393000084A10B452F82120074CA25C835813F0B7
:10394000080303D05DF8044BFFF7A6BF18465DF8E7
:10395000044B70473CB8000818C50008064B074ADE
:1039600053F82130D35C03445B6913F0800301D02A
:10397000FFF7BCBF184670473CB8000818C50008E0
:10398000044B054A53F82130D25C835843F00103BD
:10399000835070473CB8000818C50008044B054A1E
:1039A00053F82130D35CC05800F00100704700BFCD
:1039B0003CB8000818C5000838B50A4B0A4A53F845
:1039C0002130D25C835823F0010383500446204603
:1039D000FFF7E4FF05460028F9D12046FFF756FF20
:1039E000284638BD3CB8000818C50008054B064AF3
:1039F00053F82130D35C1844436923F080034361BA
:103A0000704700BF3CB8000818C5000841B14389A1
:103A1000043B0C2B9ABF034A52F823000020704746
:103A20000389F5E7E8B6000841B10389043B0C2B94
:103A30009ABF034A52F82300002070474389F5E7F4
:103A4000B4B600082DE9F843D0F804900746D9F839
:103A5000080090460D461E4604F0FDF9B8F5001F1B
:103A6000044616D12846D9F80840FEF719FD8442CD
:103A70000CD1294604F0EFF90446FEF7AFFC2046CE
:103A8000FEF7FCFC00212046FEF7B0FC0020BDE85C
:103A9000F883B8F5800F20D0B6F1806F19D0B6F159
:103AA000C06F18D0B6F1007F1AD102260F493A46EE
:103AB0002046FEF7C3FCB0B9D9F80810284604F038
:103AC000CFF920463146FEF791FC2046FEF770FC08
:103AD000DCE70126EAE70326E8E76FF08500D6E792
:103AE0006FF01500D3E76FF00F00D0E7018C0008EE
:103AF000F7B50446436806691948DD680F465968FA
:103B00008368DB680022019223B96FF00404204629
:103B100003B0F0BD01AA98470028F6DB376206F132
:103B200010074FF0FF324FF0FF33384601F008F92D
:103B30002B6823F001032B60204696F8521005F005
:103B4000EDF8019900F07AF896F8513004461BB16F
:103B50002B6843F001032B60384601F0BDF8D6E72F
:103B6000CCA5000870B50446466805694FF0FF32E1
:103B70000021284606F0B1F8336820469847002314
:103B800085F8503085F852300122114605F11000B9
:103B900006F0A3F8204600F033F83169144B99423F
:103BA00020D013D8134B99421ED0134BCB1A594235
:103BB0005941890041F010012046FFF799FF002884
:103BC000A2BF012385F85030002070BD0B4B9942F5
:103BD0000CD003F5C31303F5206399420CBF0A21EF
:103BE0000021E7E70621E5E70221E3E70821E1E715
:103BF00040420F00A0860100801A060040E1330019
:103C000013B5446801AA6069002105F0FDFA002897
:103C100010DB019B00221979186805F008FB0028C9
:103C200008DB0548616883681B680BB1984708B1D9
:103C30006FF0040002B010BDCCA5000810B50269F9
:103C40004368126ADB68C2F34202012A04D0022AE6
:103C500021D06FF0150010BD58681F4AB1FBF2F279
:103C600020F03F0010435860186A013220F03F00F6
:103C700002431A62194AB1FBF2F140F6FC7211429A
:103C800008BF0421DA6922F44F4222F0FF020A43FE
:103C9000DA610020DFE758680F4AB1FBF2F220F04A
:103CA0003F0010435860186A4FF49674624320F046
:103CB0003F004FF47A74B2FBF4F2013202431A620D
:103CC000074A914289BF013248F20101B1FBF2F18A
:103CD00041F40041D6E700BF40420F00400D030011
:103CE0007F4F1200F8B50C46036941681E682379BE
:103CF000012B35D09A1E55425541AD026279022AF8
:103D00009CBF384F37F812C0A27988BF4FF4005CCF
:103D1000042A28D0003B18BF01231B03E279012AA3
:103D20000A680CBF4FF440770027A642D1681DD126
:103D300021F4B05129430B43D360136923F440535A
:103D400043EA0C03136143681A68536923F4407310
:103D50003B43536131684068BDE8F84005F0B9BCA9
:103D60004FF4C065CAE74FF48053D7E701F4C06150
:103D70008D421FBFD16821F4C0612943D1604268E0
:103D800011680A6902F4405294451FBF0A6922F47F
:103D9000405242EA0C020A6142681168CA6802F4A1
:103DA000805293421FBFCA6822F480521343CB60F3
:103DB00043681A68536903F440739F421FBF5369F5
:103DC00023F440733B43536121683368994206D022
:103DD000406805F07EFC08B923683360F8BD002018
:103DE000FCE700BFECBE0008F8B543681D68036936
:103DF0001E680B79012B0C461AD0991E4A424A4183
:103E0000920294F805C0A779BCF1020F96BF2D4924
:103E10004FF4005131F81C10042F00D083B1A3F1EE
:103E2000030EBEF1010F06D86FF085031846F8BDEA
:103E30004FF4C062E5E70BB1042FF5D04FF4805387
:103E4000B1F5805F35D0B1F5405F34D000290CBFAB
:103E5000012103218C45E7D17BB3002A0CBF042349
:103E600003239F42E0D1E37983B1012BDCD1164BD0
:103E70009D420BD0A3F54C439D4207D003F58063D0
:103E80009D4203D003F54C439D42CDD1EB6823F412
:103E90000053EB602146FFF725FF03460028C3D1FE
:103EA000EA6842F40052EA6094E8030086E80300FE
:103EB000BCE70021CEE70221CCE7002A0CBF032398
:103EC0000223CEE7ECBE0008001001402DE9F743C5
:103ED000D0F804800646D8F80400D8F8101083689B
:103EE0001B68002B00F0F8809847051E1DDBD8F8F2
:103EF000240001AA002105F087F9051E15DB019BAE
:103F000000221979186805F092F9051E0DDB776813
:103F100033693C681D68E36823F40053E360B868C4
:103F200005F0ABFE28B96FF01205284603B0BDE8D6
:103F3000F083D7E902018368DB6803B1984704F195
:103F40000C0353E8003F43F00C0304F10C0141E87B
:103F50000032002AF3D129463046FFF7C3FE05465A
:103F6000002840F0BC803B7E1BB1636943F008032E
:103F70006361E36843F40053E360D8F828303046C7
:103F800098473469736820691F686660002840F0AC
:103F90009780D4F8A800002840F0988073683069B2
:103FA000196801F1140353E8003F23F0400301F1C5
:103FB000140C4CE80032002AF3D180F8A02073687A
:103FC0001A6802F1140353E8003F23F0800302F162
:103FD000140141E80039B9F1000FF2D1414904F16F
:103FE000700005F024FF404904F5847005F01FFFC0
:103FF0001C22494604F1400006F0B7F894F8353029
:10400000043704F13C08E76333B994F858300222CE
:1040100062F3830384F8583094F8363033B994F857
:104020005830022262F3051384F85830E27E94F887
:104030005830C2F3401262F3861362F3C71384F858
:104040005830A26B94F85930C4E90A8662F303032E
:10405000002104F1D40884F85930C4E95011202219
:10406000404606F082F894F8CD30C4F8D87033B9E1
:1040700094F8F030022262F3830384F8F03094F86D
:10408000CE3033B994F8F030022262F3051384F88D
:10409000F03094F8B32094F8F030C2F3401262F399
:1040A000861362F3C71384F8F030D4F8D02094F864
:1040B000F13062F30303C4E9308684F8F13034E769
:1040C00005F0DBFD00287FF464AF2CE705F0D5FD9B
:1040D00000287FF463AF26E76FF0570525E76FF000
:1040E000150522E7D5980008A797000810B50446E3
:1040F000006903691BB94360083000F0EDFD60689A
:10410000012105F065FD002802DA10F1860F0ED1BD
:1041100064680021204605F05BFD002805DB0648A9
:10412000A16883681B681BB1984700EAE07010BD66
:104130006FF05700F9E700BFCCA500082DE9F74F55
:10414000824605690F461E46904612B9002B00F0C4
:104150009C80BB889C0477D44FF0FF324FF0FF3334
:1041600005F1080000F0ECFD6F60DAF810B0DAF845
:104170000490DBF80030D9F80040BA889F426DD136
:10418000100508D5236823F44443B8F1000F62D02A
:1041900043F440432360B88805F087FC0746B8F134
:1041A000000F40F00D81C5F82C8000232B6305F132
:1041B00040023B4605F1300105F12C0005F05FFCA3
:1041C000E863002E40F005816E630023AB6305F1C8
:1041D00048023B4605F1380105F1340005F04FFC7B
:1041E00000236864AB62DAF8043027681A68136841
:1041F00043F0400307F4444713602B6C1BB9AE6CCB
:10420000002E00F01B812A68D9F800609288D2073E
:1042100040F1E680B268920740F12A81002B00F05D
:1042200027812946304605F08CFCB368DB0740F156
:10423000F4806B6C002B00F0F080AB6C002B00F076
:10424000EC8029463046DBE02B69002B84D16B687B
:104250009F4281D189E743F400439BE7D9F81010CE
:104260000229C2F345132CD003292DD0012910D0E7
:104270006FF085062B6813B19B889A0405D4002340
:104280006B6005F1080000F027FD304603B0BDE883
:10429000F08F043B1C2B8CBF00230123002BE7D0A5
:1042A0006368994811044CBF43F0100323F01003D6
:1042B00063608368D9F80810DB6853B96FF00406AF
:1042C000D8E7043B0C2BE6E7082BE9D0102BCFD125
:1042D000E6E701AA98470028F0DB01993868002337
:1042E0001A46013321FA03FC844540F2F980082B79
:1042F000F6D16FF01506BDE7236843F00203236093
:10430000BB8813F0040F236814BF43F0010323F0AC
:1043100001032360BB8813F4006F236823F4444334
:1043200004D0B8F1000F3AD043F440432360BB8877
:1043300013F0100F236814BF43F0800323F08003B1
:104340002360236823F4005323603B7D1BB999F855
:1043500014305A0726D5236843F40073236063683A
:1043600023F004036360BB88684A13F0010F2368DD
:1043700014BF23F4827343F482732360B88805F07A
:1043800094FB0138236852F8202023F40063134380
:10439000236001238BF85430CBF80070FBE643F424
:1043A0000043C3E7BB8813F0010F236823F40073B5
:1043B000D4D143F480232360636843F00403D1E73E
:1043C000D8F80030EB62002B3FF4EFAED8F80430A1
:1043D000ECE633686B63002B3FF4F7AE7368F5E6E9
:1043E00099F81430DB0718D4336803F44448B8F55F
:1043F000004F08D1D9F800008368D907FCD52946B9
:1044000005F05EFB09E0B3689807FCD52946304605
:1044100005F097FBB8F5404FECD1D9F800309A6819
:1044200012F4B87F29D09A68500605D5DA68009250
:10443000009A9B680093009B6FF00406DAF8043042
:10444000DAF810201868036803F48273B3F5827FEA
:1044500030D183681B062DD503685F062AD5036813
:1044600003F44443B3F5004FF3D105F0C6FBF0E786
:10447000736823F080037360D7E6B7F5404F7FF48D
:10448000BCAE2A6C92B9AA6C82B19A681106FCD4AF
:104490001A6822F040021A601A6822F4444242F478
:1044A00000421A601A6842F040021A60276807F456
:1044B0004447A2E683689C0606D583680193019B66
:1044C000036823F04003036013689B88D90401D478
:1044D00005F093FB966202F1180000F0FDFBC9E6BF
:1044E00023680B4923F040032360236851F82220FE
:1044F00023F0380313432360BB889B073FF5FCAED2
:10450000236823F00203FAE6CCA5000844BA0008A9
:10451000DCB900084FF0E0230D4A99691268186968
:104520009B69002908BF1146002B08BF134610F4F1
:10453000803F084801D1994205D2016811440160C9
:104540004FF0E021096900681044C01A704700BFAD
:10455000940E0020900E0020094B102283F8232097
:10456000084B4FF461521A60074B002018604FF05F
:10457000E02343F63F025A61072298611A617047AF
:1045800000ED00E0940E0020900E0020684620F020
:1045900007018D4619B5FFF7BDFF144B1449D3E948
:1045A00000420868001942F10002C3E90002114A02
:1045B00000230B60D2E900414FF46153001BB0FBB4
:1045C000F3F043431B1941F10001C2E90031EFF35D
:1045D0001181102383F31288BFF36F8F01F044FA27
:1045E000FDF756FCBDE819408546704730060020AF
:1045F000900E0020280600202DE9F041364E89B1AA
:10460000421C0AD14FF0E022136923F00103136129
:104610004FF07F433360BDE8F0813568012806DC48
:1046200000240AE0431C3568F8D140F28C4040F287
:104630008D439842A8BF1846441EEFF311871023FC
:1046400083F31288BFF36F8FFFF764FF23494FF0A6
:10465000E023D3F818C0D1E90023801843F1000308
:10466000C1E900031E4B00221A601E4B1A68831A10
:104670002DD44FF4615E43F63F0814FB0E841C44B6
:10468000131AB4FBFEF40EFB0433B3F5806F164A25
:1046900038BF4FF48063934228BF13464FF0E022A7
:1046A00033609469013B536100239361A445D1E9D0
:1046B0000032ACEB04000DD20544EB1842F10002CD
:1046C000C1E9003287F31188BFF36F8FA3E74FF47E
:1046D0008063E3E7C318F1E7940E00203006002062
:1046E000900E00202806002000C3FF0038B5EFF32D
:1046F0001185102383F31288BFF36F8F084B1C685A
:10470000084B1B68E41AFFF705FF85F31188BFF318
:104710006F8F4FF461532044B0FBF3F038BD00BFFE
:10472000300600202806002038B5EFF3118510234D
:1047300083F31288BFF36F8F044B1C68FFF7EAFE08
:1047400085F31188BFF36F8F204438BD30060020F9
:1047500008B513498B6803F00C03042B1CD0082BFD
:104760001CD14A684B68496813F4800314BF0D4894
:104770000D48C1F3881118BF002302F03F02A1FBCE
:104780000001FCF7E3F8064B5B68C3F30143013318
:104790005B00B0FBF3F008BD0248FCE70248FAE713
:1047A0000038024000127A000024F40070B51F4B5C
:1047B000595CD2E90236334316694558334356698A
:1047C000334396693343D6693343966A25F45F359C
:1047D000334325F478752B434350D36A441893B17F
:1047E0006569166B25F0070533432B436361435816
:1047F000556B23F0C0732B4343504358956B23F400
:10480000C0032B4343505368E3601368A36063689D
:10481000156A6FF30F032B4363604358526A23F00A
:10482000606313434350002070BD00BF30C50008D3
:10483000002851D02A4B1B6813F4804319D0294B10
:10484000984207D8284B984209D8284B984208D953
:10485000032300E00523012B38BF012309E00423D3
:10486000F9E7234B984212D8224B98424FF00003AD
:10487000F1D81B4A126852041CD41B4A904208D932
:10488000002B08BF0423012B38BF012312E00223B1
:10489000EFE7164A904203D9002B08BF0323F2E743
:1048A000134A904203D9002BEDD1022302E0114AB2
:1048B0009042E8D810490A6822F007021A430A60B9
:1048C0000A6802F00702934208D0086800F0070067
:1048D000C01A18BF012070470120704700207047A0
:1048E0000070004080D1F008000E2707804A5D0567
:1048F0000087930380C3C901003C024038B5EFF341
:104900001185102383F31288BFF36F8F064B9C68C9
:1049100005F0C6F985F31188BFF36F8F2046BDE817
:104920003840FDF7C5BA00BF980E002038B50A4BD5
:1049300053F82040013053F82050A54200D838BD2C
:10494000606830B1037EDB0701D405F07EF90834DE
:10495000F3E723689847FAE74CBA000870B52A4B8A
:104960002A4C2B4D86B0012203201A70FFF7DEFF80
:1049700001F0DCF90420FFF7D9FF2646AE4204F12E
:1049800030040FD300F0B8FD204CAC4226D300F029
:10499000C7FDFCF743FC1F4A938923F00103938171
:1049A00006B070BD54F80C3C059354F8103C0493C9
:1049B00054F8143C039354F8183C029354F81C3CEC
:1049C000019354F8203C009354E90A2354E90C0164
:1049D00000F08EFB54F8303C5E65CEE7D4E90A2344
:1049E000B3F1FF3F08BFB2F1FF3F05D052EA030128
:1049F000206803D105F002FB3034C6E706491830C1
:104A000000F0A2FFF8E700BF1E0F0020F8AF00087B
:104A1000F8AF0008F8060020579F000870B5154E43
:104A2000154D1649C02386B003FB00660122002302
:104A3000CDE904230F22CDE902320193182303FBB1
:104A40000055044601EB40210D4B00954FF4C07218
:104A5000304600F04DFB337C0A4AEE6023F004033D
:104A600033744FF4086304FB033313442C746B60FA
:104A700006B070BD38060020980E002000180020F7
:104A8000A79C0008800F00207FB50020FFF74EFF95
:104A9000284B83F30888284C636943F400736361EF
:104AA0000025F02384F82230E57725766576A57613
:104AB00084F82050636A43F4E0236362FDF796F8BC
:104AC000FDF7E0F94FF0FF33A362E362FDF720FB4F
:104AD000FDF776FA19481A4C00F082FBFCF7ACFDA2
:104AE0000120FFF723FF0220FFF720FF00F042FD27
:104AF000144B15499C61154B059301234FF48052CB
:104B0000CDE90353CDE90155114B0095204600F046
:104B1000EFFA237C064623F004032046237405F0B5
:104B2000E6F92846FFF77AFF094A31462046FDF7A5
:104B30007DF900BF0018002000ED00E0B80700205C
:104B4000F8060020980E0020001A0020A7C40008D4
:104B50005D4900082DE9F341044617461E46EFF370
:104B60001188102383F31288BFF36F8F304BC26814
:104B70009B6872B18068984217D057EA060216D136
:104B800088F31188BFF36F8F6FF00F0002B0BDE89C
:104B9000F08193F90E1021610132C4E9023288F3E9
:104BA0001188BFF36F8F0020F0E72169F3E793F9D5
:104BB0000E1090F90E30994230DA9942A8BF19468A
:104BC00005F07CF80546CDE900761A4822464146B4
:104BD00000F0F0FB0028E6D0EFF31186102383F3FA
:104BE0001288BFF36F8FA068D0B1236821699C42FF
:104BF0000AD04BB193F90E309942A8BF19466FF015
:104C00007F039942B8BF194605F058F840B10948EA
:104C1000314605F0C6F96FF00A00B7E70025D2E784
:104C2000002DF4D186F31188BFF36F8FF3E700BF37
:104C3000980E00201F0F0020F8B583680546002B52
:104C40003FD0234A926893423ED1C368012B03D9D7
:104C5000013BC3600020F8BDEFF31187102383F3FD
:104C60001288BFF36F8F0169806805F027F82C6800
:104C7000A54207D10023C5E9023387F31188BFF3AA
:104C80006F8FE7E7002CF5D0D4E9003213605A604B
:104C9000237C002623F002032374C4E90066A66087
:104CA00004F1180005F003FAAC6094F90E302B61A2
:104CB0002046A66705F01BF90648394605F071F94C
:104CC000C8E76FF01500C6E74FF0FF30C3E700BF3D
:104CD000980E00201F0F002070B5EFF311861023EF
:104CE00083F31288BFF36F8F0468A0421AD0CCB14F
:104CF000D4E9003213605A60237C002523F00203BC
:104D00002374C4E90055A56004F1180005F0CFF93B
:104D10002046A56705F0EBF831460848BDE870402D
:104D200005F03FB9D0E902329A4218BF01338360DF
:104D300086F31188BFF36F8F70BD00BF1F0F002077
:104D400013B5EFF31181102484F31288BFF36F8F32
:104D5000846844B1013C846081F31188BFF36F8F94
:104D6000002002B010BD52EA030406D181F311887D
:104D7000BFF36F8F6FF00F00F3E7CDE9002302461A
:104D8000014800F017FBECE71F0F002070B5054647
:104D9000EFF31186102383F31288BFF36F8F002384
:104DA0002C68A54218D0BCB1D4E9003213605A6017
:104DB000227C002322F00202C4E900332274A360A3
:104DC00004F1180005F073F96FF00A03A367204699
:104DD00005F08DF80123E3E70022AA6023B986F3EA
:104DE0001188BFF36F8F70BD31460248BDE8704037
:104DF00005F0D7B81F0F00202DE9FF41544E04469F
:104E00001027EFF3118887F31288BFF36F8FD4F860
:104E1000C450F5B9022104F1DC0004F06AFF002857
:104E200070D004F1D40500220121284605F006F9CE
:104E30000028F8D1002302934FF0FF324FF0FF33E8
:104E4000CDE90023414604F1CC02424800F0BCFC0D
:104E5000D7E7D4F8C8202B68C4F8C430954208BFFF
:104E6000C4F8C830D4F8DC3043F00203C4F8DC30B6
:104E7000EB6823F0040343F00103EB606B6888F3F5
:104E80001188BFF36F8F28469847EFF3118887F397
:104E90001288BFF36F8FEB68D80623F001023ED46F
:104EA000EA60EB689A0717D5306823F00203EB60DD
:104EB00090B10368002178B1426895423DD1036802
:104EC000002934D172683360904200D173600023AE
:104ED00040F8083BFFF700FFD4F8DC3023F0020372
:104EE000C4F8DC30DB0530D4D4F8C430003B18BF44
:104EF000012388F31188BFF36F8F002B81D000F05E
:104F000041FB7EE7D4F8DC30D90693D5C4F8DC0049
:104F100088F31188BFF36F8F04B0BDE8F08123F0F0
:104F20001103EB6005F11000FFF7D6FEB9E70B6047
:104F30007368984208BF7160C9E701461BB11A68DF
:104F400018461346B7E71A46FAE70023D1E700BF31
:104F5000BC0E00201F0F0020F8B5C3689A07044656
:104F60000E46C3F3400542D45F0742D40B680BB929
:104F700083680B60E368D80744BFA3683360376871
:104F80004CBF0225012557B31B4B9A68D7F8C03098
:104F90009A421ED104F06AFF80F00100C0B2D7F837
:104FA000DC30D907C3F380021CD5F2B1F8B100237D
:104FB0002360D7F8C83073B9C7E93144384604F0E4
:104FC000B2FEE36843F00403E3603368A36028465D
:104FD000F8BD0020E3E71C60C7F8C840EEE76FF0BB
:104FE000150506E06FF0120503E01B07DFD56FF033
:104FF0000F0500233360EAE7980E002001460148C0
:1050000004F005BF98080020F0B589B004460020E0
:10501000C4E931000E9D04F1CC00C4E9330004F171
:10502000D400C4E9350055B32879002840F20110B6
:1050300008BF0120C4F8DC0000204FF0FF364FF01D
:10504000FF37CDE90330CDE90100CDE906670D4B0F
:105050000094204600F098F855B1296811B1204617
:1050600004F00AFF6B791BB1A38943F00103A3810C
:10507000204604F0C3FFC4F8C04009B0F0BD0120D1
:10508000D8E700BFF94D0008F7B50C460190164669
:105090001D46EFF31187102383F31288BFF36F8F40
:1050A000084604F031FE55EA060309D101A920465D
:1050B000FFF752FF87F31188BFF36F8F03B0F0BD86
:1050C000E368074943F00803E360019BA3623246AB
:1050D0002B4604F1100000F037FC0120EAE700BF86
:1050E0009B9D000801460148FFF7CEBF98080020AD
:1050F0002DE9F043073285B022F007020E461F4625
:105100001099818100F15803FF32C0E9163304463B
:10511000002322F07F020421836001747F2A0F980C
:10512000A073C4E90633E37306F18009A2F1800895
:1051300005D883F31188BFF36F8F084602DFB518D7
:1051400029462046FCF744FB07300E9B20F0070061
:10515000A066C4E9189802930D9B01932D1A0C9B2D
:1051600000932A463B4631462046FCF7DBFD0023F0
:105170006365044B9B6803B1DB6EE366284605B0AC
:10518000BDE8F083980E0020F0B587B000250595A6
:10519000109D04950F9D03950E9D0295DDE91276F5
:1051A0000D9D01950C9D00950446FFF7A1FFB6F1FA
:1051B000FF3F08BFB7F1FF3F05D056EA070305D10F
:1051C000204604F01BFF204607B0F0BD3A463346A8
:1051D00004F11800014900F0B7FBF4E7579F0008FD
:1051E000012310B5037483810023C0E918330446FA
:1051F00000F096FD014B9C6010BD00BF980E002092
:10520000094A93686FF00A019967084958674B6823
:1052100043F080534B60002383F31188BFF36F8FFB
:105220009368986F704700BF980E002000ED00E073
:1052300070B590F91020037C002A2FDBD9062DD100
:105240001A4C63F07F032246037452F81C3F216A14
:10525000934207D1C0E90021086020620FE0994223
:10526000F8D01B68002BF5D093F90E6090F90E5022
:10527000AE42F4DD5968C0E9003108605860E56964
:10528000954200D005B9E568A3681A7CD20606D11C
:10529000DA897F2A03D9AA690AB9A36170BDAB4232
:1052A00002D0284600F0D2FAA561F7E7980E002058
:1052B00038B590F91020037C002A014604DA03F087
:1052C0007F03037404F0DBFD0D4D2A46AB6852F8F2
:1052D0001C4F944200D004B9EC688B4207D01A7C72
:1052E000D20604D1DA897F2A01D9A2692AB1A34260
:1052F00002D0204600F0AAFA2346AB6138BD00BFB9
:10530000980E0020B3F1FF3F08BFB2F1FF3F03D07A
:105310000249183000F018BB704700BF579F0008C3
:10532000034648B9EFF3058232B9064A916992689B
:10533000914201D0FFF764BF83F31188BFF36F8FF1
:10534000704700BF980E002038B5184CA168206A3D
:105350000B68814214BF1A46002249680B605960ED
:10536000A368216A2AB9124AC3E900210B602362AB
:105370000AE092F90E5093F90E00854212DD516851
:10538000C3E900210B605360E569094B9D4200D0E1
:1053900005B9E568A3689D4202D0284600F056FA98
:1053A000A56138BD8A42DED01268DBE7980E002086
:1053B000B40E0020F8B50E4B0C4611460D4A986805
:1053C0001060DDE90667EFF31182102282F3128884
:1053D000BFF36F8F9D68284604F063FD2846324670
:1053E0003B46FFF78FFF2046BDE8F840FFF708BFB8
:1053F000980E0020C40E0020F8B50446EFF3118784
:10540000102383F31288BFF36F8F037C03F01F0216
:10541000002A0CBF0126002649B235D103F07F03D4
:10542000037404F02CFD294D037C817363F07F032A
:105430002A46037452F81C3F286A934207D1C4E9F4
:10544000002004602C620DE09842F8D01B68002B0D
:10545000F5D093F90EC08C45F6DD5968C4E90031EA
:105460000C605C60EC69944200D004B9EC68AB68F5
:105470009C4202D0204600F0E9F9AC6187F3118824
:10548000BFF36F8F3046F8BD9B071CD5856804F0CD
:10549000F6FC81732B689D4209D16B68C4E9005307
:1054A0001C606C60EAE76A689A42F6D01B68002BC1
:1054B000F3D093F90E208A42F5DD5A68C4E9003230
:1054C00014605C60DAE78173D8E700BF980E0020B3
:1054D000034648B9EFF3058232B9064A91699268EA
:1054E000914201D0FFF78CBE83F31188BFF36F8F19
:1054F000704700BF980E0020EFF31181102383F353
:105500001288BFF36F8F054B9A68D37B013BD3732F
:1055100081F31188BFF36F8F704700BF980E002092
:1055200070B5EFF31186102383F31288BFF36F8FEA
:105530000F4DAB68DA7B0132DA732A4652F81C4F02
:10554000944200D004B9EC681A7CD20604D1DA89FE
:105550007F2A01D9A2692AB19C4202D0204600F0DC
:1055600075F92346AB613046BDE87040FFF7D8BE01
:10557000980E0020024B03F11C02C3E9072270477A
:10558000980E002070B5EFF31186102383F3128874
:10559000BFF36F8F1A4CA168206A0B68814214BF59
:1055A0001A46002249680B605960A368216A2AB92B
:1055B000144AC3E900210B6023620AE092F90E50FD
:1055C00093F90E00854216DD5168C3E900210B6096
:1055D0005360E5690B4B9D4200D005B9E568A368AF
:1055E0009D4202D0284600F031F9A5613046BDE861
:1055F0007040FFF705BE8A42DAD01268D7E700BFD5
:10560000980E0020B40E0020F8B550EA01030646BB
:105610000C4603D1FFF7B6FF0020F8BDEFF311876A
:10562000102383F31288BFF36F8F124D124BA868BB
:105630001860FFF73DFEA86810492346324618302F
:1056400000F082F9AA68137C43F004031374044643
:105650003846FFF7D5FDAB68D3E90A23B3F1004F15
:1056600008BF002AD8D104F057FD201A20EAE070C4
:10567000D3E700BF980E0020C40E0020579F0008FB
:10568000014B9868704700BF980E00202DE9F84341
:1056900004468789EFF31186102383F31288BFF342
:1056A0006F8F037C190705D586F31188BFF36F8FC1
:1056B000BDE8F883D90943F008026FD10274A368EA
:1056C00013B1204604F0E3FB04F1180004F0EFFCF2
:1056D000A56D04F15808A84511D04FF0000975B127
:1056E000284604F0D4FB05F1180004F0E0FCC5F8EE
:1056F00078902846FFF79CFDA56DA845EFD1DFF80F
:10570000C480D8F808309C4250D1EFF30589B9F134
:10571000000918BF4FF00109D8F81C50274A9542DC
:1057200000D00DB9D8F80C50AB4202D0284600F09A
:105730008DF82046C8F8185002F019FBB9F1000F97
:1057400002D01F48FFF74CFDD8F808309C4230D1FA
:10575000EFF305836BBBA289D20711D586F31188BD
:10576000BFF36F8F83F31188BFF36F8F0423184645
:1057700002DFEFF31186102383F31288BFF36F8FDC
:105780003046FFF73DFDFB0792D5002383F31188D8
:10579000BFF36F8F0423184602DF89E703F07F030E
:1057A00043F00803037404F06AFB88E74FF0000934
:1057B000B2E786F31188BFF36F8FE4E7B40E0020E1
:1057C000B8070020980E0020D3B5DDE90667089CD5
:1057D000CDE90067FFF7EEFD1CB1034B9B685B69E9
:1057E000236002B0D0BD00BF980E0020027C12F0F2
:1057F0001F02034610D10A4988420DD009490868A2
:1058000068B1D9897F2909D893F90E20064B1B6806
:105810009A42B8BF0020704700207047104670477A
:105820003806002040050020C80E0020044BC01A96
:10583000044BC0105843044B01221A54704700BF58
:1058400078080020ABAAAAAA1F0F002070B50C4B45
:105850000C4D1E7CFFF7CAFF182303FB06550446B8
:10586000284604F024FC084B00229A553CB1621EE5
:1058700028460649BDE87040D31700F065B870BDF2
:10588000980E0020780800201F0F00202D580008D7
:1058900038B5EFF31185102383F31288BFF36F8FB0
:1058A0000F4B104A9C681068A04206D1FFF7CEFF4C
:1058B00085F31188BFF36F8F38BD00211B7C116009
:1058C000094AD35C002BF3D02046FFF78FFF002856
:1058D000EED0237CDB0601D1FFF736FD2046E5E75D
:1058E000980E0020C40E00201F0F0020024B1868E5
:1058F000984208BF0020704744050020034B1B68F6
:105900000BB9FEF7F3BE0020704700BFCC0E00209D
:1059100030B570B10B4B5B6898420AD0036843B155
:10592000D3E90421D0E90445121941EB0501C3E98B
:105930000421D0E9003213605A600023C0E900332B
:1059400030BD00BF44050020B3F1FF3F08BFB2F1F6
:10595000FF3F2DE9F84F0446994615461F467AD079
:105960008160EFF31188102383F31288BFF36F8FE8
:10597000B9F1000FDFF8E8A020DBFFF7BFFFDAE99D
:105980000027013549F100092D1849EBE073C4E9FE
:105990000453AD18064643EB07074FF00109FFF724
:1059A000A5FFDFF8C0E0DEF804A00346EBB9C4E9C8
:1059B00000EACAF80040CEF8044028E0DAE9001214
:1059C0006FF001035B1A4FF0FF3161EB02025B1BCA
:1059D00062EB0902012B72F10001BCBF012300221E
:1059E000C0E904324FF00009D9E7D3E9041CD4E937
:1059F00004208A4270EB0C0B24DA891A5A686CEB8B
:105A00000000C3E90410C4E9003214605C60FFF7D1
:105A10006DFF84420ED1114B1B685BB9B9F1000FC9
:105A200002D1FFF76BFF0646304604F029FB002148
:105A3000FEF7E2FD88F31188BFF36F8F28463946E1
:105A4000BDE8F88F521A60EB0C005345C4E90420FE
:105A5000ADD01B68AAE700252F46EFE7CC0E00204B
:105A600090080020440500202DE9F047284F294EDA
:105A700038600246FFF73AFF0D464FF000084FF03E
:105A80000009D6E900134FEAE27E50B1D0E9044C98
:105A9000A2427EEB0C0A1ADAA41A6CEB0E0CC0E9D7
:105AA000044C52184FF0000443EB0E032046C6E9A5
:105AB00000233C6004F0E4FA2146FEF79DFD85F3E7
:105AC0001188BFF36F8FBDE8F047FFF7E1BE6118A3
:105AD00043EBE473C0E90489C6E90013FFF718FF3C
